:020000040800F2
:10000000C0140020010100085D3D0008CD3100084A
:10001000BD380008250C0008C16000080000000081
:100020000000000000000000000000007F590008F0
:10003000550D000800000000053E0008C15C0008E6
:100040001B0100081B0100081B0100081B01000820
:100050001B0100081B010008710F00081B010008AC
:100060001B0100081B0100081B010008190D0008F6
:100070001B0100081B0100081B0100081B010008F0
:100080001B0100081B0100081B0100081B010008E0
:100090001B0100081B0100081B0100081B010008D0
:1000A0001B0100081B0100081B0100081B010008C0
:1000B0001B0100081B0100081B0100081B010008B0
:1000C0001B0100081B0100081B0100081B010008A0
:1000D0001B0100081B0100081B0100081B01000890
:1000E0001B0100081B0100081B010008DFF80CD0F1
:1000F00000F0B0FC00480047D9700008C014002090
:100100000648804706480047FEE7FEE7FEE7FEE7B1
:10011000FEE7FEE7FEE7FEE7FEE7FEE7A15D00087B
:10012000ED000008202A04DB203A21FA02F0002129
:10013000704721FA02F3D040C2F1200291400843F7
:1001400019467047F0B480EA0102D40F4200B2EBC6
:10015000410F02D20246084611464A0042D0C30D62
:10016000DDB2C1F3C752AD1A202D35DAC1F3160145
:1001700041F4000204B15242C5F1200602FA06F130
:100180002A411044B3EBD05F23D0C4B1012DA0EBC2
:10019000C35009DCF0BC4FF0004202EAC352DBB2AC
:1001A00000F5000000F061BB400000F1807000EB42
:1001B000C350A0F1807040EAD170490009E04908BD
:1001C00041EAC071A0EBC35000F50000400800EB0D
:1001D000C350F0BC00F040BB6142012202EB410180
:1001E000001BF6E7F0BC704781F00041AAE780F001
:1001F0000040A7E780EA010210B502F0004340008A
:1002000022D04A001FD0010E01EB1261C0F356004C
:10021000C2F3560240F4000042F40002A0FB0220A8
:1002200000047F39140400D0401C50EA124001D46D
:100230004000491EC2B20C0604EBD010401C40081E
:10024000802A02D003E0002010BD20F00100002928
:1002500000DA0020184310BD30B480EA010202F039
:10026000004530F0004221F0004013D090B1C30DA2
:10027000D40DC2F31601C0F31600E41A41F40001D4
:1002800040F400027D34914201D3641C00E0490037
:10029000002C02DA30BC002070474FF4000000232D
:1002A000914201D3891A034340084FEA4101F7D133
:1002B00051B1914202D14FF0004105E002D24FF01E
:1002C000010101E06FF0010103EBC450284430BC90
:1002D00000F0C2BA2DE9FE4F804681EA0300C00F4C
:1002E0000C46009021F0004123F00045B8EB0200DD
:1002F000A94105D24046214690461C460B4602467F
:1003000023F00040104347D0270DC7F30A00C3F382
:100310000A510290401A019040286BDAC3F313008F
:1003200040F4801B0098924620B10023D2EB030AD0
:1003300063EB0B0B01985946C0F14002504600F0A8
:100340006AFA06460D4650465946019A00F072FA7E
:1003500010EB08006141002487EA115284EAE77338
:100360001A4340D0009A62B3019A012A4FEA075219
:1003700015DC001B61EB02014FF0004202EA07525C
:10038000CDE90042001C41F5801132462B4600F0B9
:10039000A9FA03B0BDE8F08F40462146F9E7001BFB
:1003A00061EB0201001C41F5801300185B4120182D
:1003B000A2F5001747EB030140EAD570B6196D416D
:1003C00011E06D084FEA360645EAC0754FEA07525C
:1003D000001B61EB0201001C41F5801149084FEA46
:1003E00030000019514132462B4603B0BDE8F04FB2
:1003F00000F069BA0098012240000023D0EB02020D
:1004000063EBE073009821464FEAE074B8EB00001C
:1004100061EB0401E9E783F000435BE781F0004111
:1004200058E72DE9FE4F81EA030404F0004421F06F
:10043000004100944FF0000B23F0004350EA010408
:100440005ED052EA03045BD0C3F30A54C1F30A55E9
:100450002C44A4F2F3340194A0FB0254C1F3130121
:1004600041F48011C3F3130343F4801301FB0244EE
:1004700000FB034E840A970A44EA815447EA8357F3
:10048000A4FB076802958D0A05FB07854FEA932CAC
:1004900004FB0C542705029D4FEA065847EA16371D
:1004A000B5EB08056EEB070C870E920E47EA811735
:1004B00042EA8312A7FB0201B6EB0B0164EB0004D6
:1004C0002B0D43EA0C335E1844EB1C50DA465146C0
:1004D000E7FB0201C5F313044FEA0B3343EA14535D
:1004E0004FEA0432019C43EA0603A4F10C0402948F
:1004F000009CCDE900B400F0F5F903B0BDE8F08F41
:1005000000200146F9E72DE9F04D81EA030404F0EB
:10051000004B21F0004514464FF0000A23F0004143
:1005200050EA050220D054EA01021DD0C5F30A5753
:100530000246C5F31303C1F31300C1F30A5640F496
:10054000801543F48013A7EB0608101BD64608F26B
:10055000FD3873EB050002D308F1010801E09218A1
:100560005B41B8F1000F03DA00200146BDE8F08DD1
:1005700000204FF48011064684460EE0171B73EBF3
:10058000050705D3121B63EB050306434CEA010C78
:1005900049084FEA300092185B4150EA0107EDD15B
:1005A00052EA030012D082EA040083EA05010843FC
:1005B00005D0101BAB4106D20122002306E0002229
:1005C0004FF0004302E06FF0010253101AEB0600F7
:1005D0004CEB085110EB0A0041EB0B01BDE8F04D6C
:1005E00000F071B9C10F80EAE0700844CA07962391
:1005F000002100F03AB996230022114600F035B9E7
:100600000EB5C10F80EAE0700844CA07002140F22D
:1006100033438DE80E000A460B4600F063F903B041
:1006200000BD0EB540F2334102910021CDE9001129
:100630000A460B4600F056F903B000BD00F0004238
:1006400020F00040C10DC0F3160040F400007F29E7
:1006500001DA00207047962903DCC1F19601C840F9
:1006600001E096398840002AF4D040427047C1F337
:100670000A5210B5C1F3130140F2FF3341F4801167
:100680009A4201DA002010BD40F233439A42A2F2AE
:10069000334203DC5242FFF745FD10BD904010BDD0
:1006A00000F0004230F000400AD0C10D01F5607149
:1006B000C0F3160042EA0151C208400711437047D7
:1006C000002001467047000030B5041E71F100049F
:1006D00004DB4FF00044404264EB0101141E73F14F
:1006E000000405DB1C464FF00043524263EB040359
:1006F0008B4208BF824230BD30B5041E71F1000448
:1007000004DB4FF00044404264EB0101141E73F11E
:10071000000405DB1C464FF00043524263EB040328
:10072000994208BF904230BD01F0004330B421F03F
:10073000004150EA010206D00A0DA2F56072C1F331
:100740001301002A02DC30BC00207047440F44EA49
:10075000C104C100E01830BC00EBC25000F07CB80E
:10076000002801DBC0F10040002901DBC1F100419C
:1007700081427047002801DBC0F10040002901DB05
:10078000C1F100418842704730B50B460146002058
:100790002022012409E021FA02F59D4205D303FA43
:1007A00002F5491B04FA02F52844151EA2F10102C4
:1007B000F1DC30BD2DE9F05F0546002092469B46F6
:1007C00088460646814640241BE028464146474667
:1007D0002246FFF7A7FC53465A46C01A914110D350
:1007E00011461846224600F016F82D1A67EB01084C
:1007F0004F4622460120002100F00DF817EB0009BA
:100800004E41201EA4F10104DFDC484631462A4651
:100810004346BDE8F09F202A04DB203A00FA02F1AB
:10082000002070479140C2F1200320FA03F31943DE
:1008300090407047202A06DBCB17203A41FA02F09D
:1008400043EAE07306E041FA02F3D040C2F120022D
:1008500091400843194670470029A8BF7047401CC3
:10086000490008BF20F00100704710B4B0FA80FCC6
:1008700000FA0CF050EA010404BF10BC704749B103
:10088000CCF1200421FA04F411FA0CF118BF012173
:1008900021430843A3EB0C01CB1D4FEA00614FEA53
:1008A000102042BF002010BC704700EBC350104422
:1008B0000029A4BF10BC7047401C490008BF20F0AD
:1008C000010010BC704710B5141E73F1000408DA63
:1008D000401C41F1000192185B411A4301D120F004
:1008E000010010BD2DE9F04D92469B4611B1B1FAC1
:1008F00081F202E0B0FA80F220329046FFF78BFFDF
:1009000004460F4640EA0A0041EA0B0153465A46A4
:10091000084313D0114653EA010019D0C8F1400230
:100920005046FFF7FFFB05460E46504659464246E5
:10093000FFF771FF084305D0012004E02046394647
:10094000BDE8F08D0020054346EAE0762C433743AE
:100950000A986305E40AA0EB08000022FD0A44EAB5
:1009600047540A3002D500200146E9E70105101975
:100970006941DDE9084500196941BDE8F04DA2E78C
:100980002DE9F04D00231A461B1A8A4103DB002093
:100990000146BDE8F08DC1F30A52C1F3130141F4E1
:1009A00080154FF0000BD10702D100186D41521E87
:1009B0000027044640F2FF11384601EB620A3E462A
:1009C0008046024600204FF48011FFF7ABFBC219AE
:1009D0007141BB1846EB0100B4EB030C75EB000C46
:1009E00004D3E41A65EB000517460E46241908F1F6
:1009F00001006D4180463428E3DDF91946EB06001D
:100A0000091BA84103D24FF0FF32134601E0002238
:100A100013461BEB070046EB0A51BDE8F04DFFF70C
:100A200052BFC1F30A52C1F3130140F2FF3341F444
:100A300080119A4202DA00200146704740F23343A7
:100A40009A42A2F2334202DC5242FFF76BBBFFF73D
:100A5000E2BE0000064C074D06E0E06840F00103EE
:100A600094E8070098471034AC42F6D3FFF742FBF6
:100A7000F0E4000810E5000870B58C1810F8015B70
:100A800015F0070301D110F8013B2A1106D110F827
:100A9000012B03E010F8016B01F8016B5B1EF9D12B
:100AA0002B0705D40023521E0DD401F8013BFAE7B1
:100AB00010F8013BCB1A921C03E013F8015B01F81C
:100AC000015B521EF9D5A142D8D3002070BD70B58C
:100AD000044600252068806800F00100F0B120681D
:100AE000806820F001002168886001F027FA05463F
:100AF0000EE001F023FA401B022809D9A06A40F059
:100B00001000A062E06A40F00100E062012070BDC8
:100B10002068806800F001000028EAD10020F6E794
:100B200070B505466C6AA06A00F05000E0B9A06A92
:100B300040F40070A0622068806800F46020B0F586
:100B4000602F0DD1E06858B9A06A20F48070A062CF
:100B5000A06A00F4805018B9A06A40F00100A062B9
:100B6000204600F037FC03E0206A016B28468847E6
:100B700070BD70B505466C6AA06A40F04000A06286
:100B8000E06A40F00400E062204600F03EFC70BDE8
:100B900070B50446656A284600F036FC70BD00005A
:100BA00038B504460025002000902068806800F0D9
:100BB000010080BB2068806840F0010021688860E7
:100BC000164800681649B0FBF1F0009002E000986A
:100BD000401E009000980028F9D101F0AFF90546B9
:100BE00013E001F0ABF9401B02280ED9A06A40F0D7
:100BF0001000A062E06A40F00100E06200BF002047
:100C000084F8240000BF012038BD2068806800F00F
:100C100001000028E5D00020F6E7000000000020D9
:100C200040420F0000BFFEE738B5012014236122C7
:100C300019460090182004F0F2FD01202C236122B7
:100C400019460090182004F0EAFD01202B231722FA
:100C500015210090104604F0E2FD01202B236222B2
:100C600015210090104604F0DAFD012027236322AD
:100C700019210090104604F0D2FD012027236422A0
:100C800019210090104604F0CAFD01202623652298
:100C90001A210090104604F0C2FD03F061FB0F49D9
:100CA0004868FFF7FDFC044622460B460CA10E489F
:100CB00005F08AFD06212D2006F0CEFD01230B480C
:100CC00006C8094806F0BEFE06F0CCFD0120084922
:100CD000087000200749087038BD0000040000209B
:100CE000252E32665600000094040020800000206B
:100CF0005D0000203E03002005480078012806D151
:100D000004480078012802D1002002490870704789
:100D1000580000203F03002010B5024800F02EFDCF
:100D200010BD0000A403002030B590F8405001240D
:100D3000AC40C56B6C60046863604468102C04D1DF
:100D40000468A2600468E16003E00468A1600468CC
:100D5000E26030BD704708B5012024234D221946BA
:100D60000090042004F05BFD01203C234D22194635
:100D70000090042004F053FD01203B230322252191
:100D80000090104604F04BFD01203B234E2225210C
:100D90000090104604F043FD012037234F22292103
:100DA0000090104604F03BFD0120372350222921FA
:100DB0000090104604F033FD0120362351222A21F1
:100DC0000090104604F02BFD08BD08B5012040231B
:100DD000802219460090592004F021FD01200023B3
:100DE000802219460090592004F019FD012040236B
:100DF000802200210090104604F011FD01202123E3
:100E0000802219460090592004F009FD012040235A
:100E1000582200210090104604F001FD08BD00009A
:100E200000B585B000F0C8FE0120039001900B488A
:100E300002900020009004A9684600F003FE48B923
:100E400000F058FE0498401C10B1002005B000BD11
:100E50000120FBE700F04EFE0020F7E700F001085C
:100E60000246B2F5007F01DB00207047024B53F8C9
:100E7000220008600120F8E700F001080246B2F500
:100E8000007F01DB00207047024B53F8220008600E
:100E90000120F8E700F0010830B503465818B0F516
:100EA000007F01DD002030BD184606E0054D55F8F5
:100EB00020401460121D441CA0B2CC188442F5DC02
:100EC0000120F0E700F001082DE9F04104460D464D
:100ED000B4F5007F02DB0020BDE8F081224951F823
:100EE0002400401C38B3214A89140020FFF7D4FFA6
:100EF00018B900F0FFFD0020EEE71C4840F8245030
:100F0000FFF78EFF00F058FE002611E0174850F85A
:100F10002670154800EB86013A460023022000F0B7
:100F2000F3FD18B100F0E6FD0020D5E7701C86B295
:100F3000B6F5007FEADB00F03FFE681C80B10A488E
:100F400000EB84012A460023022000F0DDFD18B9E1
:100F500000F0D0FD0120BFE700F0CCFD0020BBE792
:100F600000F0C8FD0120B7E700F00108A00800204C
:100F700010B5012000F038FE10BD00000021074A26
:100F8000D1610749096941F00401054A116111461F
:100F9000096941F04001116170470000A010002074
:100FA000002002400021074AD1610749096941F048
:100FB0000201054A116111464861096941F0400189
:100FC00011617047A0100020002002400022054B54
:100FD000DA61054A126942F00102034B1A6101808D
:100FE00070470000A01000200020024000201E4991
:100FF000C96801F0100139B11C49C96941F0020109
:101000001A4AD16140F010001749C96801F0040183
:1010100039B11649C96941F00101144AD16140F062
:1010200004001149C96901F0010169B10F49C96999
:1010300041F004010D4AD16100BF0B49C96921F09B
:101040000101094AD16100BF00BF40F2011188428D
:1010500006D10549C96921F00101034AD16101E0C6
:101060000149C86000BF704700200240A010002066
:1010700070B5044600F062FF054609E0601C38B117
:1010800024B100F05BFF401BA04201D9032070BDDA
:101090001248C06800F001000028EFD10F48C06876
:1010A00000F0200020B100BF20200C49C86000BF24
:1010B0000A48C06800F0100048B90848C06900F04C
:1010C000010020B90548C06800F0040018B1FFF71E
:1010D0008DFF0120DBE70020D9E70000002002405F
:1010E0002DE9F0470C494868FFF7DAFA06460B4A43
:1010F0000B4BFFF790F904460D460A480068FFF7CE
:10110000CFFA804622462B46FFF7F6FA02D200209D
:10111000BDE8F0870120FBE7040000209A99999927
:101120009999B93F340000202DE9F0470C494868EF
:10113000FFF7B6FA06460B4A0B4BFFF76CF904466D
:101140000D460A480068FFF7ABFA804622462B4658
:10115000FFF7D2FA02D20020BDE8F0870120FBE7BA
:1011600004000020B81E85EB51B8AE3F3C000020C3
:10117000F8B5044600260020009000BF94F8240033
:10118000012801D10220F8BD012084F8240000BF0D
:101190002046FFF79CFC0646002E62D1A06A20F490
:1011A000885040F00200A062022001F03BF9304973
:1011B0000968B1FBF0F04000009002E00098401E8A
:1011C000009000980028F9D12046FFF7E9FC20683C
:1011D000806840F008002168886000F0AFFE054696
:1011E00011E000F0ABFE401B0A280CD9A06A20F0E9
:1011F000020040F01000A06200BF002084F824002C
:1012000000BF0120BFE72068806800F008000028C8
:10121000E7D12068806840F004002168886000F011
:101220008DFE054611E000F089FE401B0A280CD90E
:10123000A06A20F0020040F01000A06200BF002071
:1012400084F8240000BF01209DE72068806800F03A
:1012500004000028E7D1A06A20F0020040F001005D
:10126000A06200BF002084F8240000BF30468AE757
:101270000000002038B5024600230020009000BF87
:1012800092F82400012801D1022038BD012082F803
:10129000240000BF4868072812D21068406B0C7900
:1012A000641E04EB84051F24AC40A0430D796D1E21
:1012B00005EB85050C68AC4020431468606327E0AB
:1012C00048680D2812D21068006B0C79E41F04EBFB
:1012D00084051F24AC40A0430D79ED1F05EB850567
:1012E0000C68AC4020431468206311E01068C06AA9
:1012F0000C790D3C04EB84051F24AC40A0430D7910
:101300000D3D05EB85050C68AC4020431468E06298
:1013100008680A2812D31068C0680C780A3C04EBED
:1013200044050724AC40A0430D780A3D05EB450574
:101330008C68AC4020431468E0600FE010680069DE
:101340000C7804EB44050724AC40A0430D7805EB72
:1013500045058C68AC40204314682061086810285B
:1013600002D00868112827D1174C1068A0421ED15E
:101370001068806800F40000F0B91068806840F4DC
:1013800000001468A0600868102815D10F48006894
:101390000F4CB0FBF4F000EB80004000009002E046
:1013A0000098401E009000980028F9D104E0906A4F
:1013B00040F020009062012300BF002082F824004A
:1013C00000BF184661E70000002401400000002033
:1013D00040420F0070B505460849286888420CD184
:1013E000002408E0064951F82400FFF704F90549F4
:1013F00041F82400641C032CF4DB70BD0024014080
:101400007C04002088040020704770472DE9F041DB
:101410000446002700250026A84614B90120BDE88F
:10142000F081A06810B1606900B100BFA06A30B956
:101430000020E06284F82400204600F089F820466D
:10144000FFF745FB0746A06A00F01000002873D1A3
:10145000002F71D1A06A20F4885040F00200A062F1
:10146000E16960680843E16840EA41000643A0681A
:10147000B0F5807F02D0A068012802D14FF48070BF
:1014800000E0002005436069012811D1E06838B907
:10149000A069401E4FF4006141EA4030054307E077
:1014A000A06A40F02000A062E06A40F00100E06223
:1014B0002068406820F4694028432168486020681B
:1014C000806821490840304321688860A068B0F5F1
:1014D000807F02D0A068012802D14FF4807000E024
:1014E0000020B0F5807F03D1208A401E4FEA0058CB
:1014F0002068C06A20F4700040EA08002168C862D1
:101500002068806811490840B04208D10020E0629C
:10151000A06A20F0020040F00100A06211E0A06A81
:1015200020F0020040F01000A062E06A40F00100EC
:10153000E062012705E0FFE7A06A40F01000A0622A
:10154000012738466BE70000FDF7E1FFFE0E1FFFA5
:1015500010B586B004461D492068884233D100BFCB
:101560001B48806940F40070194988610846806909
:1015700000F40070019000BF00BF302002900320F3
:10158000039002A9134800F03DFB1348134908607B
:10159000002048600021114881608021C1608900DD
:1015A000016189004161202181610902C16100F06E
:1015B000B3F918B176210AA005F004F900BF074875
:1015C0002062446200BF06B010BD0000002401404C
:1015D000001002400008014008000240A40300205F
:1015E0002E2E2F5372632F73746D333266317878D9
:1015F0005F68616C5F6D73702E6300002DE9F041D0
:1016000004460D461646002757492068884203D0F5
:1016100056492068884205D15348001D006800F4EF
:10162000702000E0002000287ED100BF94F8240044
:10163000012802D10220BDE8F081012084F82400B5
:1016400000BF2046FFF7ACFA0746002F6DD1A06A15
:1016500040F60161884340F48070A06243492068ED
:10166000884209D14048001D006800F4702008B984
:10167000012002E0002000E0012078B1A06A20F4FF
:101680008010A0622068406800F4806000B3A06A07
:1016900020F4005040F48050A06219E0A06A40F4A9
:1016A0008010A06230492068884203D02F4920680A
:1016B000884205D12C48001D006800F4806000E0DD
:1016C000002028B1A06A20F4005040F48050A062AD
:1016D000A06A00F4805020B1E06A20F00600E062C9
:1016E00001E00020E06200BF002084F8240000BF79
:1016F0001F48216A88621F48216AC8621E48216A01
:1017000008636FF00200216808602068806840F478
:10171000807021688860226802F14C0133462A46B5
:10172000206A00F031F901E01AE014E020688068D6
:1017300000F46020B0F5602F06D12068806840F486
:10174000A000216888600CE02068806840F4801068
:101750002168886005E000BF002084F8240000E0D4
:101760000127384667E700000024014000280140B7
:10177000210B0008910B0008730B000870B504469C
:10178000E06B05682068066894F8401004208840E3
:101790002840002846D006F00400002842D02068E7
:1017A000006800F0200028B92068006820F00400DC
:1017B0002168086057492068884201D1042027E049
:1017C000544914312068884201D1402020E0514919
:1017D00028312068884201D1001519E04D493C317B
:1017E0002068884202D14FF4804011E049495031CD
:1017F0002068884202D14FF4802009E045496431D5
:101800002068884202D14FF4800001E04FF08060F0
:10181000404908394860E06A00287AD02046E16AE9
:10182000884776E094F84010022088402840A0B312
:1018300006F0020088B32068006800F0200040B97C
:101840002068006820F00A0021680860012084F800
:10185000210030492068884201D1022028E02D492A
:1018600014312068884201D1202021E02949283103
:101870002068884201D140151AE026493C31206891
:10188000884202D14FF4005012E0224950312068C2
:10189000884203D14FF400300AE017E01D4964315B
:1018A0002068884202D14FF4001001E04FF0007030
:1018B00018490839486000BF002084F8200000BFA4
:1018C000A06A30B32046A16A884722E094F840100D
:1018D000082088402840E0B106F00800C8B1206820
:1018E000006820F00E002168086094F84010012084
:1018F0008840E16B48600120A06384F8210000BFAC
:10190000002084F8200000BF206B10B12046216B1E
:10191000884770BD080002400146002209B9012035
:101920007047184B0868C01A1423B0FBF3F080000E
:10193000086414480838C863022081F82100086848
:10194000026843F6F0708243D1E901031843CB6883
:1019500018430B6918434B6918438B691843CB69CB
:10196000184302430868026000208862C862086366
:1019700048638863012081F82100002081F820005D
:1019800000BFCDE7080002402DE9F04104460D46B6
:1019900016461F464FF0000800BF94F820000128AB
:1019A00002D10220BDE8F081012084F8200000BFB0
:1019B00094F8210001282CD1022084F82100002075
:1019C000A0632068006820F00100216808603B46A1
:1019D000324629462046FFF7A7F9E06A30B1206871
:1019E000006840F00E00216808600BE02068006885
:1019F00020F00400216808602068006840F00A00B8
:101A0000216808602068006840F0010021680860D3
:101A100006E000BF002084F8200000BF4FF002085D
:101A20004046BFE731B500F089FA0546009C601CCE
:101A300000B1641C00BF00F081FA401BA042FAD341
:101A400038BD00002DE9F04104460E46012700256F
:101A500000BF2648007E012802D10220BDE8F081A7
:101A600001202249087600BF2068022813D14CF2D9
:101A70005030FFF7FDFA90BB0120FFF77FFA4CF2E0
:101A80005030FFF7F5FA07461948006920F00400C6
:101A90001749086123E04CF25030FFF7E9FAF0B93A
:101AA0004FF0FF303060A56812E02846FFF77AFA61
:101AB0004CF25030FFF7DCFA07460D48006920F081
:101AC00002000B4908610FB1356007E005F580653C
:101AD000D4E9021001EB8020A842E6D800BF00BF85
:101AE00000200249087600BF3846B7E7A010002062
:101AF000002002400348006940F08000014908616D
:101B000000207047002002402DE9FE4F05468B461D
:101B100017469846012600240020029000BF244862
:101B2000007E012802D10220BDE8FE8F012020495D
:101B3000087600BF4CF25030FFF79AFA064686BB93
:101B4000012D02D10120029006E0022D02D10220D7
:101B5000029001E00420029000241EE02201B94618
:101B6000C24648465146FEF7DDFA80B20190022097
:101B700000FB04B000900199FFF728FA4CF25030B6
:101B8000FFF776FA06460B48006920F00100094984
:101B9000086106B104E0601CC4B202988442DDDB37
:101BA00000BF00BF00200249087600BF3046BBE7F7
:101BB000A0100020002002400748006900F08000CB
:101BC00028B10648044948600548486001E0012002
:101BD00070470020FCE70000002002402301674519
:101BE000AB89EFCD7047000010B50446044800688B
:101BF000204020B1024804602046FFF7F3FF10BDEB
:101C0000140401402DE9F847034600240020002574
:101C10008446002700226EE14FF0010808FA02F422
:101C2000D1F8008008EA0400A0427DD1DFF8D0A2FC
:101C3000D1F80480A8EB0A09D0453AD014DCB8F1F9
:101C4000030F50D009DCB8F1000F31D0B8F1010F0B
:101C50001CD0B8F1020F49D120E0B8F1110F18D013
:101C6000B8F1120F42D11EE0B9F5881F25D006DC6D
:101C7000B9F5803F20D0B9F5801F37D11AE0B9F50A
:101C8000001F18D0B9F5041F30D117E0D1F80CC0EF
:101C90002DE0D1F80C8008F1040C28E0D1F80C807C
:101CA00008F1080C23E0D1F80C8008F10C0C1EE0C0
:101CB00000BF00BF00BF00BF00BF00BFD1F8088059
:101CC000B8F1000F02D14FF0040C0BE0D1F80880FE
:101CD000B8F1010F03D14FF0080C1C6102E04FF086
:101CE000080C5C6103E04FF0000C00E000BF00BF97
:101CF000FF2801D8984601E003F104084646FF2872
:101D000002D84FEA820803E0A2F108084FEA8808E7
:101D10004746D6F800804FF00F0909FA07F928EA7C
:101D200009080CFA07F900E088E048EA0908C6F853
:101D30000080D1F8048008F08058B8F1805F7DD130
:101D400000BFDFF8C081D8F8188048F00108DFF83C
:101D5000B491C9F81880C846D8F8188008F001086E
:101D6000CDF8008000BF00BF4FEAB9384FEA9209B2
:101D700058F829504FEA82784FEA18794FF00F0847
:101D800008FA09F825EA0805DFF87C81434502D105
:101D90004FF0000816E0DFF87481434502D14FF0A0
:101DA00001080FE0DFF86881434502D14FF00208D7
:101DB00008E0DFF86081434502D14FF0030801E0FD
:101DC0004FF004084FEA82794FEA197908FA09F8C6
:101DD00048EA0505DFF840814FEA920948F82950A2
:101DE000D1F8048008F48038B8F5803F0AD1DFF8D4
:101DF0002C81D8F8008048EA0008DFF82091C9F863
:101E0000008009E0DFF81481D8F8008028EA000893
:101E1000DFF80891C9F80080D1F8048008F4003890
:101E2000B8F5003F10D1DFF8F48008F10408D8F8C5
:101E3000008048EA0008DFF8E49000E05AE009F189
:101E40000409C9F800800DE0DFF8D08008F104082B
:101E5000D8F8008028EA0008DFF8C09009F10409EA
:101E6000C9F80080D1F8048008F48018B8F5801F04
:101E70000ED1DFF8A88008F10808D8F8008048EAF9
:101E80000008DFF8989009F10809C9F800800DE012
:101E9000DFF8888008F10808D8F8008028EA0008F0
:101EA000DFF8789009F10809C9F80080D1F80480BA
:101EB00008F40018B8F5001F0ED1DFF8608008F1B3
:101EC0000C08D8F8008048EA0008DFF8509009F1C3
:101ED0000C09C9F800800DE0DFF8408008F10C081B
:101EE000D8F8008028EA0008DFF8309009F10C09E2
:101EF000C9F80080521C102AFFF48EAEBDE8F887A6
:101F0000000011100010024000080140000C0140C8
:101F1000001001400014014008000140000401408D
:101F2000024693680B400BB1012000E0002070478F
:101F30000AB1016101E00B040361704701480068C8
:101F4000704700006C03002070B504460026002591
:101F50000CB9012070BD94F83D0028B9002084F828
:101F60003C00204600F048F9242084F83D00206819
:101F7000006820F001002168086000F055FC05466B
:101F80003948B5FBF0F620684660384960688842F9
:101F900001D8701C07E04FF4967070434FF47A71CB
:101FA000B0FBF1F0401C216808623049606888424B
:101FB0000ED860684000B5FBF0F0C0F30B000428B9
:101FC00001D204202DE060684000B5FBF0F028E06D
:101FD000A06828B9606800EB4000B5FBF0F008E0AD
:101FE000606800EBC00101EB0010B5FBF0F040F4BD
:101FF0008040C0F30B0008B9012012E0A06828B9A6
:10200000606800EB4000B5FBF0F008E0606800EBB2
:10201000C00101EB0010B5FBF0F040F4804040F44B
:1020200000402168C861D4E90701084321680860BD
:10203000D4E90310084321688860D4E90501084306
:102040002168C8602068006840F0010021680860CD
:1020500000202064202084F83D000020206384F8C4
:102060003E0000BF76E7000040420F00A08601005E
:102070002DE9FC5F04460F4690469946DDE90CAB1E
:102080000E9E0025FFF75AFF054694F83D002028D4
:102090007ED11923012256492046009501F04DF9C1
:1020A00010B10220BDE8FC9F00BF94F83C0001285D
:1020B00001D10220F6E7012084F83C0000BF20682F
:1020C000006800F0010028B92068006840F00100B5
:1020D000216808602068006820F4006021680860BA
:1020E000212084F83D00402084F83E000020206438
:1020F000C4F824A0A4F82AB03E48E062608D208590
:102100004B46424639462046CDE9006501F07AF853
:1021100080B1206C042806D100BF002084F83C0068
:1021200000BF0120BEE700BF002084F83C0000BFD4
:102130000320B7E733E02A463146204601F091F903
:1021400060B1206C042807D12068006840F400705A
:10215000216808600120A5E70320A3E7616A481C05
:102160006062087821680861208D401E2085608D9E
:10217000401E608520684069C0F3800078B1208DE2
:1021800068B1616A481C606208782168086100E0F3
:102190002CE0208D401E2085608D401E6085208DA6
:1021A0000028C8D12A463146204601F09BF860B18C
:1021B000206C042807D12068006840F40070216872
:1021C000086001206EE703206CE72068006840F497
:1021D000007021680860202084F83D00002084F809
:1021E0003E0000BF84F83C0000BF5BE7022059E7D7
:1021F000020010000000FFFF10B586B004460F4932
:102200002068884217D1C02002901220039003203A
:10221000059002A90A48FFF7F5FC00BF0948C0690C
:1022200040F400100749C8610846C06900F4001076
:10223000019000BF00BF06B010BD00000054004078
:10224000000C01400010024002480068401C014997
:10225000086070476C03002010B50848006840F023
:10226000100006490860032000F0B4F8002000F0D8
:1022700007F800F019F8002010BD0000002002400F
:1022800070B50446074800684FF47A71B0FBF1F569
:10229000284600F06CFD00222146501E00F05BF83D
:1022A000002070BD0000002008B500BF21488069F3
:1022B00040F001001F4988610846806900F0010074
:1022C000009000BF00BF032000F084F800221146F8
:1022D0006FF00B0000F03FF8002211466FF00A008B
:1022E00000F039F8002211466FF0090000F033F8D1
:1022F00000221146501F00F02EF800221146101F38
:1023000000F029F800221146901E00F024F8002267
:102310001146501E00F01FF800BF0748406820F02B
:10232000E060054948600846406840F00070486039
:1023300000BF08BD001002400000014000BF00F0D7
:102340001F02012191404209920002F1E022C2F8ED
:10235000001100BF70472DE9F05F80460D4616461C
:10236000002701F0FDFC074639462A46334601F0B6
:102370000700C0F1070ABAF1040F02D94FF0040AAE
:1023800001E0C0F1070AD14600F1040ABAF1070FD3
:1023900002D24FF0000A01E0A0F1030AD4464FF048
:1023A000010A0AFA09FAAAF1010A0AEA020A0AFA71
:1023B0000CFA4FF0010B0BFA0CFBABF1010B0BEA23
:1023C000030B4AEA0B042146404601F0D1FCBDE86C
:1023D000F09F000000BF00F00702064B19684FF69F
:1023E000FF031940044B0B4343EA0221014B1960E0
:1023F00000BF70470CED00E00000FA0507480068D8
:1024000040F00200054908600548006840F00400FB
:102410000349086000BF00BF30BF70470070004034
:1024200010ED00E02DE9F04385B006463DA30FCB4B
:1024300001AC0FC43FA0006800904FF000080025D9
:1024400000270024A146012E30D0022E58D0102E95
:1024500061D139484468006800F0807000B301A879
:10246000C4F38341475C04F4803070B13248406863
:10247000C0F340401DF8008004F4803040B12F4884
:10248000B0FBF8F000FB07F502E02D4807FB00F574
:102490002948406800F48000B0F5800F01D1A946BA
:1024A00003E068000321B0FBF1F935E02248046A3B
:1024B00004F44070B0F5807F05D104F0020010B143
:1024C0004FF400491BE004F44070B0F5007F07D1E1
:1024D0001948406A00F0020010B149F640490EE088
:1024E00004F44070B0F5407F07D11348006800F451
:1024F000003010B1DFF84C9001E04FF000090BE024
:1025000000F0A2F90C494968C1F38131491C490026
:10251000B0FBF1F900E000BF00BF484605B0BDE8E0
:10252000F083000002030405060708090A0B0C0DDE
:102530000E0F101001020000001002400024F400F1
:1025400000093D0048E80100F8B5044600260025D2
:10255000207800F0010000286BD000274348C069B4
:1025600000F0805070B900BF4048C06940F0805012
:102570003E49C8610846C06900F08050009000BF25
:1025800000BF01273A48006800F48070B0B93848AD
:10259000006840F4807036490860FFF7CFFC0646BB
:1025A00006E0FFF7CBFC801B642801D90320F8BDAF
:1025B0002F48006800F480700028F2D02B48006A91
:1025C00000F440752DB3A08800F44070A84220D0DC
:1025D0002648006A20F44075012026490860002042
:1025E00008602248056205F0010090B1FFF7A6FCE3
:1025F000064608E0FFF7A2FC801B41F288318842C2
:1026000001D90320D3E71948006A00F0020000282E
:10261000F0D01648006A20F44070616808431349FE
:102620000862012F04D10846C06920F08050C861BB
:1026300000BF207800F00200022807D10B48406854
:1026400020F44040A168084308494860207800F021
:102650001000102807D10548406820F48000E16888
:102660000843024948600020A1E700000010024032
:10267000007000404004424270B504460D460026FA
:102680006248006800F00700A8420ED25F48006868
:1026900020F0070028435D4908600846006800F004
:1026A0000700A84201D0012070BD207800F0020090
:1026B000022807D15648406820F0F000A16808437E
:1026C00053494860207800F0010000285DD0606820
:1026D000012806D14E48006800F4003090B901206E
:1026E000E2E76068022806D14948006800F00070FF
:1026F00040B90120D8E74648006800F0020008B958
:102700000120D1E74248406820F003006168084397
:102710003F494860FFF712FC06466068012810D167
:1027200008E0FFF70BFC801B41F28831884201D999
:102730000320B9E73648406800F00C000428F0D1C7
:1027400023E06068022810D108E0FFF7F7FB801B48
:1027500041F28831884201D90320A5E72C4840681E
:1027600000F00C000828F0D10FE008E0FFF7E6FBCE
:10277000801B41F28831884201D9032094E7244824
:10278000406800F00C000028F0D12048006800F0FC
:102790000700A8420ED91D48006820F00700284312
:1027A0001A4908600846006800F00700A84201D0F6
:1027B000012079E7207800F00400042807D11448AC
:1027C000406820F4E060E1680843114948602078DF
:1027D00000F00800082808D10D48406820F4605037
:1027E000216940EAC1000A49486000F03DF8084903
:1027F0004968C1F30311074A515CC84006490860A3
:102800000020FFF73DFD00204EE7000000200240C1
:1028100000100240927A0008000000200148006881
:10282000704700000000002000B5FFF7F7FF0449E3
:102830004968C1F30221034A515CC84000BD000051
:1028400000100240A27A000800B5FFF7E7FF044934
:102850004968C1F3C221034A515CC84000BD000071
:1028600000100240A27A0008F0B585B00FF2700C9B
:102870009CE8E01001A8A0E8E0101DA52D680095D7
:10288000002100240022002300201A4D696801F075
:102890000C05FDB1042D02D0082D1AD101E0164817
:1028A0001AE001ADC1F38346AB5D01F480355DB143
:1028B000104D6D68C5F340451DF805400E4DB5FB44
:1028C000F4F505FB03F202E00C4D03FB05F21046A4
:1028D00002E000BF0A4800BF00BF05B0F0BD000025
:1028E00002030405060708090A0B0C0D0E0F101051
:1028F00001020000001002400024F40000093D0025
:1029000000127A00F8B504460025207800F0010096
:10291000002878D0F848406800F00C0004280CD05B
:10292000F548406800F00C00082811D1F2484068D2
:1029300000F48030B0F5803F0AD1EF48006800F421
:10294000003000285FD0606800285CD10120F8BD0D
:1029500000BF6068B0F5803F06D1E748006840F4EA
:102960008030E549086028E0606858B9E2480068AE
:1029700020F48030E04908600846006820F4802098
:1029800008601AE06068B0F5A02F0BD1DA48006843
:1029900040F48020D84908600846006840F4803040
:1029A00008600AE0D448006820F48030D24908600A
:1029B0000846006820F48020086000BF606888B185
:1029C000FFF7BCFA054606E0FFF7B8FA401B64289B
:1029D00001D90320BBE7C848006800F40030002894
:1029E000F2D010E0FFF7AAFA054606E0FFF7A6FAD4
:1029F000401B642801D90320A9E7BF48006800F400
:102A000000300028F2D1207800F00200022857D1CF
:102A1000B948406800F00C0050B1B748406800F079
:102A20000C00082818D1B448406800F4803098B9E8
:102A3000B148006800F0020020B12069012801D0EF
:102A4000012084E7AC48006820F0F800616940EAA2
:102A5000C100A949086033E02069E8B10120A74915
:102A60000860FFF76BFA054606E0FFF767FA401BC0
:102A7000022801D903206AE79F48006800F002009D
:102A80000028F2D09C48006820F0F800616940EA14
:102A9000C1009949086013E0002098490860FFF7D9
:102AA0004DFA054606E0FFF749FA401B022801D916
:102AB00003204CE79048006800F002000028F2D1A3
:102AC000207800F0080008282DD1A069B8B10120B5
:102AD0008B490860FFF732FA054606E0FFF72EFA49
:102AE000401B022801D9032031E78348406A00F0E7
:102AF00002000028F2D0012002F0E4FC13E00020E4
:102B00007F490860FFF71AFA054606E0FFF716FA54
:102B1000401B022801D9032019E77748406A00F0DA
:102B200002000028F2D1207800F00400042873D1BC
:102B300000267148C06900F0805070B900BF6E482F
:102B4000C06940F080506C49C8610846C06900F017
:102B50008050009000BF00BF01266A48006800F462
:102B60008070B0B96748006840F4807065490860BB
:102B7000FFF7E4F9054606E0FFF7E0F9401B64289B
:102B800001D90320E3E65F48006800F48070002864
:102B9000F2D000BFE068012806D15748006A40F033
:102BA00001005549086227E0E06858B95248006AB8
:102BB00020F00100504908620846006A20F0040035
:102BC000086219E0E06805280BD14B48006A40F024
:102BD0000400494908620846006A40F001000862A2
:102BE0000AE04548006A20F00100434908620846AF
:102BF000006A20F00400086200BFE068A0B1FFF79F
:102C00009DF9054609E0FFF799F9401B41F288312B
:102C1000884202D903209AE622E03748006A00F091
:102C200002000028EFD012E0FFF788F9054608E01F
:102C3000FFF784F9401B41F28831884201D9032013
:102C400085E62D48006A00F002000028F0D1012E30
:102C500005D12948C06920F080502749C86100BFCC
:102C6000E069C8B32448406800F00C00082860D030
:102C7000E069022848D1002020490866FFF75EF984
:102C8000054606E0FFF75AF9401B022801D9032048
:102C90005DE61948006800F000700028F2D1206A53
:102CA000B0F5803F07D11448406820F40030A16897
:102CB000084311494860D4E9080108430E494968AE
:102CC00021F4741108430C49486001200B4908663F
:102CD000FFF734F9054607E02DE0FFF72FF9401B19
:102CE000022801D9032032E60348006800F0007092
:102CF0000028F2D01FE00000001002400000424215
:102D0000800442420070004000200C490866FFF732
:102D100015F9054606E0FFF711F9401B022801D915
:102D2000032014E60648006800F000700028F2D185
:102D300001E001200BE6002009E60000000042420D
:102D400000100240042808D14FF0E021096941F049
:102D500004014FF0E022116107E04FF0E021096922
:102D600021F004014FF0E02211617047704770B507
:102D700004462546681EB0F1807F01D301200FE094
:102D8000681E4FF0E02148610F214FF0FF3000F046
:102D9000EFFF00204FF0E02188610720086100204C
:102DA00070BD10B5FFF7E2FF10BD10B5034600225D
:102DB00000BF93F83C00012801D1022010BD012082
:102DC00083F83C0000BF22F0FF00CC6840EA040218
:102DD00022F440708C6840EA040222F480604C685F
:102DE00040EA040222F400600C6840EA040222F483
:102DF00080500C6940EA040222F400504C6940EA19
:102E0000040222F480408C6940EA040222F400406B
:102E10008C6940EA04021868426400BF002083F80D
:102E20003C0000BF00BFC9E7024600BF92F83C006B
:102E3000012801D102207047012082F83C0000BF28
:102E4000022082F83D001068406820F0700013688E
:102E50005860106840680B68184313685860106821
:102E6000806820F0800013689860106880684B6864
:102E7000184313689860012082F83D0000BF0020CD
:102E800082F83C0000BF00BFD5E710B504460CB97E
:102E9000012010BD94F83D0028B9002084F83C00C2
:102EA000204600F00DF8022084F83D00211D206826
:102EB00002F0A2FF012084F83D000020E9E70000B5
:102EC00008B5094A016891420DD100BF07498969D7
:102ED00041F40061054A91611146896901F400617C
:102EE000009100BF00BF08BD002C0140001002404F
:102EF0002DE9F04104460D46002600BF94F83C0041
:102F0000012802D10220BDE8F081012084F83C00B4
:102F100000BF022084F83D002068866826F077060E
:102F200026F47F4620688660286850283BD00CDC59
:102F3000202860D004DC002853D0102865D155E04B
:102F400030285DD0402860D141E0602835D070281D
:102F50000DD0B0F5805F03D0B0F5005F55D115E01E
:102F60002068806820F00700216888604EE0D5E97D
:102F700002136A68206802F087FF2068866826F0DE
:102F8000770646F07706206886603FE0D5E90213B1
:102F90006A68206802F078FF2068806840F480400A
:102FA0002168886032E0EA686968206803F04AF8BE
:102FB0005021206802F074FF28E0EA686968206800
:102FC00003F055F86021206802F06AFF1EE0EA680D
:102FD0006968206803F036F84021206802F060FF3D
:102FE00014E00021206802F05BFF0FE01021206850
:102FF00002F056FF0AE02021206802F051FF05E0B0
:103000003021206802F04CFF00E000BF00BF01202B
:1030100084F83D0000BF002084F83C0000BF00BFE2
:1030200071E700001FB5044606492068884208D1B0
:103030008015009002200190039069460248FEF737
:10304000E1FD1FBD002C01400008014070B50446A1
:103050000D46164600BF94F83C00012801D102201D
:1030600070BD012084F83C0000BF022084F83D00C0
:1030700036B1042E1BD0082E31D00C2E5ED145E087
:103080002946206802F016FF2068806940F0080099
:10309000216888612068806920F0040021688861C7
:1030A00020688069296908432168886147E02946CA
:1030B000206802F031FF2068806940F400602168D8
:1030C00088612068806920F48060216888612068B8
:1030D0008069296940EA0120216888612FE029463A
:1030E000206802F051FF2068C06940F008002168A4
:1030F000C8612068C06920F004002168C8612068A8
:10310000C069296908432168C86118E02946206818
:1031100002F070FF2068C06940F400602168C86157
:103120002068C06920F480602168C8612068C06997
:10313000296940EA01202168C86100E000BF00BFA2
:10314000012084F83D0000BF002084F83C0000BF4F
:1031500000BF85E710B504460CB9012010BD94F8F6
:103160003D0028B9002084F83C00204600F00CF80F
:10317000022084F83D00211D206802F03DFE012060
:1031800084F83D000020E9E77047000030B50446B0
:103190000D4601222946206802F068FE0A4920688F
:1031A000884201D1012000E0002028B12068406C55
:1031B00040F40040216848642068006840F0010045
:1031C00021680860002030BD002C014000BFFEE7F0
:1031D000014608684069C0F3802088B16FF48060C0
:1031E0000A6850610420086400200863202081F8E8
:1031F0003D0000BF002081F83C0000BF0120704767
:103200000020FCE72DE9F843044688461546994618
:10321000DDE908672068006840F480702168086074
:10322000334600224FF001112046009700F085F848
:1032300010B10320BDE8F88308F0FE0021680861A2
:103240003B4632462649204600F0B5F830B1206CA6
:10325000042801D10120EDE70320EBE700BF0020A7
:10326000009020684069009020688069009000BF4D
:1032700000BF3A463146204600F0F3F860B1206CBA
:10328000042807D12068006840F4007021680860B5
:103290000120CFE70320CDE7B9F1010F03D1E8B258
:1032A0002168086119E0C5F30720216808613A46E2
:1032B0003146204600F0D5F860B1206C042807D1D3
:1032C0002068006840F40070216808600120B1E7C0
:1032D0000320AFE7E8B2216808610020AAE70000F8
:1032E0000200010070B504460D4616461DE020465A
:1032F000FFF76EFF08B1012070BD681CA8B125B1B1
:10330000FEF71CFE801BA8420FD9206C40F0200065
:10331000206400202063202084F83D0000BF0020AE
:1033200084F83C0000BF0320E6E720684069C0F352
:1033300080000028DBD00020DEE72DE9F0410446C4
:103340000D4617461E46DDF8188017E0701CA8B120
:103350002EB1FEF7F3FDA0EB0800B0420ED900201D
:103360002063202084F83D00002084F83E0000BF48
:1033700084F83C0000BF0320BDE8F081C5F307409E
:1033800001280AD120684069A9B20840A9B2884240
:1033900001D101200BE0002009E020688069A9B27A
:1033A0000840A9B2884201D1012000E00020B842C3
:1033B000CCD00020E0E72DE9F04104460D4616464A
:1033C0001F4631E020684069C0F38020C0B120680A
:1033D000006840F40070216808606FF48060216824
:1033E00048610420206400202063202084F83D00F0
:1033F00000BF002084F83C0000BF0120BDE8F08140
:10340000701C88B126B1FEF799FDC01BB0420BD9E4
:1034100000202063202084F83D0000BF002084F8B5
:103420003C0000BF0320E9E7C5F3074001280AD1AB
:1034300020684069A9B20840A9B2884201D10120A0
:103440000BE0002009E020688069A9B20840A9B219
:10345000884201D1012000E000200028B2D00020E5
:10346000CCE770B504460D4616461DE02046FFF732
:10347000AFFE08B1012070BD681CA8B125B1FEF7F0
:103480005DFD801BA8420FD9206C40F02000206415
:1034900000202063202084F83D0000BF002084F835
:1034A0003C0000BF0320E6E720684069C0F3C0107D
:1034B0000028DBD00020DEE708B500202D49086099
:1034C000402380220146009002F07AF90121152064
:1034D00004F0C2F90120009027480EC827A004F08C
:1034E000C7FA0D211C2004F0B7F9012000902248F2
:1034F0000EC826A004F0BCFA1A211C2004F0ACF976
:10350000012000901C480EC823A004F0B1FA272126
:103510001C2004F0A1F90120009017480EC821A03A
:1035200004F0A6FA3421182004F096F90120009046
:1035300011480EC81EA004F09BFA04F093F94FF452
:1035400000511F48FEF7ECFC98B91E490948006875
:10355000FDF710F90DD200201B49087008460078CD
:103560001A4908700020402380220146009002F092
:1035700027F908BD5803002060030020C2E5E9EFE9
:1035800020ECEEE42056322E330000004F70656EC2
:1035900020536F7572636500F0E0E1EEF2E0E5F252
:1035A00020EDE00073746D333266313033633800E0
:1035B0004376657461657620323031380000000052
:1035C000000C014000007A4452000020530000200B
:1035D0000EB52448244908608115234881600121E3
:1035E000C160002141614FF46021C16100201E498A
:1035F000486003211C480161FDF708FF20B14FF42A
:1036000010711AA003F0DEF805200090012001904F
:103610000720029069461448FDF72CFE20B140F2C5
:103620004A2112A003F0CEF804200090022001905D
:1036300069460D48FDF71EFE20B140F253210BA054
:1036400003F0C0F81020009003200190694606485E
:10365000FDF710FE20B14FF4177104A003F0B2F88B
:103660000EBD000000240140740300202E2E2F53B5
:1036700072632F6D61696E2E6300000008B500BF94
:103680000A48406940F0010008494861084640691D
:1036900000F00100009000BF00BF002211460B2087
:1036A000FEF759FE0B20FEF749FE08BD0010024050
:1036B00000B585B000BF2B48806940F02000294943
:1036C00088610846806900F02000009000BF00BFBC
:1036D00000BF0846806940F00400886108468069A0
:1036E00000F00400009000BF00BF00BF08468069E2
:1036F00040F0080088610846806900F008000090EA
:1037000000BF00BF002249151748FEF711FC012039
:103710000190164802900220039001A91248FEF77A
:1037200071FA47F2180001900020029001200390E6
:1037300001A90F48FEF766FA4FF4007001900120CE
:1037400002900220049001A90748FEF75BFA0022CC
:1037500011460620FEF7FFFD0620FEF7EFFD05B03F
:1037600000BD0000001002400008014000001110E0
:10377000000C014010B50D480D4908600D48486027
:1037800000210B488160C1604FF48041016100213C
:1037900041618161C1610162FEF7D6FB20B14FF446
:1037A0001C7105A003F00EF810BD0000005400408D
:1037B000E8030020A08601002E2E2F5372632F6D88
:1037C00061696E2E6300000000B595B0344835493C
:1037D0000860002048600021324881603248B0F91A
:1037E00000103048C1600021016141618161FFF733
:1037F0004CFB20B140F287212CA002F0E3FF4FF4F4
:103800008050119011A92748FFF772FB20B140F2B8
:103810008D2126A002F0D6FF2248FFF79BFC20B1A5
:1038200040F2922121A002F0CDFF00200F901090D5
:103830000FA91C48FFF7F8FA20B140F299211BA00C
:1038400002F0C0FF60200890002009900A900B90C1
:103850000C900D900E90002208A91248FFF7F6FB7D
:1038600020B140F2A52111A002F0ACFF0020019090
:1038700002900390049005904FF4005006900020B1
:10388000079001A90748FFF790FA20B140F2B12153
:1038900006A002F097FF0348FFF7C4FB15B000BD78
:1038A000002C01403C040020320000202E2E2F531B
:1038B00072632F6D61696E2E6300000000BFFEE72A
:1038C00008B50020804908601B21202003F0C4FFB8
:1038D00001207E4900900978491E7D4A52F8210056
:1038E0007C490EC904F0C4F8012026236C22194635
:1038F0000090202001F093FF2721202003F0ACFF4F
:1039000000207349714A0090127851F822007149E1
:103910000EC904F0ADF83421202003F09DFF0120F2
:103920006B4A6A4900900978491C52F8210069499C
:103930000EC904F09DF803F095FFFEF7FFFA664903
:1039400008604FF480516548FEF7EAFA90B964497F
:103950005D480068FCF70EFF0CD25C480078042834
:1039600003DB04205949087004E058480078401CE3
:10397000564908704FF480415848FEF7D1FA90B983
:10398000574951480068FCF7F5FE0CD24F480078C3
:10399000012803DC01204D49087004E04B48007801
:1039A000401E4A4908704FF400514C48FEF7B8FADF
:1039B00000BB4648007801281CD1494942480068AC
:1039C000FCF7D8FE16D20120464908700846007858
:1039D000454908700020402380220146009001F0F4
:1039E000EFFEFDF7F2F903F03DFFFDF7B4F900201B
:1039F0003E4908804FF400513848FEF791FA00BB69
:103A00003248007802281CD135492F480068FCF75D
:103A1000B1FE16D2022033490870084600783249B8
:103A200008700020402380220146009001F0C8FE6B
:103A3000FDF7CBF903F016FFFDF78DF900202B49B8
:103A400008804FF400512548FEF76AFAF0B91F4884
:103A5000007803281AD122491B480068FCF78AFE27
:103A600014D205201F490870084600781E490870C6
:103A700001201F490870002028238022182100906F
:103A800001F09EFE03F0EEFE00F036F84FF4005118
:103A90001248FEF745FA90B90C48007804280ED178
:103AA0000F4909480068FCF765FE08D209200D4956
:103AB0000870084600780C490870FFF7FDFC0121EA
:103AC0000C48FEF72DFA08BD5803002028030020FB
:103AD000D00000206003002060000020000C0140A6
:103AE0000000C84252000020530000205A0000206D
:103AF000290300200008014008B50020864908601D
:103B00001B21202003F0A8FE0120844900900978A1
:103B1000491E834A52F8210082490EC903F0A8FFCA
:103B2000012026236C2219460090202001F077FE08
:103B30002721202003F090FE00207949774A009049
:103B4000127851F8220077490EC903F091FF342111
:103B5000202003F081FE0120714A7049009009780D
:103B6000491C52F821006F490EC903F081FF03F090
:103B700079FE4FF480516C48FEF7D2F990B96B4949
:103B800065480068FCF7F6FD0CD26448007805280B
:103B900003DB05206149087004E060480078401CA0
:103BA0005E4908704FF480415F48FEF7B9F990B95B
:103BB0005E4959480068FCF7DDFD0CD25748007893
:103BC000012803DC01205549087004E053480078BF
:103BD000401E524908704FF400515348FEF7A0F9B7
:103BE000B8B94E480078052813D150494A480068B2
:103BF000FCF7C0FD0DD200204D4908700846007842
:103C00004C49087003204C4908700520FDF70AFF55
:103C100008BD4FF400514448FEF782F9C8B93F4847
:103C20000078012815D141493B480068FCF7A2FD06
:103C30000FD20020282380221821009001F0C0FD1F
:103C400003F010FE06203A4908700846007839490A
:103C500008704FF400513448FEF762F9C8B92F4894
:103C60000078022815D131492B480068FCF782FD05
:103C70000FD20020282380221821009001F0A0FDFF
:103C800003F0F0FD07202A4908700846007829490A
:103C900008704FF400512448FEF742F9C8B91F4894
:103CA0000078032815D121491B480068FCF762FD04
:103CB0000FD20020282380221821009001F080FDDF
:103CC00003F0D0FD08201A49087008460078194909
:103CD00008704FF400511448FEF722F9D0B90F488C
:103CE0000078042816D1154815490860154816496A
:103CF0000860002015490860154816490860012031
:103D00000B4908700B49087040F6AC501249086026
:103D100000F01EF900BF7BE75803002029030020B4
:103D2000D801002060030020000C01400000C842C0
:103D3000520000205300002028030020CDCC0C406E
:103D4000340000200000A84138000020740000204A
:103D500000710200640000207C0000207047000019
:103D600002480068C0F30220704700000CED00E03C
:103D700010B5002807DA0A07140E054A00F00F03F1
:103D80001B1FD45403E00A07130E024A135410BD3C
:103D900018ED00E000E400E008B503215B2003F02B
:103DA0005BFD0120009003480EC803A003F060FEF5
:103DB00008BD0000600300202D2E2D2D40000000C6
:103DC00008B500200A4908601E23552201210090F1
:103DD000084601F0F5FC0921002003F03DFD012318
:103DE000044806C804A003F02DFE03F03BFD08BD07
:103DF000342C0140880000204F75742054696D6593
:103E0000000000007047000008B51B210C2003F0E3
:103E100023FD3148007830B9012000902F480EC8AA
:103E20002FA003F025FE2C480078012805D1009032
:103E30002A480EC82AA003F01BFE27480078022853
:103E400006D10120009025480EC825A003F010FEE1
:103E500003F008FD23480068401C22490860012146
:103E60002148FEF75DF8B8B120480078A0B90120DC
:103E70001E49087018480078401C17490870002037
:103E8000184908601A49086013480078022803DDC1
:103E900000201149087008BD12480068012807D9A0
:103EA00001211148FEF73CF810B900200F490870B5
:103EB0000C4800680F2804D90020074908700949F8
:103EC00008600C490A480068FCF754FC01D200F075
:103ED000ABF80120DFE70000C000002060030020F5
:103EE0002000000078000020000801405800002059
:103EF0005803002000401C4610B51148007828B92E
:103F000010480078401C0F49087008E00E490F481F
:103F10000068FCF72FFC02D200200A4908700A4909
:103F20000A480068FCF726FC02D200200549087008
:103F300004480078022801DD00F00AF810BD0000F6
:103F400058000020C00000200000614458030020F9
:103F50002DE9F04101F008FD29480068FCF7A0FBBD
:103F600006460022274BFCF75CFA0446FCF77FFB71
:103F70002549086025480068FCF792FB06460022A8
:103F8000204BFCF74EFA0446FCF771FB2049086011
:103F90001D4801680020FCF797FF1D4801680120BB
:103FA000FCF792FF1B4801680220FCF78DFF1A48BE
:103FB0000078012803D018480078022804D1164858
:103FC00001780320FCF780FF144801680420FCF707
:103FD0007BFF134801680520FCF776FF1148406815
:103FE00040F480700F4948600846006840F00400C3
:103FF000086006200860FEF701FABDE8F0810000C5
:1040000034000020000059406800002038000020E3
:104010006C0000206400002052000020740000208A
:104020007C0000200070004010B501F09DFC0848A5
:10403000406840F48070064948600846006840F0D7
:104040000400086006200860FEF7D8F910BD0000E3
:1040500000700040F8B5AA48008840F6B8318842A0
:104060007EDD0020A649088001240121A548FDF736
:1040700057FF002875D101201423472226210090E4
:10408000052001F09DFBA0494868FCF709FB0546A7
:104090009E4A9F4BFCF718FB0AD2012C08D1002046
:1040A0001423462226210090052001F089FB0024DC
:1040B00095494868FCF7F4FA05460022954BFCF751
:1040C00003FB0AD2012C08D100201423462226210A
:1040D0000090062001F074FB00248B494868FCF72F
:1040E000DFFA05464FF066328B4BFCF7EDFA0AD249
:1040F000012C08D1002014234622262100900720FD
:1041000001F05EFB002480494868FCF7C9FA0546C7
:10411000824A834BFCF7D8FA0AD2012C08D100203E
:104120001423452226210090082001F049FB002499
:1041300075494868FCF7B4FA05467A4A7A4BFCF7A9
:10414000C3FA0AD2012C08D10020142343222621CD
:1041500000900A2001F034FB00246B49486801E01C
:10416000CDE0CBE0FCF79CFA0546704A704BFCF7BB
:10417000ABFA0AD2012C08D1002014233F222621B9
:1041800000900E2001F01CFB00245F494868FCF7FA
:1041900087FA0546674A684BFCF796FA0AD2012C63
:1041A00008D1002014233A2226210090132001F088
:1041B00007FB002454494868FCF772FA0546534A45
:1041C0005E4BFCF781FA0AD2012C08D1002014239F
:1041D0003022262100901D2001F0F2FA00244A49E5
:1041E0004868FCF75DFA05460022554BFCF76CFA6F
:1041F0000AD2012C08D10020142326221146009057
:10420000272001F0DDFA00243F494868FCF748FA0E
:1042100005464FF066324B4BFCF756FA0AD2012C9A
:1042200008D1002014231C2226210090302001F008
:10423000C7FA002434494868FCF732FA05464FF0C3
:104240003332414BFCF740FA0AD2012C08D100204E
:104250001423162226210090372001F0B1FA002401
:1042600029494868FCF71CFA0546384A384BFCF7E0
:104270002BFA0AD2012C08D1002014230A2226216D
:104280000090422001F09CFA00241F494868FCF786
:1042900007FA054600222F4BFCF716FA0AD2012C2A
:1042A00008D100201423072226210090452001F088
:1042B00087FA002414494868FCF7F2F905464FF0E4
:1042C0003332254BFCF700FA0AD2012C08D100202A
:1042D0001423042226210090482001F071FA0024C2
:1042E00009494868FCF7DCF905464FF066321B4B7C
:1042F000FCF7EAF902D2012C00D1002400BFF8BD7E
:10430000C800002000080140040000209A999999F3
:1043100099990B4000000C4066660C40A4703D0A61
:10432000D7A30C40B81E85EB51B80C40CDCCCCCCFB
:10433000CCCC0C400AD7A3703D0A0D4099990D4092
:1043400000000E4066660E4033330F40D7A3703D29
:104350000AD70F400000104033331040666610400B
:1043600000B585B001200490142347221621009047
:10437000192001F025FAFE4840680190FCF790F9F9
:10438000FC4AFD4BCDE90201FCF79EF90CD20498E2
:10439000012809D1002014234622162100901B2059
:1043A00001F00EFA00200490F14840680190FCF7FB
:1043B00077F9F24AF24BCDE90201FCF785F90CD20C
:1043C0000498012809D100201423452216210090C9
:1043D0001C2001F0F5F900200490E54840680190A8
:1043E000FCF75EF9E74AE84BCDE90201FCF76CF90E
:1043F0000CD20498012809D100201423442216214C
:1044000000901D2001F0DCF900200490D84840689D
:104410000190FCF745F9DD4ADD4BCDE90201FCF7DF
:1044200053F90CD20498012809D100201423432207
:10443000162100901E2001F0C3F900200490CC4802
:1044400040680190FCF72CF90022D24BCDE9020123
:10445000FCF73AF90CD20498012809D10020142362
:104460004222162100901F2001F0AAF9002004909A
:10447000BF4840680190FCF713F9C44A5242C64B4A
:10448000CDE90201FCF720F90CD20498012809D1EA
:1044900000201423412216210090202001F090F9E1
:1044A00000200490B24840680190FCF7F9F8B54A42
:1044B0005242BA4BCDE90201FCF706F90CD204983E
:1044C000012809D100201423402216210090212028
:1044D00001F076F900200490A54840680190FCF7AF
:1044E000DFF8A64A5242AE4BCDE90201FCF7ECF8E8
:1044F0000CD20498012809D1002014233F22162150
:104500000090222001F05CF9002004909848406857
:104510000190FCF7C5F8974A5242A24BCDE902013F
:10452000FCF7D2F80CD20498012809D100201423FA
:104530003E2216210090232001F042F90020049031
:104540008B4840680190FCF7ABF84FF06632964B11
:10455000CDE90201FCF7B8F80CD20498012809D182
:10456000002014233D2216210090242001F028F978
:10457000002004907E4840680190FCF791F88B4A37
:104580008B4BCDE90201FCF79FF80CD2049801286F
:1045900009D1002014233C2216210090252001F08F
:1045A0000FF900200490724840680190FCF778F8F9
:1045B000804A814BCDE90201FCF786F80CD20498C1
:1045C000012809D1002014233B2216210090262027
:1045D00001F0F6F800200490654840680190FCF76F
:1045E0005FF8764A764BCDE90201FCF76DF80CD204
:1045F0000498012809D1002014233A2216210090A2
:10460000272001F0DDF8002004905948406801900F
:10461000FCF746F86B4A6C4BCDE90201FCF754F805
:104620000CD20498012809D1002014233922162124
:104630000090282001F0C4F8002004904C48406805
:104640000190FCF72DF8614A614BCDE90201FCF7BE
:104650003BF80CD20498012809D1002014233822F9
:1046600016210090292001F0ABF80020049040486A
:1046700040680190FCF714F8564A574BCDE9020107
:10468000FCF722F80CD20498012809D10020142349
:104690003722162100902A2001F092F80020049081
:1046A000334840680190FBF7FBFF4C4A4C4BCDE987
:1046B0000201FCF709F80CD20498012809D1002066
:1046C00014233622162100902B2001F079F80020C7
:1046D0000490274840680190FBF7E2FF3F4A5242AE
:1046E000404BCDE90201FBF7EFFF0CD20498012803
:1046F00009D1002014233522162100902C2001F02E
:104700005FF8002004901A4840680190FBF7C8FF4A
:10471000304A5242344BCDE90201FBF7D5FF0CD2AF
:104720000498012809D10020142334221621009076
:104730002D2001F045F8002004900D4840680190BC
:10474000FBF7AEFF4FF03332284BCDE90201FBF708
:10475000BBFF0CD20498012809D100201423332276
:10476000162100902E2001F02BF8002004903FE04D
:1047700004000020AE47E17A14AE0B40C3F5285C7C
:104780008FC20B40D7A3703D0AD70B40EC51B81E27
:1047900085EB0B4000000C407A140C40F5280C40CF
:1047A000703D0C40EB510C4066660C407B14AE47EC
:1047B000E17A0C408FC2F5285C8F0C40A4703D0A52
:1047C000D7A30C40B81E85EB51B80C40CDCCCCCC57
:1047D000CCCC0C40E17A14AE47E10C40F6285C8F5B
:1047E000C2F50C403D0A0D40B81E0D4033330D405C
:1047F000FE4840680190FBF753FFFD4AFD4BCDE9B1
:104800000201FBF761FF0CD20498012809D10020B6
:1048100014233222162100902F2000F0D1FF002017
:104820000490F24840680190FBF73AFFF24AF34BDC
:10483000CDE90201FBF748FF0CD20498012809D109
:1048400000201423312216210090302000F0B8FF00
:1048500000200490E54840680190FBF721FFE84AFA
:10486000E84BCDE90201FBF72FFF0CD20498012899
:1048700009D100201423302216210090312000F0AD
:104880009FFF00200490D94840680190FBF708FF83
:10489000DD4ADE4BCDE90201FBF716FF0CD204988E
:1048A000012809D1002014232F2216210090322044
:1048B00000F086FF00200490CC4840680190FBF790
:1048C000EFFED34AD34BCDE90201FBF7FDFE0CD23C
:1048D0000498012809D1002014232E2216210090CB
:1048E000332000F06DFF00200490C0484068019024
:1048F000FBF7D6FEC84AC94BCDE90201FBF7E4FE3F
:104900000CD20498012809D1002014232D2216214D
:104910000090342000F054FF00200490B348406819
:104920000190FBF7BDFEBE4ABE4BCDE90201FBF78D
:10493000CBFE0CD20498012809D1002014232C228C
:1049400016210090352000F03BFF00200490A7487E
:1049500040680190FBF7A4FEB34AB44BCDE90201D5
:10496000FBF7B2FE0CD20498012809D100201423D1
:104970002B2216210090362000F022FF0020049008
:104980009A4840680190FBF78BFEA94AA94BCDE9F4
:104990000201FBF799FE0CD20498012809D10020EE
:1049A00014232A2216210090372000F009FF00204E
:1049B00004908E4840680190FBF772FE00229E4BE7
:1049C000CDE90201FBF780FE0CD20498012809D141
:1049D00000201423292216210090382000F0F0FE38
:1049E00000200490814840680190FBF759FE904AEE
:1049F0005242924BCDE90201FBF766FE0CD20498BD
:104A0000012809D1002014232822162100903920E2
:104A100000F0D6FE00200490744840680190FBF737
:104A20003FFE814A5242864BCDE90201FBF74CFE24
:104A30000CD20498012809D1002014232722162122
:104A400000903A2000F0BCFE0020049067484068C7
:104A50000190FBF725FE724A52427A4BCDE90201E2
:104A6000FBF732FE0CD20498012809D10020142350
:104A70002622162100903B2000F0A2FE0020049088
:104A80005A4840680190FBF70BFE634A52426E4B56
:104A9000CDE90201FBF718FE0CD20498012809D1D8
:104AA000002014232522162100903C2000F088FECF
:104AB000002004904D4840680190FBF7F1FD4FF055
:104AC0006632624BCDE90201FBF7FEFD0CD2049881
:104AD000012809D1002014232422162100903D2012
:104AE00000F06EFE00200490404840680190FBF703
:104AF000D7FD454A5242564BCDE90201FBF7E4FD92
:104B00000CD20498012809D1002014232322162155
:104B100000903E2000F054FE00200490334840688E
:104B20000190FBF7BDFD364A52424A4BCDE90201E6
:104B3000FBF7CAFD0CD20498012809D100201423E8
:104B40002222162100903F2000F03AFE002004901F
:104B5000264840680190FBF7A3FD274A52423E4B8E
:104B6000CDE90201FBF7B0FD0CD20498012809D170
:104B700000201423212216210090402000F020FE66
:104B800000200490194840680190FBF789FD184AFD
:104B90005242324BCDE90201FBF796FD0CD204984C
:104BA000012809D100201423202216210090412041
:104BB00000F006FE002004900C4840680190FBF7CE
:104BC0006FFD274A274BCDE90201FBF77DFD0CD293
:104BD0000498012809D1002014231F2216210090D7
:104BE000422000F0EDFD002004903DE00400002094
:104BF00048E17A14AE470D405C8FC2F5285C0D4049
:104C0000713D0AD7A3700D4085EB51B81E850D404C
:104C10009A99999999990D40AE47E17A14AE0D4051
:104C2000C3F5285C8FC20D40D7A3703D0AD70D4055
:104C3000EC51B81E85EB0D4000000E407A140E407A
:104C4000F5280E40703D0E40EB510E4066660E405A
:104C5000E17A0E405C8F0E40D7A30E4051B80E4053
:104C6000CDCCCCCCCCCC0E40FE4840680190FBF7BC
:104C700017FDFD4AFD4BCDE90201FBF725FD0CD2E6
:104C80000498012809D1002014231E221621009027
:104C9000432000F095FD00200490F2484068019008
:104CA000FBF7FEFCF24AF34BCDE90201FBF70CFDEA
:104CB0000CD20498012809D1002014231D221621AA
:104CC0000090442000F07CFD00200490E5484068FE
:104CD0000190FBF7E5FCE64A5242E74BCDE90201C1
:104CE000FBF7F2FC0CD20498012809D10020142310
:104CF0001C2216210090452000F062FD0020049047
:104D0000D84840680190FBF7CBFCD74A5242DB4BB6
:104D1000CDE90201FBF7D8FC0CD20498012809D197
:104D2000002014231B2216210090462000F048FD8D
:104D300000200490CB4840680190FBF7B1FC4FF095
:104D40003332CF4BCDE90201FBF7BEFC0CD2049805
:104D5000012809D1002014231A221621009047208F
:104D600000F02EFD00200490BE4840680190FBF743
:104D700097FCC44AC44BCDE90201FBF7A5FC0CD259
:104D80000498012809D1002014231922162100902B
:104D9000482000F015FD00200490B24840680190C2
:104DA000FBF77EFCB94ABA4BCDE90201FBF78CFC5C
:104DB0000CD20498012809D10020142318221621AE
:104DC0000090492000F0FCFC00200490A5484068B9
:104DD0000190FBF765FCAF4AAF4BCDE90201FBF751
:104DE00073FC0CD20498012809D100201423172247
:104DF000162100904A2000F0E3FC0020049099481E
:104E000040680190FBF74CFCA44AA54BCDE9020198
:104E1000FBF75AFC0CD20498012809D10020142376
:104E20001622114600904B2000F0CAFC002004908E
:104E30008C4840680190FBF733FC9A4A9A4BCDE9C5
:104E40000201FBF741FC0CD20498012809D1002093
:104E500014231522162100904C2000F0B1FC0020F4
:104E60000490804840680190FBF71AFC8F4A904BF1
:104E7000CDE90201FBF728FC0CD20498012809D1E6
:104E8000002014231A46162100904D2000F098FCB3
:104E900000200490734840680190FBF701FC854AAC
:104EA000854BCDE90201FBF70FFC0CD204980128D9
:104EB00009D1002014231322162100904E2000F067
:104EC0007FFC00200490674840680190FBF7E8FBF6
:104ED0007A4A7B4BCDE90201FBF7F6FB0CD2049832
:104EE000012809D1002014231222162100904F20FE
:104EF00000F066FC002004905A4840680190FBF7DF
:104F0000CFFB704A704BCDE90201FBF7DDFB0CD201
:104F10000498012809D100201423112216210090A1
:104F2000502000F04DFC002004904E484068019055
:104F3000FBF7B6FB0022654BCDE90201FBF7C4FB92
:104F40000CD20498012809D1002014231022162124
:104F50000090512000F034FC00200490414840684B
:104F60000190FBF79DFB424A5242594BCDE90201A9
:104F7000FBF7AAFB0CD20498012809D100201423C6
:104F80000F2216210090522000F01AFC00200490FD
:104F9000344840680190FBF783FB4A4A52424D4B2C
:104FA000CDE90201FBF790FB0CD20498012809D14E
:104FB000002014230E2216210090532000F000FC44
:104FC00000200490274840680190FBF769FB264ABF
:104FD0005242414BCDE90201FBF776FB0CD204981B
:104FE000012809D1002014230D22162100905420FD
:104FF00000F0E6FB002004901A4840680190FBF79F
:105000004FFB2E4A5242354BCDE90201FBF75CFBC8
:105010000CD20498012809D1002014230C22162157
:105020000090552000F0CCFB002004900D48406813
:105030000190FBF735FB4FF03332294BCDE90201EC
:10504000FBF742FB0CD20498012809D1002014235D
:105050000B2216210090562000F0B2FB0020049095
:1050600000483FE004000020E17A14AE47E10E4022
:10507000F6285C8FC2F50E403D0A0F40B81E0F4067
:1050800033330F4048E17A14AE470F405C8FC2F5CE
:10509000285C0F40713D0AD7A3700F4085EB51B8D3
:1050A0001E850F409A99999999990F40AE47E17AD8
:1050B00014AE0F40C3F5285C8FC20F40D7A3703DDC
:1050C0000AD70F40EC51B81E85EB0F40000010408E
:1050D0003D0A10407A141040B81E1040F5281040C8
:1050E0003333104040680190FBF7DAFA7C4A7D4B7D
:1050F000CDE90201FBF7E8FA0CD20498012809D1A6
:10510000002014230A2216210090572000F058FB9B
:1051100000200490744840680190FBF7C1FA734A7C
:10512000734BCDE90201FBF7CFFA0CD204980128AA
:1051300009D100201423092216210090582000F0E4
:105140003FFB00200490684840680190FBF7A8FAF4
:10515000684A694BCDE90201FBF7B6FA0CD2049814
:10516000012809D10020142308221621009059207B
:1051700000F026FB002004905B4840680190FBF79C
:105180008FFA5E4A5E4BCDE90201FBF79DFA0CD225
:105190000498012809D10020142307221621009029
:1051A0005A2000F00DFB002004904F484068019009
:1051B000FBF776FA4FF06632524BCDE90201FBF76E
:1051C00083FA0CD20498012809D100201423062266
:1051D000162100905B2000F0F3FA00200490424872
:1051E00040680190FBF75CFA474A484BCDE9020161
:1051F000FBF76AFA0CD20498012809D10020142385
:105200000522162100905C2000F0DAFA00200490BC
:10521000354840680190FBF743FA3D4A3D4BCDE9E4
:105220000201FBF751FA0CD20498012809D10020A1
:1052300014230422162100905D2000F0C1FA002002
:105240000490294840680190FBF72AFA304A5242FC
:10525000314BCDE90201FBF737FA0CD20498012853
:1052600009D1002014230322162100905E2000F0B3
:10527000A7FA002004901C4840680190FBF710FA40
:10528000214A5242254BCDE90201FBF71DFA0CD20F
:105290000498012809D1002014230222162100902D
:1052A0005F2000F08DFA002004900F4840680190C4
:1052B000FBF7F6F91A4A1B4BCDE90201FBF704FA9A
:1052C0000CD20498012809D10020142301221621B0
:1052D0000090602000F074FA0020049005B000BD3A
:1052E0003D0AD7A3703D10400400002048E17A1425
:1052F000AE47104052B81E85EB5110405C8FC2F58E
:10530000285C104066661040713D0AD7A3701040BB
:105310007B14AE47E17A10401E8510405C8F104030
:105320009A9999999999104008B503215B2002F048
:1053300093FA0120009003480EC8034802F098FB3E
:1053400008BD0000600300204C0000202DE9F04162
:105350000D480068FBF7A4F9064600220B4BFBF74B
:10536000D2F8044622460B4609A10B4801F02CFA5C
:105370000721042002F070FA0123084806C80648F5
:1053800002F060FBBDE8F0815803002000408F4030
:1053900025302E3266730000C1000020A0000020DE
:1053A00008B500203249086016238022014600908B
:1053B00000F006FA0121052002F04EFA01200090CB
:1053C0002C480EC82CA002F053FB0B21282002F021
:1053D00043FA0120009027480EC82CA002F048FB99
:1053E0002C482DA102682D4801F0EEF9222132202F
:1053F00002F032FA012000901E480EC8274802F041
:1054000037FB3321142002F027FA012000901948BD
:105410000EC823A002F02CFB02F024FA012124483C
:10542000FCF77EFD78B1234911480068FBF7A2F92B
:1054300009D200200A2380222021009000F0C0F928
:105440000020144908604FF400511B48FCF768FD28
:1054500060B9184906480068FBF78CF906D20520A8
:1054600016490870084600781549087008BD000004
:105470005803002060030020CEE1F9E5E520EAEEC4
:10548000EBE8F7E5F1F2E2EE00000000E7E0F2FF02
:10549000E6E5EA00740000202564000040030020D7
:1054A00046697265202D20F1E1F0EEF10000000068
:1054B000000801400000C842000C014052000020DA
:1054C0005300002008B508490968C9084FF47A72EA
:1054D000B1FBF2F14143009100BF00BF00994A1EA9
:1054E00000920029F9D108BD000000202DE9F04705
:1054F00021494868FBF7D4F88046204A204BFAF748
:1055000090FF064600221F4BFAF7FDFF0446FBF70B
:105510000BF91D49486018490868FBF7C1F80646B1
:10552000164A174BFAF77DFF04460022154BFAF78F
:10553000EAFF8046FBF7F8F8134908604868FBF774
:10554000AFF80646114A124BFAF7DDFF0446FBF7A7
:10555000EBF8104948600C490868FBF7A1F80646CB
:105560000A4A0B4BFAF7CFFF0446FBF7DDF809496F
:105570000860BDE8F087000088040020A4703D0AA0
:10558000D7A30A4000FEAF400C000020F680D903EC
:10559000660FE83F0400002070B51D480078012820
:1055A00002D0022832D118E01A4A11685068FAF77E
:1055B0001BFE0446184801682046FAF74DFE1749BD
:1055C000086008460068FBF76BF8044622460B4665
:1055D00013A1154801F0F8F818E00E4A1168506858
:1055E000FAF702FE04460C4801682046FAF734FE3A
:1055F0000A49086008460068FBF752F8044622464C
:105600000B4607A1084801F0DFF800BF00BF70BDDE
:105610005200002004000020440000203403002039
:10562000252E316641000000380300202DE9F041AD
:10563000012251022748FCF77BFCFFF757FF264861
:10564000007828B901202449087000202349086007
:10565000234922480068FBF783F824D221490868CF
:10566000FBF71EF8044600221F4BFBF745F822D239
:105670001C4A11685068FAF7EFFD04464FF07E515E
:10568000FAF7B2FD1949086008460068FBF708F808
:105690000646174A174BFAF7C4FE0446FBF744F8D0
:1056A0001549086007E001201449087000224102F2
:1056B0000848FCF73DFC10480068FAF7F1FF044683
:1056C00022460B460EA1104801F07EF8FFF72CFE93
:1056D000BDE8F081000801405C0300205803002071
:1056E0000000AF43040000200000E03F480000201D
:1056F0009A99999999193640440000205600002043
:1057000025302E32664000004C0000202DE9FF5F5E
:105710001D498868FAF7C4FF804600221B4BFAF740
:10572000F2FE06461A4A1B4BFAF77BFE04461A4A5B
:105730001A4BFAF773FE1A4A1A4BCDE90001FAF731
:10574000E2FE82460022184BFAF7C4FDCDE90201C1
:10575000FAF7EAFF1549086008460068FAF7A0FF63
:10576000044622460B4612A1134801F02DF82621CB
:105770005B2002F071F80120009010480EC80E481E
:1057800002F076F9BDE8FF9F8804002000FEAF40DC
:10579000CDCCCCCCCCCC0A408FC2F5285C8FF63F68
:1057A00022FDF675E09C713F000039402800002082
:1057B000252E31662A0000002C0000206003002006
:1057C0002DE9F84305460C4617469846DDF820902B
:1057D000802D01DA402C01DBBDE8F883E819802830
:1057E00002DBC5F1800087B204EB0800402803DB30
:1057F000C4F140001FFA80F800260CE0A01983B223
:10580000E81982B2A01981B22846CDF8009000F0C4
:1058100006F8701CC6B24645F0DD00BFDCE72DE996
:10582000FF4F04460D4616461F46802C00DB7F24A2
:10583000802E00DB7F26402D00DB3F25402F00DB44
:105840003F27B44201DA301B00E0A01B0FFA80FBB7
:10585000BD4201DA781B00E0E81B0FFA80F9B44280
:1058600001DA012001E04FF0FF300390BD4201DA80
:10587000012001E04FF0FF300290CB4501DD594699
:1058800001E0C9F10001084601EBD071491009B2ED
:105890000191BBF1000F1ED1AF4204DA0FFA87FA73
:1058A0002F461FFA8AF5A64204DA0FFA86FA264630
:1058B0001FFA8AF40FFA85F809E01FFA88F12046EA
:1058C0000D9A01F003FF08F101000FFA80F8B845C6
:1058D000F3DDBDE8FF8FB9F1000F1DD1AF4204DA4F
:1058E0000FFA87FA2F461FFA8AF5A64204DA0FFA52
:1058F00086FA26461FFA8AF40FFA84F809E01FFA9E
:1059000088F029460D9A01F0E1FE08F101000FFA36
:1059100080F8B045F3DDDCE722E0294620460D9A09
:1059200001F0D4FEB44202D1BD4200D119E0019889
:105930000090CBF100010098884207DD0198A0EBB0
:10594000090000B201900398204484B200984845B1
:1059500006DA0198584400B201900298284485B2B2
:10596000DBE700BF00BFB4E710B58D2002F058F8A8
:10597000102002F055F8AE2002F052F810BD70472A
:105980002DE9F84F00201623802201460090FFF7F2
:1059900017FF0121052001F05FFF0120009053480F
:1059A0000EC853A002F064F80B21142001F054FF3C
:1059B000012000904D480EC852A002F059F84FF453
:1059C00080415448FCF7ACFA20B953480068643071
:1059D000514908604FF480514E48FCF7A1FA20B9B4
:1059E0004D48006864384C4908604FF400514948FC
:1059F000FCF796FA10B90520484908704648006837
:105A000041F2707188422DDD1B212A2001F024FF14
:105A10000120009035480EC841A002F029F83E4808
:105A20000068FAF7EDFD804600223F4BFAF76BFD68
:105A30000646FAF779FE8246FAF732FE0446224617
:105A40000B463AA13C4800F0BFFE2A21162001F087
:105A500003FF0123394806C8374801F0F3FF01F07E
:105A600001FF40E02C48006800280FDC00202A4994
:105A700008602A21162001F0EFFE01232F4806C8F6
:105A80002FA001F0DFFF01F0EDFE2CE01B212A200A
:105A900001F0E2FE0120009014480EC829A001F098
:105AA000E7FF1D480068FAF7ABFD064600221E4BD3
:105AB000FAF729FD0446FAF737FE8246FAF7F0FDB9
:105AC000804642460B4619A11B4800F07DFE2A2164
:105AD000162001F0C1FE0123184806C8164801F03F
