:020000040800F2
:10000000B813002001010008A52E000851270008A0
:100010008D2B0008B50B00084141000800000000CE
:10002000000000000000000000000000613D00082A
:10003000D70C000800000000F12E0008113E000857
:100040001B0100081B0100081B0100081B01000820
:100050001B0100081B0100089D0E00081B01000881
:100060001B0100081B0100081B010008A10C00086F
:100070001B0100081B0100081B0100081B010008F0
:100080001B0100081B0100081B0100081B010008E0
:100090001B0100081B0100081B0100081B010008D0
:1000A0001B0100081B0100081B0100081B010008C0
:1000B0001B0100081B0100081B0100081B010008B0
:1000C0001B0100081B0100081B0100081B010008A0
:1000D0001B0100081B0100081B0100081B01000890
:1000E0001B0100081B0100081B010008DFF80CD0F1
:1000F00000F08AFC00480047AD4F0008B81300200C
:100100000648804706480047FEE7FEE7FEE7FEE7B1
:10011000FEE7FEE7FEE7FEE7FEE7FEE79D3E00089E
:10012000ED000008202A04DB203A21FA02F0002129
:10013000704721FA02F3D040C2F1200291400843F7
:1001400019467047F0B480EA0102D40F4200B2EBC6
:10015000410F02D20246084611464A0042D0C30D62
:10016000DDB2C1F3C752AD1A202D35DAC1F3160145
:1001700041F4000204B15242C5F1200602FA06F130
:100180002A411044B3EBD05F23D0C4B1012DA0EBC2
:10019000C35009DCF0BC4FF0004202EAC352DBB2AC
:1001A00000F5000000F03BBB400000F1807000EB68
:1001B000C350A0F1807040EAD170490009E04908BD
:1001C00041EAC071A0EBC35000F50000400800EB0D
:1001D000C350F0BC00F01ABB6142012202EB4101A6
:1001E000001BF6E7F0BC704781F00041AAE780F001
:1001F0000040A7E780EA010210B502F0004340008A
:1002000022D04A001FD0010E01EB1261C0F356004C
:10021000C2F3560240F4000042F40002A0FB0220A8
:1002200000047F39140400D0401C50EA124001D46D
:100230004000491EC2B20C0604EBD010401C40081E
:10024000802A02D003E0002010BD20F00100002928
:1002500000DA0020184310BD30B480EA010202F039
:10026000004530F0004221F0004013D090B1C30DA2
:10027000D40DC2F31601C0F31600E41A41F40001D4
:1002800040F400027D34914201D3641C00E0490037
:10029000002C02DA30BC002070474FF4000000232D
:1002A000914201D3891A034340084FEA4101F7D133
:1002B00051B1914202D14FF0004105E002D24FF01E
:1002C000010101E06FF0010103EBC450284430BC90
:1002D00000F09CBA2DE9FE4F804681EA0300C00F72
:1002E0000C46009021F0004123F00045B8EB0200DD
:1002F000A94105D24046214690461C460B4602467F
:1003000023F00040104347D0270DC7F30A00C3F382
:100310000A510290401A019040286BDAC3F313008F
:1003200040F4801B0098924620B10023D2EB030AD0
:1003300063EB0B0B01985946C0F14002504600F0A8
:1003400044FA06460D4650465946019A00F04CFACA
:1003500010EB08006141002487EA115284EAE77338
:100360001A4340D0009A62B3019A012A4FEA075219
:1003700015DC001B61EB02014FF0004202EA07525C
:10038000CDE90042001C41F5801132462B4600F0B9
:1003900083FA03B0BDE8F08F40462146F9E7001B21
:1003A00061EB0201001C41F5801300185B4120182D
:1003B000A2F5001747EB030140EAD570B6196D416D
:1003C00011E06D084FEA360645EAC0754FEA07525C
:1003D000001B61EB0201001C41F5801149084FEA46
:1003E00030000019514132462B4603B0BDE8F04FB2
:1003F00000F043BA0098012240000023D0EB020233
:1004000063EBE073009821464FEAE074B8EB00001C
:1004100061EB0401E9E783F000435BE781F0004111
:1004200058E72DE9FE4F81EA030404F0004421F06F
:10043000004100944FF0000B23F0004350EA010408
:100440005ED052EA03045BD0C3F30A54C1F30A55E9
:100450002C44A4F2F3340194A0FB0254C1F3130121
:1004600041F48011C3F3130343F4801301FB0244EE
:1004700000FB034E840A970A44EA815447EA8357F3
:10048000A4FB076802958D0A05FB07854FEA932CAC
:1004900004FB0C542705029D4FEA065847EA16371D
:1004A000B5EB08056EEB070C870E920E47EA811735
:1004B00042EA8312A7FB0201B6EB0B0164EB0004D6
:1004C0002B0D43EA0C335E1844EB1C50DA465146C0
:1004D000E7FB0201C5F313044FEA0B3343EA14535D
:1004E0004FEA0432019C43EA0603A4F10C0402948F
:1004F000009CCDE900B400F0CFF903B0BDE8F08F67
:1005000000200146F9E72DE9F04D81EA030404F0EB
:10051000004B21F0004514464FF0000A23F0004143
:1005200050EA050220D054EA01021DD0C5F30A5753
:100530000246C5F31303C1F31300C1F30A5640F496
:10054000801543F48013A7EB0608101BD64608F26B
:10055000FD3873EB050002D308F1010801E09218A1
:100560005B41B8F1000F03DA00200146BDE8F08DD1
:1005700000204FF48011064684460EE0171B73EBF3
:10058000050705D3121B63EB050306434CEA010C78
:1005900049084FEA300092185B4150EA0107EDD15B
:1005A00052EA030012D082EA040083EA05010843FC
:1005B00005D0101BAB4106D20122002306E0002229
:1005C0004FF0004302E06FF0010253101AEB0600F7
:1005D0004CEB085110EB0A0041EB0B01BDE8F04D6C
:1005E00000F04BB970B521F0004303430CD0C1F3C8
:1005F0000A550024D5EB040564EB0403D617AD1AA5
:10060000B34102DB0020014670BD201841EB0251CE
:1006100070BDC10F80EAE0700844CA07962300212C
:1006200000F0FDB896230022114600F0F8B80EB590
:1006300040F2334102910021CDE900110A460B46F8
:1006400000F02AF903B000BD00F0004220F00040A5
:10065000C10DC0F3160040F400007F2901DA00202C
:100660007047962903DCC1F19601C84001E0963934
:100670008840002AF4D040427047C1F30A5210B5B6
:10068000C1F3130140F2FF3341F480119A4201DAC1
:10069000002010BD40F233439A42A2F2334203DC01
:1006A0005242FFF73FFD10BD904010BD00F00042E8
:1006B00030F000400AD0C10D01F56071C0F31600A2
:1006C00042EA0151C2084007114370470020014629
:1006D0007047000030B5041E71F1000404DB4FF0D8
:1006E0000044404264EB0101141E73F1000405DB79
:1006F0001C464FF00043524263EB0403994208BF8B
:10070000904230BD01F0004330B421F0004150EA86
:10071000010206D00A0DA2F56072C1F31301002A8E
:1007200002DC30BC00207047440F44EAC104C10021
:10073000E01830BC00EBC25000F068B830B50B4692
:10074000014600202022012409E021FA02F59D4201
:1007500005D303FA02F5491B04FA02F52844151ED5
:10076000A2F10102F1DC30BD2DE9F05F0546002069
:1007700092469B4688460646814640241BE0284612
:10078000414647462246FFF7CDFC53465A46C01A1B
:10079000914110D311461846224600F016F82D1A42
:1007A00067EB01084F4622460120002100F00DF8BA
:1007B00017EB00094E41201EA4F10104DFDC48467E
:1007C00031462A464346BDE8F09F202A04DB203A02
:1007D00000FA02F1002070479140C2F1200320FA94
:1007E00003F3194390407047202A06DBCB17203AC9
:1007F00041FA02F043EAE07306E041FA02F3D04026
:10080000C2F1200291400843194670470029A8BF51
:100810007047401C490008BF20F00100704710B429
:10082000B0FA80FC00FA0CF050EA010404BF10BCDE
:10083000704749B1CCF1200421FA04F411FA0CF10B
:1008400018BF012121430843A3EB0C01CB1D4FEA44
:1008500000614FEA102042BF002010BC704700EB3F
:10086000C35010440029A4BF10BC7047401C49006D
:1008700008BF20F0010010BC704710B5141E73F1C2
:10088000000408DA401C41F1000192185B411A4350
:1008900001D120F0010010BD2DE9F04D92469B469C
:1008A00011B1B1FA81F202E0B0FA80F22032904642
:1008B000FFF78BFF04460F4640EA0A0041EA0B01AE
:1008C00053465A46084313D0114653EA010019D043
:1008D000C8F140025046FFF725FC05460E4650463B
:1008E00059464246FFF771FF084305D0012004E056
:1008F00020463946BDE8F08D0020054346EAE07603
:100900002C4337430A986305E40AA0EB0800002251
:10091000FD0A44EA47540A3002D500200146E9E7BF
:10092000010510196941DDE9084500196941BDE873
:10093000F04DA2E72DE9F04D00231A461B1A8A411B
:1009400003DB00200146BDE8F08DC1F30A52C1F37C
:10095000130141F480154FF0000BD10702D10018AC
:100960006D41521E0027044640F2FF11384601EB4C
:10097000620A3E468046024600204FF48011FFF78F
:10098000D1FBC2197141BB1846EB0100B4EB030C5B
:1009900075EB000C04D3E41A65EB000517460E4610
:1009A000241908F101006D4180463428E3DDF9196E
:1009B00046EB0600091BA84103D24FF0FF32134655
:1009C00001E0002213461BEB070046EB0A51BDE88D
:1009D000F04DFFF752BFC1F30A52C1F3130140F2C9
:1009E000FF3341F480119A4202DA00200146704739
:1009F00040F233439A42A2F2334202DC5242FFF702
:100A000091BBFFF7E2BE0000064C074D06E0E06830
:100A100040F0010394E8070098471034AC42F6D345
:100A2000FFF768FBD08B0008F08B000870B58C18BE
:100A300010F8015B15F0070301D110F8013B2A11F2
:100A400006D110F8012B03E010F8016B01F8016BDF
:100A50005B1EF9D12B0705D40023521E0DD401F8DB
:100A6000013BFAE710F8013BCB1A921C03E013F8A4
:100A7000015B01F8015B521EF9D5A142D8D30020D9
:100A800070BD000070B5044600688168C943C9079D
:100A90001CD1816821F00101816000F08DFF0546C5
:100AA0000FE000BF00F088FF401B022809D9A06AB0
:100AB00040F01000A062E06A40F00100E062012016
:100AC00070BD20688068C043C007EBD0002070BDB7
:100AD00010B50146406A826A12F0500F05D0006AD4
:100AE000026BBDE8104008461047816A41F400716E
:100AF000816201688968C1F3424107290CD1C1684C
:100B000051B9816A21F480718162816AC90403D478
:100B1000816A41F00101816200F00CFB10BD10B54B
:100B2000406A816A41F040018162C16A41F004017A
:100B3000C16200F018FB10BD10B5406A00F012FB56
:100B400010BD0000F8B500260446009600688168D4
:100B5000C943C90728D0816841F001018160134869
:100B600013490068B0FBF1F000E0401E009000283F
:100B7000FBD100F021FF054611E000BF00F01CFF93
:100B8000401B02280BD9A06A40F01000A062E06A66
:100B900040F00100E06284F824600120F8BD206884
:100BA0008068C043C007E9D10020F8BD00000020E4
:100BB00040420F00FEE7000038B5012414236122F3
:100BC00019461820009403F03AF82C2361221946A4
:100BD0001820009403F033F817222B231521104618
:100BE000009403F02CF862222B2315211046009468
:100BF00003F025F86322272319211046009403F0FF
:100C00001EF86422272319211046009403F017F8D8
:100C1000652226231A211046009403F010F802F0F2
:100C200097FA0E484068FFF741FD02460B460CA1BB
:100C30000D4803F033FD06212D2004F027FC0B485E
:100C40000123D0E90012084804F0ACFC04F024FCB5
:100C50000748084904700020887038BD3C00002017
:100C6000252E32665600000044030020700000204C
:100C70000A00002098000020064801780648C27843
:100C8000114205D005490A68521C0A600021C17052
:100C90007047000008000020980000202C00002071
:100CA000014800F0C1BB00005003002030B590F8AF
:100CB00040500124AC40C56B6C60046863604368BD
:100CC000102B036803D099600068C26030BD9A6041
:100CD0000068C16030BD704738B5012424234D221F
:100CE00019460420009402F0AAFF3C234D22194625
:100CF0000420009402F0A3FF03223B232521104689
:100D0000009402F09CFF4E223B23252110460094C4
:100D100002F095FF4F22372329211046009402F05C
:100D20008EFF5022372329211046009402F087FFBE
:100D3000512236232A211046009402F080FF38BD4C
:100D400038B501244023802219465920009402F02E
:100D500076FF0023802219465920009402F06FFF8D
:100D60008022402300211046009402F068FF2123D6
:100D7000802219465920009402F061FF5822402336
:100D800000211046009402F05AFF38BD00B585B02E
:100D900000F00AFD0120049002900B48039000200F
:100DA0000190694601A800F061FC10B100F0B2FCAE
:100DB00004E000F0AFFC0098401C02D0002005B019
:100DC00000BD0120FBE7000000F00108B0F5007F46
:100DD00001D300207047034A52F820000860012028
:100DE0007047000000F0010810B54318B3F5007F0C
:100DF00001D9002010BD064B014404E053F8204007
:100E0000401C10C280B28142F8D8012010BD000001
:100E100000F001082DE9F04706464FF400700D463A
:100E2000864202D30020BDE8F0871A4F57F82610FB
:100E3000491C1CD081460146174A0020FFF7D4FF09
:100E400008B3DFF8548048F82650FFF79FFF00F002
:100E5000ABFC002407EB840158F824200023022077
:100E600000F062FC78B9641CA4B24C45F2D300F0E7
:100E70009BFC681C0AD007EB86012A46002302204F
:100E800000F052FC10B100F045FCCBE700F042FC52
:100E90000120C8E700F0010894070020012000F0BD
:100EA00097BC000006490020C8610648016941F06E
:100EB00004010161016941F04001016170470000D6
:100EC000980F002000200240064A0021D161064907
:100ED0000A6942F002020A614861086940F0400074
:100EE00008617047980F002000200240044B002248
:100EF000DA61044A136943F001031361018070470A
:100F0000980F00200020024014480022C168CB0640
:100F1000134904D5CA6942F00202CA611022C368AB
:100F20005B0705D5CB6943F00103CB6142F00402B6
:100F3000C369DB0707D0CB6943F00403CB61C16908
:100F400021F00101C161A2F58071013901D0C260B7
:100F50007047C16921F00101C16170470020024062
:100F6000980F002070B5054600F026FD0646114C8E
:100F700009E0681C07D025B100F01EFD801BA842C7
:100F800001D9032070BDE068C007F2D1E068800697
:100F900001D52020E060E068C00605D4E069C00704
:100FA00002D1E068400703D5FFF7AEFF012070BD16
:100FB000002070BD0020024070B50B484068FFF76C
:100FC00075FB0A4A0A4BFFF726FA054609480C4604
:100FD0000068FFF76BFB2A462346FFF77BFB01D235
:100FE000002070BD012070BD3C0000209A999999A5
:100FF0009999B93F1400002070B50B484068FFF77D
:1010000055FB0A4A0A4BFFF706FA054609480C4603
:101010000068FFF74BFB2A462346FFF75BFB01D234
:10102000002070BD012070BD3C000020B81E85EB83
:1010300051B8AE3F1C000020F8B50024009490F891
:1010400024202546012A12D0012280F824204A6853
:101050001F23072A0DD20668776B521E02EB82020D
:1010600093409F430B6893401F43776319E002202E
:10107000F8BD06680D2A0AD2376BD21F02EB820236
:1010800093409F430B6893401F43376309E0F76A1F
:101090000D3A02EB820293409F430B6893401F433B
:1010A000F7620A68072306680A2A0AD3F7680A3A29
:1010B00002EB420293409F438B6893401F43F760CB
:1010C00008E0376902EB420293409F438B689340EC
:1010D0001F4337610A68102A01D0112A20D1124B10
:1010E00002689A4217D193681B0219D4936843F49B
:1010F000000393600968102912D10C490C4A096851
:10110000B1FBF2F101EB8101490000E0491E0091C1
:101110000029FBD104E0816A41F0200181620124B1
:1011200080F824502046F8BD002401400000002033
:1011300040420F0070B50068084988420DD1084D43
:10114000002405F10C0600BF55F82400FFF76AFAE9
:1011500046F82400641C032CF6DB70BD002401401B
:101160002C030020704770472DE9F0414FF0000735
:1011700004003D467ED0A06A002628B9E66284F8C5
:101180002460204600F07EF82046FFF77BFCA16A31
:10119000C90600D420B1A06A40F01000A06269E046
:1011A000A16A21F4885141F00201A1626268E169FB
:1011B000E3680A4347EA43010A43A1684FF4807792
:1011C000B94209D0012907D05FF00001D4F814C05A
:1011D000BCF1010F02D00AE03946F7E7F3B1A36A88
:1011E00043F02003A362E36A43F00103E362236850
:1011F000D3F804C02CF4694C4CEA010CC3F804C0C9
:1012000021688B68DFF870C003EA0C0313438B601E
:10121000A168B9420BD0012909D00CE0DFF85CC00D
:10122000A3690CEB43330B4343F40061DFE7218AEE
:101230000D05A5F580152168CB6A23F470032B43B7
:10124000CB62216889680E4B1940914208D1E66251
:10125000A16A21F0020141F00101A162BDE8F08123
:10126000A06A20F0020040F01000A062E06A40F0A6
:101270000100E0620120F1E7FDF7E1FF00E0FFFF80
:10128000FE0E1FFF30B505460068184985B088423C
:101290002AD11748816941F40071816180696946EA
:1012A00000F4007004903020009003200190114859
:1012B00000F09AFA114C1048206000206060A06095
:1012C0008020E06080002061800060612020A061BB
:1012D0000002E061204600F051F918B1762108A023
:1012E00003F0DAF92C62656205B030BD00240140DC
:1012F0000010024000080140080002405003002096
:101300002E2E2F5372632F73746D333266317878BB
:101310005F68616C5F6D73702E6300002DE9F047AC
:10132000894604463B4900683B4F0E1D9046884263
:1013300001D0B84207D1306810F4702F03D00125D6
:101340002846BDE8F08794F8240001280CD001203D
:1013500084F824002046FFF7F5FB05004FF000005D
:1013600004D084F82400EBE70220EAE7A16A40F603
:101370000162914341F48071A1622168B94218D1A0
:10138000326812F4702F14D0A16A41F48011A16266
:101390003168490505D5A16A21F4005141F4805115
:1013A000A162A16AC9040AD5E16A21F00601E162DD
:1013B00006E0A26A22F48012A2624968E9E7E062CC
:1013C00084F82400216A15488862216A1448C8629A
:1013D000216A1448086321686FF0020008602068E1
:1013E000816841F480718160216843464A464C31EE
:1013F000206A00F0F5F820688168C1F342410729AE
:10140000816803D041F48011816099E741F4A00123
:10141000FAE700000024014000280140D10A00083A
:10142000390B00081F0B00082DE9F05FC16B0C6839
:1014300001680B68D0F840C0042202FA0CF2494D52
:10144000DFF824A1494E4A4FDFF828B1DFF828E140
:1014500022422CD05A072AD50A68920603D40A6879
:1014600022F004020A600168A94201D1042219E0B5
:10147000514501D1402215E0B14202D14FF48062C2
:1014800010E0B94202D14FF480420BE0594502D13D
:101490004FF4802206E0714502D14FF4800201E052
:1014A0004FF080622F4908394A60C16A3BE04FF033
:1014B000020808FA0CF818EA040F4FF000094FF080
:1014C000010235D05FEA837832D50B689B0605D4DC
:1014D0000B6823F00A030B6080F821200168A94201
:1014E00001D1022219E0514501D1202215E0B1427B
:1014F00002D14FF4007210E0B94202D14FF4005211
:101500000BE0594502D14FF4003206E0714502D19B
:101510004FF4001201E04FF00072124908394A609E
:1015200080F82090816A00291AD0BDE8F05F084752
:10153000082505FA0CF5254212D01B0710D50B68BB
:1015400023F00E030B6090F84010C36B02FA01F118
:101550005960826380F8212080F82090016BE2E7D7
:10156000BDE8F09F080002401C000240300002402D
:1015700044000240580002406C00024030B548B3BD
:1015800008C8154914221944B1FBF2F18900C1635E
:1015900012498163022141771A6843F6F0718A4348
:1015A000D0E900142143D0E902452C4321430469CA
:1015B0002143446921438469214311431960002177
:1015C00041628162C1620163416301224277017716
:1015D000084630BD012030BDF8FFFDBF00000240CD
:1015E00070B5044690F82000002501280CD0012099
:1015F00084F8200094F821600020012E06D084F8A1
:1016000020000225284670BD022070BD022684F805
:101610002160A0632068066826F001060660204667
:10162000FFF744FBE06A00282068016802D041F01F
:101630000E0106E021F0040101602068016841F01C
:101640000A0101602068016841F001010160D9E7E9
:1016500031B500F0B1F9009C0546601C00D0641C57
:1016600000F0AAF9401BA042FAD338BD2DE9F0479B
:10167000054626480F460126017E01290FD001218B
:10168000814601762868DFF888804CF250340228C1
:1016900008D0A2462046FFF765FCA8B131E0022041
:1016A000BDE8F0872046FFF75DFC08BB0120FFF78F
:1016B000F9FB2046FFF756FCD8F81010064621F03B
:1016C0000401C8F810101CE04FF0FF303860AC681F
:1016D00011E02046FFF7F8FB5046FFF743FCD8F82F
:1016E0001010060021F00201C8F8101001D03C6073
:1016F00007E004F58064D5E9020100EB8120A042F7
:10170000E7D8002189F818103046C9E7980F002063
:10171000002002400348016941F08001016100207E
:1017200070470000002002402DE9F05F07461C488A
:1017300088460024017E15461E46012909D0012154
:10174000814601764CF2503A5046FFF70BFC18B137
:1017500022E00220BDE8F09F012F02D0022F00D02E
:101760000427D346DFF83CA0220128463146FEF785
:10177000D9FC81B208EB4400FFF7B8FB5846FFF7ED
:10178000F1FBDAF8102022F00102CAF8102018B993
:10179000641CE4B2BC42E7D3002289F81820D9E7E0
:1017A000980F00200020024005480169090605D570
:1017B000044941600449416000207047012070479E
:1017C0000020024023016745AB89EFCD7047000040
:1017D000044910B50A68024202D00860FFF7F6FF1C
:1017E00010BD0000140401402DE9F84FDFF890A16E
:1017F00000220AF1040B144601274FF00F090BF1E8
:10180000040E00BF0B6807FA04F52B40AB4274D1FD
:10181000DFF870C14E68A6EB0C0866452BD00DDCD6
:10182000032E34D005DC36B3012E19D0022E2FD171
:101830001BE0112E16D0122E2AD119E0B8F5881F00
:1018400019D006DCB8F5803F15D0B8F5801F1FD140
:1018500011E0B8F5001F0ED0B8F5041F18D10AE04A
:10186000CA6815E0CA68121D12E0CA6808320FE0A3
:10187000CA680C320CE08A682AB1012A4FF00802CB
:1018800003D0456104E0042202E0056100E000228B
:10189000FF2B01D8064601E000F104064FEA84055B
:1018A00001D9A5F12005D6F800C009FA05F82CEAFF
:1018B000080C02FA05F54CEA050CC6F800C04D68A4
:1018C000ED0057D5304DAE6946F00106AE61AD6909
:1018D00024F0030605F0010500952C4D06EB050CE0
:1018E000DCF80850A6074FEA167809FA08F6B5435F
:1018F000274EB04202D1002610E03BE0254EB04218
:1019000001D101260AE0244EB04201D1022605E0B1
:10191000224EB04201D1032600E0042606FA08F662
:101920002E43CCF808604D68DAF80060ED035546A8
:1019300001D51E4300E09E432E604D68DBF8006039
:10194000AD035D4601D51E4300E09E432E604D6809
:10195000DEF80060ED02754601D51E4300E09E43AF
:101960002E604D68AD020E4D2E6801D51E4300E07D
:101970009E432E60641C102CFFF444AFBDE8F88F2A
:10198000000401400000111000100240000001405E
:1019900000080140000C014000100140001401400B
:1019A0000C0401408068084000D0012070470AB153
:1019B000016170470904FBE70148006870470000B7
:1019C0006002002070B5040004D094F83D000025AA
:1019D00010B106E0012070BD84F83C50204600F0B4
:1019E00013F9242084F83D002068016821F00101EA
:1019F000016000F00FFB33492268B0FBF1F1516048
:101A0000314A6368934206D94FF4967359434FF4B1
:101A10007A73B1FBF3F12368491C19626168914242
:101A20000BD84900B0FBF1F2C2F30B02042A01D239
:101A3000042019E0B0FBF1F016E0A3689BB301EBC2
:101A4000C10202EB0112B0FBF2F242F48042120535
:101A500030D04BB301EBC10202EB0111B0FBF1F04E
:101A600040F4804040F400402168C861D4E9070197
:101A7000084321680860D4E903100843216888609E
:101A8000D4E9050108432168C8602068016841F075
:101A9000010101602564202084F83D00256384F85D
:101AA0003E50002070BD00E006E001EB4102B0FBBB
:101AB000F2F2CCE70120D7E701EB4101B0FBF1F0F6
:101AC000D0E7000040420F00A08601002DE9FF4F43
:101AD00083B09A46DDE9118793460446DDF84090CD
:101AE000FFF76AFF064694F83D0020287DD11923B0
:101AF000012243492046009600F0B7FE00287CD121
:101B000094F83C00012878D0012084F83C0020683B
:101B10000168C90703D1016841F001010160206833
:101B2000016821F400610160212084F83D0040201B
:101B300084F83E0000252564C4F82490A4F82A8087
:101B40003048E062608D2085CDE9007653465A46E4
:101B50002046049900F012FE80B3206C84F83C50BB
:101B6000042848D008E032463946204600F0F2FE0C
:101B700030B1206C042839D0032007B0BDE8F08FC5
:101B8000606A411C6162216800780861208D401EF6
:101B900080B22085618D491E618521684A69D243E2
:101BA00052070BD468B1606A421C62620078086117
:101BB000208D401E2085608D401E6085208D002870
:101BC000D1D132463946204600F028FE0028D0D137
:101BD00054F83D0B016841F400710160202004F8C5
:101BE0001E09E57765770020C7E706E020680168F1
:101BF00041F4007101600120BFE70220BDE7000051
:101C0000020010000000FFFF00B500680C4985B01D
:101C1000884212D1C020009012200190032003902E
:101C200069460848FFF7E0FD0748C16941F4001123
:101C3000C161C06900F40010049005B000BD00004F
:101C400000540040000C01400010024002480168AE
:101C5000491C01607047000060020020074810B571
:101C6000016841F010010160032000F08BF80020B2
:101C700000F006F800F018F8002010BD0020024027
:101C800010B5044607484FF47A710068B0FBF1F0D4
:101C900000F097FB00222146501E00F053F8002070
:101CA00010BD0000000000201E4808B5816941F009
:101CB00001018161806900F001000090032000F0C3
:101CC00061F8002211466FF00B0000F03BF8002293
:101CD00011466FF00A0000F035F8002211466FF04F
:101CE000090000F02FF800221146501F00F02AF8DA
:101CF00000221146101F00F025F800221146901E08
:101D000000F020F800221146501E00F01BF8064893
:101D1000416821F0E0614160416841F0007141603B
:101D200008BD0000001002400000014000F01F024A
:101D3000012191404009800000F1E020C0F800112D
:101D400070470000F0B40E4B1B680C46C3F302232F
:101D5000C3F10705042D00D90425191D072901D257
:101D6000002300E0DB1E012606FA05F1491E214092
:101D700099409E40761E16403143F0BC01F093B866
:101D80000CED00E0064900F0070208684FF6FF037B
:101D9000184040EA0220034A1043086070470000E0
:101DA0000CED00E00000FA050548016841F0020171
:101DB00001600448016841F00401016030BF7047D0
:101DC0000070004010ED00E02DE9F8430546007872
:101DD000354CC00754D0E0690026C00008D4E06943
:101DE00040F08050E061E069012600F080500090F2
:101DF0002E480168C90512D40168804641F48071FB
:101E00000160FFF7D9FD074605E000BFFFF7D4FDED
:101E1000C01B642823D8D8F80000C005F6D5206A76
:101E200010F4407021D0A98801F4407181421CD087
:101E3000206A1F49012220F440700A6000220A60D3
:101E40002062C00711D0FFF7B7FD074641F288387E
:101E500008E000BFFFF7B0FDC11B414502D90320D8
:101E6000BDE8F883206A8007F4D5206A696820F409
:101E70004070084320621EB1E06920F08050E061AC
:101E80002878800705D56068A96820F44040084399
:101E900060602878C00605D56068E96820F4800095
:101EA000084360600020DBE7001002400070004043
:101EB000400442422DE9F047DFF83C8105460E46DA
:101EC000D8F8000000F00700B0420CD2D8F800109B
:101ED00021F007013143C8F80010D8F8000000F0E5
:101EE0000700B04263D12878444C800705D560686C
:101EF000A96820F0F000084360602878C00745D04A
:101F00006868012816D02168022816D089070029A0
:101F10004DDA616821F0030101436160FFF74CFD78
:101F20006968074641F2883001290FD002298146AD
:101F300019D027E021688903E9E78901E7E700BFB5
:101F4000FFF73AFDC11B494501D918E08146606899
:101F5000C0F381000128F3D118E000BFFFF72CFD8A
:101F6000C11B49450BD86068C0F381000228F5D138
:101F70000CE000BFFFF720FDC11B494502D903203B
:101F8000BDE8F087606810F00C0FF3D1D8F80010AE
:101F9000404601F00701B1420BD9016821F0070169
:101FA00031430160006800F00700B04201D0012019
:101FB000E6E72878400705D56068E96820F4E06026
:101FC000084360602878000706D56068296920F416
:101FD000605040EAC100606000F02CF86168084A77
:101FE000C1F30311515CC840064908600020FFF7A7
:101FF00047FE0020C4E7000000200240001002401D
:10200000D05500080000002001480068704700001B
:10201000000000200448054900684968044AC1F3EB
:102020000221515CC84070470000002000100240AF
:10203000E055000810B513A385B00FCB8DE80F0055
:1020400014A0154B006804905A68144802F00C0163
:10205000042902D0082902D0401005B010BDC2F3F7
:102060008344D2031DF8041008D55A6804ABC2F3A8
:1020700040429A5CB0FBF2F04843EEE70848484320
:10208000EBE7000002030405060708090A0B0C0D24
:102090000E0F101001020000001002400024F40096
:1020A00000093D002DE9F84F04460078B94DC007FE
:1020B00048D06868C0F38100012807D06868C0F381
:1020C0008100022809D16868C00306D5286880030A
:1020D00038D5606800286FD034E06068B0F5803F84
:1020E0000BD010B1B0F5A02F11D0286820F48030AB
:1020F0002860286820F4802002E0286840F48030BE
:102100002860606888B1FFF757FC064609E0286838
:1021100040F480202860F0E7FFF74EFC801B642825
:1021200075D828688003F7D50CE0FFF745FC064614
:1021300005E000BFFFF740FC801B6428F0D828684A
:102140008003F7D42078944E80074FF001094FF0B8
:1021500000083BD5686810F00C0F07D06868C0F322
:102160008100022809D16868C00306D42868800766
:1021700014D5206901281FD110E02069B0B1C6F83C
:102180000090FFF719FC074605E000BFFFF714FCBD
:10219000C01B0228C4D828688007F7D52868616961
:1021A00020F0F80040EAC10028600FE0C6F8008087
:1021B000FFF702FC074606E0E9E000BFFFF7FCFB83
:1021C000C01B022823D828688007F7D4207800078E
:1021D0002CD57248A169D9B1C0F80090FFF7ECFB8B
:1021E000074604E0FFF7E8FBC01B02280FD8686A27
:1021F0008007F7D56A484FF4FA510068B0FBF1F058
:10220000009000BF0098411E0091FAD20EE080E0DD
:10221000C0F80080FFF7D0FB074604E0FFF7CCFBD7
:10222000C01B022875D8686A8007F7D42078400759
:1022300060D5E8690027C00008D4E86940F0805004
:10224000E861E869012700F0805000905548016876
:10225000C90513D40168834641F480710160FFF71A
:10226000ABFB824606E000BFFFF7A6FBA0EB0A002F
:1022700064284ED8DBF80000C005F5D5E0680128D9
:102280000AD008B1052813D0286A20F0010028627E
:10229000286A20F0040002E0286A40F00100286269
:1022A000E06841F2883B98B1FFF786FB82460BE07D
:1022B000286A40F004002862EEE700BFFFF77CFBCD
:1022C000A0EB0A0159455AD8286A8007F6D50CE0D8
:1022D000FFF772FB824605E0FFF76EFBA0EB0A01F9
:1022E00059454CD8286A8007F6D41FB1E86920F018
:1022F0008050E861E06988B36968C1F3810102290F
:1023000045D00228C6F8608004D0FFF755FB04468C
:1023100038E034E0FFF750FB074604E0FFF74CFBE2
:10232000C01B02282BD828688001F7D4206AB0F59A
:10233000803F05D16868A16820F4003008436860D8
:10234000D4E908010843696821F4741108436860FE
:10235000C6F86090FFF730FB044606E015E000BFCA
:10236000FFF72AFB001B022809D828688001F7D54F
:102370000BE000BFFFF720FB001B022802D903205F
:10238000BDE8F88F28688001F4D40020F8E7012028
:10239000F6E7000000100240000042428004424282
:1023A00000000020007000404FF0E0210428086980
:1023B00003D020F004000861704740F00400FAE701
:1023C000704710B5401EB0F1807F01D3012010BDD1
:1023D0004FF0E02460610F21601700F064FD0020E1
:1023E000A06107202061002010BD10B5FFF7E8FFB5
:1023F00010BD10B590F83C20012A25D0012280F8AC
:102400003C20CA688C6822F4407222434C6822F453
:10241000806222430C6822F4006222430C6922F499
:10242000805222434C6922F4005222438C6922F4E8
:102430008042224322F40041026800232143516478
:1024400080F83C30002010BD022010BD30B590F85F
:102450003C20012A20D0012280F83C20022380F871
:102460003D3003685C6824F070045C6003685C685D
:102470000D682C435C6003689C6824F080049C60B9
:1024800003689C6849680C439C6080F83D200021EB
:1024900080F83C10084630BD022030BD10B5040065
:1024A00003D094F83D0010B107E0012010BD0020DA
:1024B00084F83C00204600F00DF8022084F83D002E
:1024C000211D206801F00EFD012084F83D00002050
:1024D00010BD000008B500680649884208D10648CA
:1024E000816941F400618161806900F400600090BD
:1024F00008BD0000002C01400010024070B50446E9
:1025000090F83C00012817D0012584F83C500220A7
:1025100084F83D002068826822F0770222F47F422E
:1025200082600868502837D00DDC202859D005DC9F
:1025300088B3102841D151E0022070BD302853D01B
:1025400040283AD13FE060282ED070280BD0B0F55B
:10255000805F03D0B0F5005F2FD110E02068816864
:1025600021F0070115E0CB68D1E90121206801F0D5
:10257000FAFC2168886840F0770088601DE0CB682D
:10258000D1E90121206801F0EEFC2068816841F466
:102590008041816011E01EE0CA684968206801F04E
:1025A00097FD5021206806E0CA684968206801F05C
:1025B000A0FD6021206801F0E0FC84F83D5000207F
:1025C00084F83C0070BDCA684968206801F080FD4D
:1025D00040212068EFE700212068ECE71021206807
:1025E000E9E720212068E6E730212068E3E70000E2
:1025F0001FB500680649884208D180150090022066
:102600000190039069460348FFF7EEF81FBD0000F4
:10261000002C01400008014070B5044690F83C00D1
:102620000D4601280DD0012684F83C60022084F874
:102630003D0042B1042A18D0082A2AD00C2A4DD1D4
:1026400039E0022070BD206801F0A0FC206881699B
:1026500041F0080181612068816921F004018161F4
:10266000206881692A69114311E0206801F0B6FCF5
:102670002068816941F4006181612068816921F4E9
:1026800080618161206881692A6941EA0221816152
:1026900024E0206801F0CEFC2068C16941F0080107
:1026A000C1612068C16921F00401C1612068C1696C
:1026B0002A69114311E0206801F0E8FC2068C16933
:1026C00041F40061C1612068C16921F48061C16188
:1026D0002068C1692A6941EA0221C16184F83D602C
:1026E000002084F83C0070BD10B5040003D094F8BD
:1026F0003D0010B107E0012010BD002084F83C002F
:10270000204600F00CF8022084F83D00211D2068CE
:1027100001F0E8FB012084F83D00002010BD704767
:1027200010B504460068012201F012FC0749206838
:10273000884203D1416C41F4004141642068016842
:1027400041F001010160002010BD0000002C01409B
:10275000FEE701684A69D24352050CD46FF48062E7
:102760004A6104210164002140F8301F2022427395
:102770000173012070470020704700002DE9F843E5
:10278000044600680D46DDE908970168984616463C
:1027900041F4807101604B4600224FF00111204648
:1027A000009700F062F8E8B9216805F0FE000861C2
:1027B0003B464A461849204600F088F828B1206C6C
:1027C00004280FD10120BDE8F883206841698069A1
:1027D00000903A464946204600F0BCF820B1206CF3
:1027E000042813D00320EEE7F5B2B8F1010F09D0A9
:1027F0002168300A08613A464946204600F0AAF8A6
:102800000028ECD1206805610020DCE72068016821
:1028100041F400710160D5E70200010070B5164671
:102820000D4604461AE02046FFF793FF08B1012049
:1028300070BD681C12D025B1FFF7BEF8801BA842FE
:102840000CD954F8400F40F0200044F81009002043
:102850002060202161732073032070BD20684069CF
:10286000C0434007DFD4002070BD2DE9F0471E466D
:1028700090460D460446C1F30747DDF8209012E06C
:10288000701C10D02EB1FFF797F8A0EB0900B042F2
:1028900009D9002044F8300F20216173A073207300
:1028A0000320BDE8F0872068012F0AD0806925EA5F
:1028B00000000004000C06D000214145E0D00020BB
:1028C000EFE74069F3E70121F7E700002DE9F04762
:1028D0009A4691460D46044600264FF02008C1F363
:1028E00007472AE020684069C043400512D42068A9
:1028F000016841F40071016021686FF480604861F3
:1029000004202064266384F83D8084F83C60012024
:10291000BDE8F087B9F1FF3F0FD0B9F1000F05D046
:10292000FFF74AF8A0EB0A01494506D944F8306F91
:1029300084F80D8026730320EAE72068012F07D072
:10294000D0F8180025EA00000004000CE0D0C9E728
:102950004069F7E770B516460D4604461AE0204672
:10296000FFF7F7FE08B1012070BD681C12D025B139
:10297000FFF722F8801BA8420CD954F8400F40F012
:10298000200044F81009002020602021617320738A
:10299000032070BD20684069C0430006DFD40020DA
:1029A00070BD00003EB51A48184901240160891520
:1029B000C0E902140021416103254FF46022056142
:1029C000C2614160FEF7D0FB00B1FEE70520CDE912
:1029D00000040720029069460D48FEF72DFB00B168
:1029E000FEE7042000900220019069460848FEF7A7
:1029F00023FB00B1FEE71020CDE90005694604483D
:102A0000FEF71AFB002800D0FEE73EBD002401407F
:102A100068020020F0B5234885B0816941F02001AB
:102A20008161816901F020010491816941F0040113
:102A30008161816901F004010491816941F008011B
:102A400081618069184F00F008004FF4007604900F
:102A5000002231463846FEF7AAFF14480124CDE98A
:102A600000400225694602953846FEF7BDFE47F252
:102A7000180000900020CDE9010469460C48FEF7DB
:102A8000B3FECDE90064694638460395FEF7ACFE17
:102A9000002211460620FFF755F90620FFF746F9F8
:102AA00005B0F0BD00100240000801400000111008
:102AB000000C01400B4810B5094901600A4941600A
:102AC00000214FF480428160C0E9031241618161BD
:102AD000C1610162FEF776FF002800D0FEE710BD5D
:102AE0000054004098020020A086010010B526483E
:102AF00094B024490024C0E9001442F21071C0E9E6
:102B00000241046144618461FFF7C8FC00B1FEE743
:102B10004FF480500E900EA91B48FFF7EFFC00B158
:102B2000FEE71948FFF7E0FD00B1FEE7129412A995
:102B300015481394FFF78AFC00B1FEE76020CDE949
:102B400000040294039404940594002269460E48FC
:102B50000694FFF761FD00B1FEE70794089409941D
:102B60004FF400500A94CDE90B4007A906480D9494
:102B7000FFF73FFC00B1FEE70348FFF739FD14B053
:102B800010BD0000002C0140EC020020FEE7000018
:102B90002DE9F84F1B21202002F078FC5C4D5D4FA1
:102BA000A5F1180401232078D7E9001205EB800075
:102BB00050F8040C02F0F6FC012626236522194683
:102BC0002020009601F03BF82721202002F05EFC37
:102BD0002078D7E9001255F82000002302F0E2FC2B
:102BE0003421202002F052FC2078D7E9001205EBB6
:102BF00080000123406802F0D5FC02F04DFCFEF796
:102C0000DBFE4549454D086031032846FEF7CAFE04
:102C100048B92078042801D3042000E0401C20702B
:102C20000120FEF715FD4FF480412846FEF7BAFE5D
:102C300048B92078012801D8267001E0401E207094
:102C40000120FEF705FD4FF4005B5946AA462846D1
:102C5000FEF7A8FEDFF8C890324FDFF8CC800025E1
:102C6000A0B92078012811D13E7088F800600021B9
:102C7000402380220846009500F0B6FFFEF760F87A
:102C800002F00AFCFEF728F8A9F800505946504611
:102C9000FEF788FEA0B92078022811D1387088F894
:102CA00000000021402380220846009500F09CFF90
:102CB000FEF746F802F0F0FBFEF70EF8A9F8005018
:102CC00059465046FEF76EFE90B9207803280FD182
:102CD0000520387088F800006670282380221821AB
:102CE0000020009500F080FF02F0D6FB00F020F8F5
:102CF00059465046FEF756FE20B92078042801D1E7
:102D000000F0F8F8BDE8F84F01210848FEF74ABE88
:102D1000B00000207000002024000020000C0140C2
:102D200010000020040000200500002000080140E1
:102D30002DE9F84F1B21202002F0A8FB4E4E4F4FEB
:102D4000A6F1F00401236078D7E9001206EB8000B9
:102D500050F8040C02F026FC0125262365221946B2
:102D60002020009500F06BFF2721202002F08EFB31
:102D70006078D7E9001256F82000002302F012FC18
:102D80003421202002F082FB6078D7E9001206EBA4
:102D900080000123406802F005FC02F07DFB384E04
:102DA00029033046FEF7FEFD48B96078042801D3B8
:102DB000042000E0401C60700120FEF749FC4FF445
:102DC00080413046FEF7EEFD48B96078012801D811
:102DD000657001E0401E60700120FEF739FC4FF481
:102DE000005A5146B1463046FEF7DCFD254FDFF86C
:102DF0009880002610B96078042805D051464846CE
:102E0000FEF7D0FD38B116E03E7088F80060032070
:102E10002070BDE8F88F607801280CD1282380222B
:102E200018210020009600F0DFFE02F035FB06209E
:102E3000387088F8000051464846FEF7B3FD514609
:102E40004846FEF7AFFD0028E3D160780328E0D1C3
:102E50000F490E4808600F484FF0834101600E484B
:102E60000E4906600E4801603D7088F80050BDE8CC
:102E7000F84F00F03FB800008801002070000020EB
:102E8000000C01400400002005000020CDCC0C40C7
:102E900014000020180000202C0000200071020007
:102EA0002800002070470907090E002806DA00F004
:102EB0000F0000F1E02080F8141D704700F1E020C1
:102EC00080F800147047000010B503215B2002F069
:102ED000DDFA04480123D0E90012BDE8104002A049
:102EE00002F060BB700000202D2E2D2D520000003E
:102EF0007047000070B523480068FDF7D7FB224DEE
:102F000000222B46FDF78DFAFDF7B7FB1F4904465B
:102F100008601F480068FDF7C9FB00222B46FDF73B
:102F200080FAFDF7AAFB1B4D214628600020FDF723
:102F300071FF01202968FDF76DFF17480168022025
:102F4000FDF768FF15480178012901D0022902D157
:102F50000320FDF75FFF124801680420FDF75AFFC8
:102F600000F0F2FE0F48416841F480714160016851
:102F700041F00401016006210160BDE87040FEF7E8
:102F800013BF000014000020000059403000002052
:102F90001800002034000020280000200400002039
:102FA0002C00002000700040F8B5012421465B4849
:102FB000FEF7F8FC00287DD1012000901423472261
:102FC0002621052000F010FE554D56490026686860
:102FD000884207DC1423472226210520009600F0B2
:102FE00003FE002450496868884208DC3CB1142381
:102FF000462226210620009600F0F6FD00244B49CB
:103000006868884208DA3CB1142347222621072049
:10301000009600F0E9FD0024454F6868B84208DAE0
:103020003CB11423452226210820009600F0DCFD47
:10303000002440496868884208DA3CB114234322DE
:1030400026210A20009600F0CFFD00246868B842CF
:1030500008DA3CB114233F2226210E20009600F00E
:10306000C3FD002434496868884208DC3CB114235D
:103070003A2226211320009600F0B6FD00242F49A5
:103080006868884208DA3CB114231C2226213020CB
:10309000009600F0A9FD002429496868884208DAF2
:1030A0003CB11423162226213720009600F09CFD07
:1030B000002400E030E023496868884208DA3CB127
:1030C00014230E2226213E20009600F08DFD0024C0
:1030D0006868B0F1814F08DA3CB114230722262139
:1030E0004520009600F080FD0024174A68681749C3
:1030F000904206DA2CB1142304222621482000969F
:1031000008E0884208DC002C06D014230022262187
:103110004C20009600F068FDF8BD0000000801405A
:103120003C00002033336340666666409A996940EC
:10313000CDCC6C4000007040666676409A9979402C
:10314000CDCC7C4052B87E409A9981403333834045
:10315000F8B501241423472216211920009400F009
:1031600043FDFD4EFD4900257068884207DA1423AF
:10317000462216211B20009500F036FD0024F84958
:103180007068884208DA3CB11423452216211C20BD
:10319000009500F029FD0024F2497068884208DAA1
:1031A0003CB11423442216211D20009500F01CFD83
:1031B0000024ED497068884208DA3CB114234322A8
:1031C00016211E20009500F00FFD0024E7497068CD
:1031D000884208DA3CB11423422216211F200095B0
:1031E00000F002FD0024E2497068884208DC3CB12E
:1031F0001423412216212020009500F0F5FC002424
:10320000DC497068884208DC3CB114234022162156
:103210002120009500F0E8FC0024D749706888421E
:1032200008DC3CB114233F2216212220009500F037
:10323000DBFC0024D1497068884208DC3CB11423CF
:103240003E2216212320009500F0CEFC0024CC491C
:103250007068884208DC3CB114233D2216212420EA
:10326000009500F0C1FC0024C6497068884208DC63
:103270003CB114233C2216212520009500F0B4FC1B
:103280000024C1497068884208DC3CB114233B2209
:1032900016212620009500F0A7FC0024BB49706889
:1032A000884208DC3CB114233A22162127200095DD
:1032B00000F09AFC0024B6497068884208DC3CB1F2
:1032C0001423392216212820009500F08DFC0024BB
:1032D000B0497068884208DC3CB1142338221621BA
:1032E0002920009500F080FC0024AB4970688842DA
:1032F00008DC3CB11423372216212A20009500F067
:1033000073FC0024A5497068884208DC3CB1142392
:10331000362216212B20009500F066FC0024A049DF
:103320007068884208DA3CB11423352216212C201B
:10333000009500F059FC00249A497068884208DA28
:103340003CB11423342216212D20009500F04CFCB2
:10335000002495497068884208DA3CB1142333226E
:1033600016212E20009500F03FFC00248F49706844
:10337000884208DA3CB11423322216212F2000950E
:1033800000F032FC00248A497068884208DA3CB1B7
:103390001423312216213020009500F025FC002452
:1033A00084497068884208DA3CB11423302216211F
:1033B0003120009500F018FC00247F497068884295
:1033C00008DA3CB114232F2216213220009500F098
:1033D0000BFC002479497068884208DA3CB1142358
:1033E0002E2216213320009500F0FEFB00247449A4
:1033F0007068884208DA3CB114232D22162134204B
:10340000009500F0F1FB00246E497068884208DAEC
:103410003CB114232C2216213520009500F0E4FB4A
:10342000002469497068884208DA3CB114232B22D1
:1034300016213620009500F0D7FB00246349706800
:10344000884208DA3CB114232A221621372000953D
:1034500000F0CAFB00245E497068884208DA3CB17B
:103460001423292216213820009500F0BDFB0024EA
:1034700058497068884208DC3CB114232822162180
:103480003920009500F0B0FB002453497068884251
:1034900008DC3CB11423272216213A20009500F0C5
:1034A000A3FB00244D497068884208DC3CB114231A
:1034B000262216213B20009500F096FB0024484967
:1034C0007068884208DC3CB11423252216213C2078
:1034D000009500F089FB002442497068884208DCAE
:1034E0003CB11423242216213D20009500F07CFBE2
:1034F00000243D497068884208DC3CB11423232233
:1035000016213E20009500F06FFB002437497068BB
:10351000884208DC3CB11423222216213F2000956A
:1035200000F062FB002432497068884208DC3CB13C
:103530001423212216214020009500F055FB002481
:103540002C49706888425ADC2CB1142320221621A1
:103550004120009550E052E03C000020A4705D4006
:103560007B145E4052B85E40295C5F4000006040C2
:10357000D7A36040AE47614085EB61405C8F6240FD
:10358000333363400AD76340E17A6440B81E654034
:103590008FC26540666666403D0A674014AE67406C
:1035A000EC516840C3F568409A996940713D6A40A2
:1035B00048E16A401F856B40F6286C40CDCC6C40DA
:1035C000A4706D407B146E4052B86E40295C6F4011
:1035D00000007040D7A37040AE47714085EB71404A
:1035E0005C8F7240333373400AD77340E17A744082
:1035F000B81E75408FC2754000F0F6FA0024C84925
:103600007068884208DC3CB114231F221621422036
:10361000009500F0E9FA0024C2497068884208DC8D
:103620003CB114231E2216214320009500F0DCFA41
:103630000024BD497068884208DC3CB114231D2277
:1036400016214420009500F0CFFA0024B749706895
:10365000884208DA3CB114231C221621452000952B
:1036600000F0C2FA0024B2497068884208DA3CB11E
:1036700014231B2216214620009500F0B5FA0024E1
:10368000AC497068884208DA3CB114231A2216212A
:103690004720009500F0A8FA0024A74970688842E6
:1036A00008DA3CB11423192216214820009500F0B5
:1036B0009BFA0024A1497068884208DA3CB11423BF
:1036C000182216214920009500F08EFA00249C490A
:1036D0007068884208DA3CB11423172216214A2068
:1036E000009500F081FA002496497068884208DA53
:1036F0003CB11622142311464B20009500F074FAB9
:10370000002491497068884208DA3CB114231522DC
:1037100016214C20009500F067FA00248B49706850
:10372000884208DA3CB114231A4616214D20009530
:1037300000F05AFA002486497068884208DA3CB1E1
:103740001423132216214E20009500F04DFA002478
:1037500080497068884208DA3CB11423122216218D
:103760004F20009500F040FA00247B4970688842A1
:1037700008DA3CB11423112216215020009500F0E4
:1037800033FA00247068B0F1814F08DA3CB1142399
:10379000102216215120009500F026FA00246F49CE
:1037A0007068884208DA3CB114230F221621522097
:1037B000009500F019FA002469497068884208DC15
:1037C0003CB114230E2216215320009500F00CFA70
:1037D000002464497068884208DA3CB114230D2241
:1037E00016215420009500F0FFF900245E4970680E
:1037F000884208DC3CB114230C2216215520009588
:1038000000F0F2F9002459497068884208DA3CB1A6
:1038100014230B2216215620009500F0E5F9002410
:1038200053497068884208DC3CB114230A221621EF
:103830005720009500F0D8F900244E49706888425E
:1038400008DA3CB11423092216215820009500F013
:10385000CBF9002448497068884208DC3CB1142345
:10386000082216215920009500F0BEF90024434992
:103870007068884208DA3CB11423072216215A20C6
:10388000009500F0B1F900243D497068884208DCD9
:103890003CB11423062216215B20009500F0A4F908
:1038A000002438497068884208DA3CB114230522A4
:1038B00016215C20009500F097F9002432497068C9
:1038C000884208DC3CB11423042216215D200095B7
:1038D00000F08AF900242D497068884208DA3CB16A
:1038E0001423032216215E20009500F07DF90024A8
:1038F000274A70682749904206DC2CB11423022223
:1039000016215F20009508E0884208DA002C06D0D6
:103910001423012216216020009500F065F9F8BDFE
:10392000666676403D0A774014AE7740EC517840A9
:10393000C3F578409A997940713D7A4048E17A40E0
:103940001F857B40F6287C40CDCC7C40A4707D4018
:103950007B147E4052B87E40295C7F40EC51804011
:10396000D7A38040C3F58040AE4781409A998140FB
:1039700085EB8140713D82405C8F824048E182400E
:10398000333383401F8583400AD78340F628844021
:10399000E17A8440CDCC844010B503215B2001F056
:1039A00075FD04480123D0E90012BDE8104002482B
:1039B00001F0F8BD700000206A0000202DE9F047FA
:1039C0001D4F7868FCF772FE1C4CDFF874802246AD
:1039D0004346FCF726FD6FF00B094A46FCF702FE52
:1039E000FCF790FE174E054670603868FCF75EFEE7
:1039F00022464346FCF715FD4A46FCF7F3FDFCF76B
:103A000081FE044630602846FCF750FE0E4D0F4EF6
:103A10002A463346FCF777FDFCF774FE0C4F7860BE
:103A20002046FCF743FE2A463346FCF76CFDFCF7C4
:103A300069FE3860BDE8F0873803002052B81E8563
:103A4000EB510A404C000020F680D903660FE83F96
:103A50003C00002010B50E480F4C02780D48012A9A
:103A6000016803D0022A03D0606806E00B4800E03A
:103A70000B480068FCF7F0FB6060FCF717FE02469D
:103A800005480B46BDE8104006A1113000F006BE07
:103A900004000020200000209800002014000020D6
:103AA0001C000020252E3266410000002DE9F04761
:103AB000DFF86C904FF40078012241464846FDF74C
:103AC00076FF184C0020184D4FF07E57174EA0601F
:103AD000FFF774FFD5E90010FCF7BEFB3946FCF791
:103AE00083FB3060A068401CA0604628F0DB1049D2
:103AF0003068FCF77FFB0F4C0022414620604846AF
:103B0000FDF755FF2068FCF7D1FD02460B460AA1E0
:103B10000B4800F0C3FDBDE8F047FFF73DBF0000D4
:103B200000080140980000203C00002044000020D4
:103B30000000B0412000002025302E3266520000E7
:103B40006A00002010B51B488068FCF7AFFD6FF0DD
:103B50000B02FCF747FD184A184BFCF762FCFCF718
:103B6000D1FD174CFCF7A2FD164A174BFCF756FC8B
:103B7000164A174BFCF7C7FC0022164BFCF7AAFBB2
:103B8000FCF7C0FD2060FCF791FD02460B4612A138
:103B9000134800F083FD26215B2001F077FC1148DB
:103BA0000123D0E900120E4801F0FCFCBDE81040F2
:103BB00001F072BC3803002052B81E85EB510A4058
:103BC00060000020713D0AD7A370F53F22FDF67515
:103BD000E09C713F00003940252E316663000000F3
:103BE00064000020700000202DE9F8431F46DDF836
:103BF00020900D46064680281FD2402D1DD2B018B9
:103C0000802802D3C6F1800082B2E819402802D38E
:103C1000C5F1400087B2002406EB02080BE028192A
:103C200083B281B21FFA88F23046CDF8009000F0DE
:103C300006F8641CE4B2BC42F1D9BDE8F8832DE972
:103C4000FC4F1D4614460E460746802800D37F27AA
:103C5000802C00D37F24402E00D33F26402D00D35C
:103C60003F25A74201D2E01B00E0381B0FFA80F984
:103C7000AE4201D2A81B00E0701B0FFA80FA4FF091
:103C8000FF30A74201D2012100E001460191AE427E
:103C900000D2012083464846D14501DCCAF100002C
:103CA00000EBD07040F34F08B9F1000F23D0BAF108
:103CB000000F35D0C9F100000090314638460B9A0C
:103CC00001F04CFBA74201D1AE4227D000994046FB
:103CD000884506DDA8EB0A010FFA81F801993944FD
:103CE0008FB25045E9DA08EB09000FFA80F806EBCD
:103CF0000B0086B2E1E7B54202D22846354686B2CD
:103D0000BC4200D2A7B234B206E0A1B238460B9A48
:103D100001F024FB641C24B2AC42F6DDBDE8FC8F4C
:103D2000B54200D2AEB2BC4202D220463C4687B277
:103D30003DB206E0A8B231460B9A01F00FFB6D1CB4
:103D40002DB2A542F6DDE9E710B58D2001F018FC93
:103D5000102001F015FCBDE81040AE2001F010BCB1
:103D60007047000070B5204D4FF480412846FDF7A4
:103D700019FE1E4C18B9206800F57A7020604FF4C7
:103D800080512846FDF70EFE0028206802D1A0F5DC
:103D90007A702060164A174C4FF47A71904208D915
:103DA000B0FBF1F214A1154800F078FC2721322075
:103DB0000DE042F228329042B0FBF1F201D910A19D
:103DC00000E011A10D4800F069FC27212A2001F034
:103DD0005DFBD4E900120123084801F0E3FBBDE8D4
:103DE000704001F059BB0000000C01402800002089
:103DF000B88201008800002025640000A400002093
:103E00002025642000000000202025642000000000
:103E100010B5FDF71BFFBDE81040FEF7E6BA10B580
:103E2000012194B00804CDE900104200029202245E
:103E30000491CDE907404FF4E01009906846FEF781
:103E400031F900B1FEE70F20CDE90A0400204FF45C
:103E50008061CDE90C010E9002210AA8FEF72AF834
:103E600000B1FEE74FF4004011900F940FA8FDF74A
:103E7000ABFF00B1FEE7FEF7C7F84FF47A71B0FB75
:103E8000F1F0FEF79EFA0420FEF78EFA00221146AA
:103E9000501EFDF757FF14B010BD00000D4801681B
:103EA00041F00101016041680B4A11404160016825
:103EB0000A4A11400160016821F4802101604168D3
:103EC00021F4FE0141604FF41F0181600449C003E9
:103ED00008607047001002400000FFF8FFFFF6FE88
:103EE00008ED00E0F0B50268164B174C174D4FF087
:103EF0008047984205D0B84203D0A04201D0A842E2
:103F000003D122F070064A683243984205D0B84285
:103F100003D0A04201D0A84203D122F44074CA6861
:103F2000224322F080044A69224302608A68C26206
:103F30000A688262984201D10969016301214161E5
:103F4000F0BD0000002C01400004004000080040CB
:103F500010B50123046A8B409C430462036A8A40C3
:103F60001343036210BD10B5846842EA032224F4AF
:103F70007F440A432243826010BD826822F07002AF
:103F80000A4342F0070181607047000030B5026AC1
:103F900022F001020262026A4368846924F0730518
:103FA0000C682C4322F002058A682A430A4DA84275
:103FB0000BD122F00805CA6823F440732A434D69E7
:103FC00022F004021D438B692B43436084614968DE
:103FD0004163026230BD0000002C014030B5026A2E
:103FE00022F010020262026A436884690D6824F4B8
:103FF000E64444EA05248D6822F0200242EA0512D4
:104000000B4DA8420ED1CD6822F0800242EA051283
:104010004D6923F4406343EA85038D6922F0400231
:1040200043EA85034360846149688163026230BD6D
:10403000002C014030B5026A22F480720262036AE9
:104040004268C46923F4007324F073050C682C43A0
:104050008D6843EA05230C4DA8420ED1CD6823F4A8
:10406000006343EA05234D6922F4405242EA0512F7
:104070008D6923F4806342EA05124260C461496895
:10408000C163036230BD0000002C014030B5026AFC
:1040900022F480520262046A4268C3690D6823F404
:1040A000E64343EA05238D6824F4005444EA0534CA
:1040B000064DA84204D14D6922F4804242EA85129D
:1040C0004260C36149680164046230BD002C014054
:1040D00010B5036A046A24F001040462846924F0C0
:1040E000F00444EA021423F00A020A4384610262E3
:1040F00010BD10B5036A23F0100303628369046ADC
:1041000023F4704343EA023224F0A00343EA01118E
:104110008261016210BD000010B5FDF74DFC06493B
:104120000968401A05490968884203D3BDE8104070
:10413000FEF7E0BE10BD0000240000202800002093
:10414000FEE700002DE9F84FFCF7FAFD0121874852
:10415000FDF728FC00240125DFF814B2854E864FB8
:10416000DFF81892DFF81882DFF818A2002856D07E
:104170008549D8F80400DFF81482884202DD99F8F6
:104180000200D0B101211E23552208460094FFF7FA
:104190002BFD0921002001F079F9D8E90012012353
:1041A0007BA001F0FFF901F077F93C6089F802503B
:1041B00034708BF80040BDE8F88F7848007801280B
:1041C00014D001211E23552208460094FFF70CFD50
:1041D0000921062001F05AF9D8E90012012370A044
:1041E00001F0E0F9BDE8F84F01F056B98BF8005046
:1041F0003570BAF900003860FDF7DEFB6A490860E7
:104200000E215B2001F042F968480123D0E9001239
:1042100001B05A48BDE8F04F113001F0C3B93C601D
:1042200089F8035034708BF8004001211E23552279
:1042300008460094FFF7D8FC0E215B2001F026F918
:104240005A480123D0E9001259A001F0ABF95A4CA9
:104250005A495B4D2068884205DDFCF727FA0B467A
:10426000024658A104E0FCF721FA0B46024657A18A
:10427000584800F013FA0721042001F007F9D5E9A6
:1042800000120123534801F08DF901F005F9DFF820
:1042900048B14FF480415846FDF784FB4F4FDFF89B
:1042A0004091504D58BBFCF7A7FE012827D120684C
:1042B000FCF7FCF94C4A4D4BFCF70CF8FCF722FAE2
:1042C00020603968FBF796FFFCF7F0F901F020F861
:1042D000FCF718FA06462860B9F90000FCF799F9CE
:1042E0003146FBF787FFD8F80410FBF7B5FFFCF762
:1042F000ABF9AAF80000FDF75FFB2B4908604FF40B
:1043000080515846FDF74EFB00287FF454AF3849E2
:1043100028688842FFF64FAF2068FCF7C7F9324A99
:10432000324BFCF778F8FCF7EDF920603968FBF7C1
:1043300061FFFCF7BBF900F0EBFFFCF7E3F9044683
:104340002860B9F90000FCF764F92146FBF752FF39
:10435000D8F80410FBF780FFFCF776F9AAF8000004
:10436000FDF72AFB1049086025E70000000801401E
:104370000800002048000020342C01409800002054
:104380003C0000200E0000208FC255407800002025
:104390004C4F5720424154540000000007000020B9
:1043A0004E4F20434F494C00240000207000002055
:1043B0002D2E2D2D410000001800002066661E41A4
:1043C0008000002025302E31665700002025302E39
:1043D0003166570059000020000C014020000020E9
:1043E0000C0000201C0000209A9999999999B93FD6
:1043F000CDCC4C3E2DE9F84FFCF7A2FC01217748CB
:10440000FDF7D0FA00240126754FDFF8D881DFF8D8
:10441000D891DFF8D8A1DFF8D8B1764D002855D073
:104420007549DBF80400884202DD9AF80200D8B131
:1044300001211E23552208460094FFF7D5FB0921D0
:10444000002001F023F86D480123D0E900126CA090
:1044500001F0A8F801F020F8C9F800408AF80260DD
:1044600088F800403C7060E068480078012814D06B
:1044700001211E23552208460094FFF7B5FB0921B0
:10448000062001F003F85D480123D0E9001260A086
:1044900001F088F801F000F847E05F483E7088F8C6
:1044A0000060B0F90010C9F80010FDF785FA5B490B
:1044B00008600E215B2000F0E9FF59480123D0E994
:1044C00000124A48113001F06DF82EE0C9F80040A2
:1044D00088F800403C7001211E23552208460094B4
:1044E000FFF782FB2868FCF7E1F802460B464DA176
:1044F0004E4800F0D3F80721042000F0C7FF4C48D5
:104500000123D0E90012494801F04CF80E215B204C
:1045100000F0BCFF42480123D0E9001245A001F0A1
:1045200041F800F0B9FF8AF80360444F4FF480412E
:104530003846FDF737FADFF80881DFF80891424E78
:1045400008BBFCF739FD01281DD12868FCF7AEF83F
:1045500042464B46FBF7BEFEFCF7D4F80446286003
:10456000B6F90000FCF755F82146FBF743FEDBF8EF
:104570000410FBF771FEFCF767F827490880FDF788
:104580001BFA264908604FF480513846FDF70AFAB5
:10459000002820D12D49286888421CDDFCF786F8C8
:1045A00042464B46FBF737FFFCF7ACF80446286061
:1045B000B6F90000FCF72DF82146FBF71BFEDBF8EF
:1045C0000410FBF749FEFCF73FF813490880FDF79C
:1045D000F3F912490860BDE8F88F000000080140B7
:1045E0000800002048000020342C014098000020E2
:1045F0003C000020140000208FC2554078000020AD
:104600004C4F572042415454000000000700002046
:104610004E4F20434F494C000E0000202400002044
:104620007000002025302E32665600005400002015
:10463000800000202D2E2D2D41000000000C014097
:104640007B14AE47E17A843F0C0000200AD7233C5C
:1046500010B50C484068FCF729F802460B460AA141
:104660000B4800F01BF833215B2000F00FFF0948D6
:104670000123D0E90012064800F094FFBDE8104085
:1046800000F00ABF3C000020252E326656000000D4
:104690004403002070000020FEE700000FB4084B28
:1046A00010B504A902AA039800F0E4F8044602A990
:1046B000002000F076FC204610BC5DF814FB0000E2
:1046C000A34F000802E008C8121F08C1002AFAD14F
:1046D00070477047002001E001C1121F002AFBD182
:1046E0007047000001490860704700006402002024
:1046F0002DE9FF5F82B00021DDE90430020DDDF815
:1047000040B0034318D044F61050A2F2FF324243A7
:104710001514119801281FD0A5EB0B00401C5FEA6F
:10472000000A4FF000064E4FDFF83891B046504671
:1047300015D5CAF1000413E0119801244AA30128F9
:1047400001D16FEA0B010298119AC0E90031C0E96A
:10475000024206B0BDE8F09FCBF10000DFE704465F
:104760000021404A491842EB0450CDE9001012E004
:10477000E00707D032463B4640464946FBF751FE2C
:104780008046894632463B4610461946FBF749FEAD
:1047900006460F466410002CEAD1DDE90401DDE98C
:1047A0000023BAF1000F06DAFBF73BFE42464B4608
:1047B000FBF737FE05E0FBF7A6FE42464B46FBF74C
:1047C000A2FE04460E460022284BFBF783FF03D8C7
:1047D0004FF0FF30014607E00022254B20463146CE
:1047E000FBF778FDFCF7F7F8102409E0002C0ADB52
:1047F0000A220023FBF7B8FF039B30321A55641ED0
:1048000050EA0102F2D1641C039AC4F1110314446A
:10481000119A012A03D0012208430DD10AE008436E
:1048200004D000204FF0110B119072E7A3EB0B05A1
:104830006D1E0DE05B4504DD4FF0000205F1010542
:1048400004E003DA4FF00002A5F10105002AECD0E4
:1048500002981199C0E90231C0E9004579E70000EA
:10486000000014400000F03F300000000000F04362
:104870000000E03F2DE9FF4F95B09B468946064674
:1048800000250FE2252877D100242746F84A012188
:10489000059400E0044316F8013F203B01FA03F0C1
:1048A0001042F7D130782A2811D06FF02F033078DA
:1048B000A0F13002092A16D8059A44F0020402EB4E
:1048C000820203EB42021044761C0590EFE759F890
:1048D000042B0592002A03DA504244F40054059058
:1048E00044F00204761C30782E2816D116F8010FF9
:1048F00044F004042A280DD06FF02F023078A0F184
:104900003003092B09D807EB870302EB4303C718D1
:10491000761CF3E759F8047B761C30786C280FD0AE
:1049200006DC4C2817D068280DD06A2814D104E082
:10493000742810D07A280FD10DE044F400140AE056
:1049400044F4801401E044F440147278824202D1AD
:1049500004F58014761C761C307866280BD013DCA6
:10496000582877D009DC002875D04528F6D046288D
:10497000F4D047281AD19DE118E0632835D0642887
:1049800079D0652812D195E1702873D008DC6728AA
:10499000F1D069286FD06E280DD06F2806D1B5E010
:1049A00073282CD0752875D0782874D05A4617995A
:1049B00090476D1C75E1C4F30250022809D003280A
:1049C0000DD0D9F8001004280DD00D6009F10409AC
:1049D00067E1D9F80010EA17C1E90052F6E7D9F803
:1049E00000100D80F2E70D70F0E719F8041B8DF848
:1049F000001000208DF80100EA46012003E059F87C
:104A000004AB4FF0FF3061074FF0000102D40DE01E
:104A100008F101018846B9420FDA8045F8DB1AF83F
:104A200008100029F4D108E008F10101884681420C
:104A3000FADB1AF808100029F6D105985B46A0EBBE
:104A4000080721463846179A00F094FA284400EBEC
:104A5000080507E04DE029E10DE01AF8010B5A4680
:104A600017999047B8F10108F7D25B4621463846BE
:104A7000179A13E142E00A220092C4F302524FF067
:104A8000000A022A08D059F804CB032A4FEAEC7135
:104A90000AD00DE029E02AE009F1070121F0070220
:104AA000F2E802C1914609E00FFA8CFC4FEAEC7182
:104AB000042A03D14FFA8CFC4FEAEC71002907DA83
:104AC0000A460021DCF1000C61EB02012D2202E01C
:104AD000220504D52B228DF80420012203E0E207F1
:104AE00001D02022F7E7904659E00A2102E0102287
:104AF0000DE010214FF0000A00910BE010224FF062
:104B0000000A44F004040827009203E008224FF052
:104B1000000A0092C4F30252022A05D059F804CBCD
:104B20000021032A08D009E009F1070121F007025A
:104B3000F2E802C1914605E01FFA8CFC042A01D17B
:104B40000CF0FF0C4FF00008220728D5702806D083
:104B5000009B83F0100353EA0A0305D00EE04022C5
:104B60008DF80420012208E05CEA010206D0302220
:104B70008DF804208DF8050002229046009B83F0FA
:104B8000080353EA0A030AD15CEA010201D1620771
:104B900005D530228DF804204FF001087F1E5828DB
:104BA00004D034A003900EA802900DE036A0F9E7DF
:104BB00053466046009AFBF7D7FD84460398825C13
:104BC0000298401E029002705CEA0100F0D1029847
:104BD00006A9081A00F1200A600702D524F48034DF
:104BE00000E00127574502DDA7EB0A0000E00020A6
:104BF00000EB0A01009005984144401A0590E0033B
:104C000006D45B462146179A059800F0B3F905448F
:104C1000002706E001A85A46C05D179990476D1C11
:104C20007F1C4745F6DBE0030CD55B462146179A0F
:104C3000059800F09FF9054404E030205A46179982
:104C400090476D1C0099481E00900029F5DC08E093
:104C5000029802995A460078491C02911799904788
:104C60006D1CBAF10001AAF1010AF1DC65E1000056
:104C70000928010030313233343536373839616232
:104C800063646566000000003031323334353637F6
:104C900038394142434445460000000000F058F9CD
:104CA0000544761C307800287FF4ECAD19B0284616
:104CB000BDE8F08F620700D4062709F1070222F051
:104CC000070CFCE80223E14603F000485FEA080C09
:104CD00002D00FF2702C0DE05FEA045C02D50FF2F7
:104CE000682C07E05FEAC47C02D00FF2602C01E080
:104CF000AFF2700C4FF0FF3823F00043CDF850C0F6
:104D000065280CD006DC452809D046281DD0472848
:104D10003DD13DE0662818D067287ED138E00021DB
:104D2000112F01DB112000E0781CCDE9000106A95C
:104D30000EA8FFF7DDFCDDE90F010E9A03910021BB
:104D4000009207F1010A04914DE04FF000400097F6
:104D5000CDE9011006A90EA8FFF7CAFCDDE90F0294
:104D600003920E9B11990022DDF80CA0009304928F
:104D700011B9791C00EB010AB7EB0A0004D4C0F1A9
:104D8000FF3007F1010A0490AAEB0700019044E00C
:104D9000012F00DA01270021112F01DD112000E091
:104DA0003846CDE9000106A90EA8FFF7A1FCDDE910
:104DB0000F010E9A0391002104910092BA46210737
:104DC0000CD40399514500DA8A46BAF1010F05DD8A
:104DD000009AAAF10101515C302908D0B84202DAE8
:104DE00010F1040F06DA0121CDE9011015E0AAF156
:104DF0000101E9E7002805DC049901440491AAEBCC
:104E0000000102E0411C514500DD8A460499401A28
:104E1000401C01904FF000400290200704D40198FC
:104E2000504501DBCDF8048000208DF84F0002983A
:104E30000DF14F07B0F1004F25D02B200E900298B6
:104E40004FF0020800280CDA404202902D200E900C
:104E500007E00A210298FBF771FC3031029007F855
:104E6000011DB8F10001A8F10108F2DC0298002848
:104E7000EFD1791E0E980870307800F0200040F0D5
:104E8000450007F8020D12A8C01B00F1070814988E
:104E9000007800B1012000EB0A01019801EBE071FC
:104EA00005984144401A401E0590E00306D45B4635
:104EB0002146179A059800F05DF80544149800788B
:104EC00018B15A46179990476D1CE00324D55B46EC
:104ED0002146179A059800F04DF805441CE0049807
:104EE000002807DBDDE90301884203DD0098405C10
:104EF000179901E0179930205A469047049805F118
:104F00000105401C04900198401E019004D12E2000
:104F10005A46179990476D1CBAF10001AAF1010A8F
:104F2000DDDC05E017F8010B5A46179990476D1C18
:104F3000B8F10001A8F10108F4DC5B462146179A9C
:104F40000598ABE62D0000002B00000020000000BB
:104F50002DE9F041044600251E461746880404D476
:104F600005E039462020B0476D1C641EF9D528465F
:104F7000BDE8F0812DE9F041044600251E4690462B
:104F8000C80301D5302700E02027880404D505E0B8
:104F900041463846B0476D1C641EF9D52846BDE829
:104FA000F0810A68531C0B601070704708B5FCF75D
:104FB00055FECA48416841F480714160FEF72FFFF9
:104FC000C74CE06940F08050E061FDF723FD606967
:104FD00040F0010060616069002200F00100009073
:104FE00011460B20FCF7AEFE0B20FCF79FFEFDF7F1
:104FF000D9FCFDF75FFDFDF779FDBA490322A1F168
:10500000C400FCF78BF9B74800214038FDF788FB56
:1050100000F0D4F9FBF794FEFBF75EFE00F03CFADB
:10502000B14CB4F90800FBF7F4FA2169FBF7E2F898
:1050300004F13808D8F80410FBF70EF9FBF704FB6D
:105040006081AA48416841F004014160FCF7B4FC6A
:10505000206204F12C010020FBF7B8FE04F13001BE
:105060000120FBF7B3FE04F124010220FBF7AEFEA2
:1050700004F134010320FBF7A9FE04F12801042008
:10508000FBF7A4FE94F8340020706070E06AFBF730
:10509000CEFA974D00222B46FBF735FAFBF732FB91
:1050A0002061206BFBF7C3FA00222B46FBF72BFA9B
:1050B000FBF728FB4FF07E5B01260025DFF834A2CA
:1050C000DFF83492C4F81400FEF778FCA089401C85
:1050D000A081FFF721F8A0796179884302D0A571FA
:1050E000A67001E0A07848B1002140238022084644
:1050F0000095FEF779FD00F0CFF9A5702078A0B9F2
:105100000921332000F0C2F9DAE9001201237BA063
:1051100000F048FA17238022194600200096FEF777
:105120008EFD00F0B9F9FDF733FD2078052801D197
:10513000FDF7FEFD2078062801D1FEF713FE20784A
:10514000012835D1FBF7C8FDB4F90800FBF761FA77
:105150002169FBF74FF84746D8F80410FBF77CF8B5
:10516000FBF772FA6081FFF773FAFEF773FC386899
:10517000584504DDE07850B9FEF798FCE6703868D1
:10518000584504DA207910B9E570FDF79DFEE07806
:10519000012801D1FEF700FCFFF72CF9FDF704FF11
:1051A000FBF76AFDA089062802D3FEF7CBFCA58198
:1051B0002078022843D1FBF78FFDE1696069FBF796
:1051C00019F8FBF773FA00F0A3F8FBF79BFA074610
:1051D000A061B4F90800FBF71CFA3946FBF70AF89E
:1051E0004746D8F80410FBF737F8FBF72DFA608133
:1051F000FFF72EFAFEF72EFC3868424FB84204DB68
:10520000E07810B9FEF752FCE670D8F80000B8421A
:1052100004DA207910B9E570FDF756FEE078012830
:1052200001D1FEF7B9FBFEF78DFFFDF7BDFEFBF7E1
:1052300023FDA089062802D3FEF784FCA5814FF444
:1052400000514F464846FCF7ADFB40B9207830B1DD
:10525000A67025706570A581FCF7AEFB2062082161
:105260003846FCF79FFB68B110213846FCF79AFBE3
:1052700040B160782070657110213846FCF792FBD0
:1052800058B119E00320207066710021402380226C
:1052900008460095FEF7A8FCEEE7607960B1322180
:1052A000312000F0F3F8DAE90012012316A000F033
:1052B00079F9FBF781FCA56208213846FCF772FBFF
:1052C00000287FF401AF607900283FF4FDAEFBF7C2
:1052D00073FCFCF771FB2062F6E6000000700040F2
:1052E000001002402C03002004000020002004E0F5
:1052F0000000594070000020000C01404D454E5503
:1053000000000000CDCC4C3F46554C4C0000000046
:105310002DE9F04106460F46FBF70CFB041E0D4637
:1053200018BF0120284320F00040C0F17F6000F149
:10533000E040C00F0ED0301C18BF0120384320F0D1
:105340000040C0F17F6000F1E040C00F04BF0120C9
:10535000FFF7C8F920462946BDE8F08170B58028DE
:1053600013D2402911D20B4B012401F007051E79FD
:10537000AC40094BC90800EBC1100EB132B101E0DD
:10538000012A03D0195CA143195470BD195C214353
:10539000FAE70000900000209403002010B5064AB0
:1053A00000214FF4806328B1FF245454491C9942D2
:1053B000F9D310BD0024F8E79403002010B5642051
:1053C000FCF746F9AE2000F0DBF8202000F0D8F81A
:1053D000102000F0D5F8B02000F0D2F8C82000F07E
:1053E000CFF8002000F0CCF8102000F0C9F84020E1
:1053F00000F0C6F8812000F0C3F8FF2000F0C0F8EC
:10540000A12000F0BDF8A62000F0BAF8A82000F016
:10541000B7F83F2000F0B4F8A42000F0B1F8D32092
:1054200000F0AEF8002000F0ABF8D52000F0A8F8AE
:10543000F02000F0A5F8D92000F0A2F8222000F01A
:105440009FF8DA2000F09CF8122000F099F8DB2099
:1054500000F096F8202000F093F88D2000F090F8EE
:10546000142000F08DF8AF2000F08AF80020FFF73C
:1054700095FF00F011F804480021018041800121CE
:105480004171084610BD000090000020014A1080C4
:105490005180704790000020FEB5002464250F4F16
:1054A000802600BF04F1B000C0B200F069F800200F
:1054B00000F066F8102000F063F807EBC410CDE9A7
:1054C000000601234022782102950548FCF7FEFAE8
:1054D000641CE4B2082CE5D3FEBD00009403002058
:1054E000980200202DE9FF4F834624489246CEB211
:1054F00002883244802A06D281464088C1F30727B9
:105500003844402803D3002004B0BDE8F08F0025C4
:1055100028E000BFABF1200000FB075000243AF860
:1055200010801CE008FA04F0000409D5B9F8021054
:10553000B9F800002944204489B280B2039A0BE0F4
:105540000398C0B15FF00002B9F80210B9F800008A
:105550002944204489B280B2FFF700FF641CA642B0
:10556000E0D86D1CAF42D5D8B9F800105846314488
:10557000A9F80010C8E70122E6E70000900000202B
:1055800001B584B001210A2204A88DE807000B466A
:10559000002278210248FCF799FA05B000BD00000E
:1055A00098020020F0B51D460E46174604460AE054
:1055B0002B463A463146FFF795FF2178884201D0C5
:1055C000C8B2F0BD641C20780028F1D1C0B2F0BD93
:1055D00000000000000000000102030406070809A3
:1055E00000000000010203040000000000000000B1
:1055F000000000000000000000000000001000108B
:10560000001000100010001000000010000000004A
:105610000028002800280000000000000000000012
:105620000000000000240024007C00240048007CCE
:1056300000480048000000000038005400500038C6
:1056400000140054005400380010000000200054E2
:10565000005800300028005400140008000000002A
:1056600000100028002800100034004800480034D2
:1056700000000000001000100010000000000000FA
:1056800000000000000000000008001000200020C2
:105690000020002000200020001000080020001042
:1056A000000800080008000800080008001000209A
:1056B000001000380010002800000000000000006A
:1056C000000000000000000000100010007C00102E
:1056D00000100000000000000000000000000000BA
:1056E000000000000000001000100010000000008A
:1056F0000000000000000038000000000000000072
:105700000000000000000000000000000000001089
:105710000000000000080008001000100010001039
:105720000020002000000000003800440044005425
:105730000044004400440038000000000010003025
:1057400000500010001000100010001000000000B9
:105750000038004400440004000800100020007CD1
:105760000000000000380044000400180004000499
:10577000004400380000000000080018002800283D
:105780000048007C0008000800000000007C004089
:1057900000400078000400040044003800000000CD
:1057A00000380044004000780044004400440038C1
:1057B00000000000007C0004000800100010002021
:1057C00000200020000000000038004400440038A1
:1057D0000044004400440038000000000038004449
:1057E00000440044003C0004004400380000000075
:1057F0000000000000100000000000000000001089
:105800000000000000000000000000100000000088
:10581000000000100010001000000000000C00301C
:1058200000400030000C00000000000000000000FC
:105830000000007C0000007C000000000000000070
:105840000000000000600018000400180060000064
:1058500000000000003800440004000800100010A0
:10586000000000100000000000380044004C00540C
:10587000005C0040004000380000000000100028DC
:10588000002800280028007C00440044000000009C
:10589000007800440044007800440044004400784C
:1058A000000000000038004400400040004000407C
:1058B000004400380000000000700048004400442C
:1058C000004400440048007000000000007C0040DC
:1058D0000040007C004000400040007C00000000D0
:1058E000007C004000400078004000400040004044
:1058F000000000000038004400400040005C00440C
:105900000044003800000000004400440044007CD3
:10591000004400440044004400000000003800102F
:1059200000100010001000100010003800000000EF
:1059300000040004000400040004000400440038D3
:105940000000000000440048005000600050004883
:1059500000480044000000000040004000400040BB
:10596000004000400040007C000000000044006C4B
:10597000006C005400440044004400440000000057
:1059800000440064006400540054004C004C004487
:10599000000000000038004400440044004400447B
:1059A0000044003800000000007800440044004437
:1059B0000078004000400040000000000038004433
:1059C0000044004400440044005400380004000037
:1059D0000078004400440044007800480048004437
:1059E00000000000003800440040003000080004BF
:1059F0000044003800000000007C0010001000107F
:105A000000100010001000100000000000440044CE
:105A100000440044004400440044003800000000FA
:105A20000044004400440028002800280010001012
:105A30000000000000440044005400540054006C76
:105A40000028002800000000004400280028001062
:105A5000001000280028004400000000004400441A
:105A600000280028001000100010001000000000A6
:105A7000007C000400080010001000200040007CA2
:105A800000000000001800100010001000100010AE
:105A9000001000100010001800200020001000105E
:105AA0000010001000080008000000000030001086
:105AB0000010001000100010001000100010003046
:105AC0000010002800280044000000000000000032
:105AD00000000000000000000000000000000000C6
