:020000040800F2
:10000000281500200101000869430008F5360008A2
:10001000893E00084D0C00083D6D000800000000FE
:100020000000000000000000000000003F62000827
:100030007D0D00080000000011440008F56800086C
:100040001B0100081B0100081B0100081B01000820
:100050001B0100081B010008990F00081B01000884
:100060001B0100081B0100081B010008410D0008CE
:100070001B0100081B0100081B0100081B010008F0
:100080001B0100081B0100081B0100081B010008E0
:100090001B0100081B0100081B0100081B010008D0
:1000A0001B0100081B0100081B0100081B010008C0
:1000B0001B0100081B0100081B0100081B010008B0
:1000C0001B0100081B0100081B0100081B010008A0
:1000D0001B0100081B0100081B0100081B01000890
:1000E0001B0100081B0100081B010008DFF80CD0F1
:1000F00000F0C4FC00480047757D0008281500206A
:100100000648804706480047FEE7FEE7FEE7FEE7B1
:10011000FEE7FEE7FEE7FEE7FEE7FEE7DD69000833
:10012000ED000008202A04DB203A21FA02F0002129
:10013000704721FA02F3D040C2F1200291400843F7
:1001400019467047F0B480EA0102D40F4200B2EBC6
:10015000410F02D20246084611464A0042D0C30D62
:10016000DDB2C1F3C752AD1A202D35DAC1F3160145
:1001700041F4000204B15242C5F1200602FA06F130
:100180002A411044B3EBD05F23D0C4B1012DA0EBC2
:10019000C35009DCF0BC4FF0004202EAC352DBB2AC
:1001A00000F5000000F075BB400000F1807000EB2E
:1001B000C350A0F1807040EAD170490009E04908BD
:1001C00041EAC071A0EBC35000F50000400800EB0D
:1001D000C350F0BC00F054BB6142012202EB41016C
:1001E000001BF6E7F0BC704781F00041AAE780F001
:1001F0000040A7E780EA010210B502F0004340008A
:1002000022D04A001FD0010E01EB1261C0F356004C
:10021000C2F3560240F4000042F40002A0FB0220A8
:1002200000047F39140400D0401C50EA124001D46D
:100230004000491EC2B20C0604EBD010401C40081E
:10024000802A02D003E0002010BD20F00100002928
:1002500000DA0020184310BD30B480EA010202F039
:10026000004530F0004221F0004013D090B1C30DA2
:10027000D40DC2F31601C0F31600E41A41F40001D4
:1002800040F400027D34914201D3641C00E0490037
:10029000002C02DA30BC002070474FF4000000232D
:1002A000914201D3891A034340084FEA4101F7D133
:1002B00051B1914202D14FF0004105E002D24FF01E
:1002C000010101E06FF0010103EBC450284430BC90
:1002D00000F0D6BA2DE9FE4F804681EA0300C00F38
:1002E0000C46009021F0004123F00045B8EB0200DD
:1002F000A94105D24046214690461C460B4602467F
:1003000023F00040104347D0270DC7F30A00C3F382
:100310000A510290401A019040286BDAC3F313008F
:1003200040F4801B0098924620B10023D2EB030AD0
:1003300063EB0B0B01985946C0F14002504600F0A8
:100340007EFA06460D4650465946019A00F086FA56
:1003500010EB08006141002487EA115284EAE77338
:100360001A4340D0009A62B3019A012A4FEA075219
:1003700015DC001B61EB02014FF0004202EA07525C
:10038000CDE90042001C41F5801132462B4600F0B9
:10039000BDFA03B0BDE8F08F40462146F9E7001BE7
:1003A00061EB0201001C41F5801300185B4120182D
:1003B000A2F5001747EB030140EAD570B6196D416D
:1003C00011E06D084FEA360645EAC0754FEA07525C
:1003D000001B61EB0201001C41F5801149084FEA46
:1003E00030000019514132462B4603B0BDE8F04FB2
:1003F00000F07DBA0098012240000023D0EB0202F9
:1004000063EBE073009821464FEAE074B8EB00001C
:1004100061EB0401E9E783F000435BE781F0004111
:1004200058E72DE9FE4F81EA030404F0004421F06F
:10043000004100944FF0000B23F0004350EA010408
:100440005ED052EA03045BD0C3F30A54C1F30A55E9
:100450002C44A4F2F3340194A0FB0254C1F3130121
:1004600041F48011C3F3130343F4801301FB0244EE
:1004700000FB034E840A970A44EA815447EA8357F3
:10048000A4FB076802958D0A05FB07854FEA932CAC
:1004900004FB0C542705029D4FEA065847EA16371D
:1004A000B5EB08056EEB070C870E920E47EA811735
:1004B00042EA8312A7FB0201B6EB0B0164EB0004D6
:1004C0002B0D43EA0C335E1844EB1C50DA465146C0
:1004D000E7FB0201C5F313044FEA0B3343EA14535D
:1004E0004FEA0432019C43EA0603A4F10C0402948F
:1004F000009CCDE900B400F009FA03B0BDE8F08F2C
:1005000000200146F9E72DE9F04D81EA030404F0EB
:10051000004B21F0004514464FF0000A23F0004143
:1005200050EA050220D054EA01021DD0C5F30A5753
:100530000246C5F31303C1F31300C1F30A5640F496
:10054000801543F48013A7EB0608101BD64608F26B
:10055000FD3873EB050002D308F1010801E09218A1
:100560005B41B8F1000F03DA00200146BDE8F08DD1
:1005700000204FF48011064684460EE0171B73EBF3
:10058000050705D3121B63EB050306434CEA010C78
:1005900049084FEA300092185B4150EA0107EDD15B
:1005A00052EA030012D082EA040083EA05010843FC
:1005B00005D0101BAB4106D20122002306E0002229
:1005C0004FF0004302E06FF0010253101AEB0600F7
:1005D0004CEB085110EB0A0041EB0B01BDE8F04D6C
:1005E00000F085B9C10F80EAE0700844CA0796237D
:1005F000002100F04EB996230022114600F049B9BF
:100600000EB5C10F80EAE0700844CA07002140F22D
:1006100033438DE80E000A460B4600F077F903B02D
:1006200000BD0EB540F2334102910021CDE9001129
:100630000A460B4600F06AF903B000BD00F0004224
:1006400020F00040C10DC0F3160040F400007F29E7
:1006500001DA00207047962903DCC1F19601C840F9
:1006600001E096398840002AF4D04042704720F0DB
:100670000040C10DC0F3160040F400007F2901DAEC
:1006800000207047962903DCC1F19601C8407047ED
:10069000963988407047C1F30A5210B5C1F313016F
:1006A00040F2FF3341F480119A4201DA002010BD7C
:1006B00040F233439A42A2F2334203DC5242FFF744
:1006C00031FD10BD904010BD00F0004230F0004000
:1006D0000AD0C10D01F56071C0F3160042EA015164
:1006E000C2084007114370470020014670470000D0
:1006F00030B5041E71F1000404DB4FF000444042A9
:1007000064EB0101141E73F1000405DB1C464FF07D
:100710000043524263EB04038B4208BF824230BD68
:1007200030B5041E71F1000404DB4FF00044404278
:1007300064EB0101141E73F1000405DB1C464FF04D
:100740000043524263EB0403994208BF904230BD1C
:1007500001F0004330B421F0004150EA010206D01C
:100760000A0DA2F56072C1F31301002A02DC30BC4D
:1007700000207047440F44EAC104C100E01830BCB7
:1007800000EBC25000F07CB8002801DBC0F1004053
:10079000002901DBC1F1004181427047002801DBE3
:1007A000C0F10040002901DBC1F1004188427047DF
:1007B00030B50B46014600202022012409E021FA31
:1007C00002F59D4205D303FA02F5491B04FA02F52E
:1007D0002844151EA2F10102F1DC30BD2DE9F05FC5
:1007E0000546002092469B468846064681464024A0
:1007F0001BE02846414647462246FFF793FC5346F6
:100800005A46C01A914110D311461846224600F0AC
:1008100016F82D1A67EB01084F46224601200021E9
:1008200000F00DF817EB00094E41201EA4F1010461
:10083000DFDC484631462A464346BDE8F09F202A81
:1008400004DB203A00FA02F1002070479140C2F127
:10085000200320FA03F3194390407047202A06DB57
:10086000CB17203A41FA02F043EAE07306E041FA7E
:1008700002F3D040C2F1200291400843194670476C
:100880000029A8BF7047401C490008BF20F00100A4
:10089000704710B4B0FA80FC00FA0CF050EA010482
:1008A00004BF10BC704749B1CCF1200421FA04F414
:1008B00011FA0CF118BF012121430843A3EB0C01ED
:1008C000CB1D4FEA00614FEA102042BF002010BC50
:1008D000704700EBC35010440029A4BF10BC704700
:1008E000401C490008BF20F0010010BC704710B543
:1008F000141E73F1000408DA401C41F10001921843
:100900005B411A4301D120F0010010BD2DE9F04DEB
:1009100092469B4611B1B1FA81F202E0B0FA80F240
:1009200020329046FFF78BFF04460F4640EA0A004C
:1009300041EA0B0153465A46084313D0114653EA85
:10094000010019D0C8F140025046FFF7EBFB054605
:100950000E46504659464246FFF771FF084305D000
:10096000012004E020463946BDE8F08D0020054313
:1009700046EAE0762C4337430A986305E40AA0EB85
:1009800008000022FD0A44EA47540A3002D500203C
:100990000146E9E7010510196941DDE9084500193B
:1009A0006941BDE8F04DA2E72DE9F04D00231A465C
:1009B0001B1A8A4103DB00200146BDE8F08DC1F31C
:1009C0000A52C1F3130141F480154FF0000BD10717
:1009D00002D100186D41521E0027044640F2FF115B
:1009E000384601EB620A3E468046024600204FF43C
:1009F0008011FFF797FBC2197141BB1846EB01004C
:100A0000B4EB030C75EB000C04D3E41A65EB0005A2
:100A100017460E46241908F101006D41804634281E
:100A2000E3DDF91946EB0600091BA84103D24FF09C
:100A3000FF32134601E0002213461BEB070046EB92
:100A40000A51BDE8F04DFFF752BFC1F30A52C1F39E
:100A5000130140F2FF3341F480119A4202DA002080
:100A60000146704740F233439A42A2F2334202DC1D
:100A70005242FFF757BBFFF7E2BE0000064C074D9E
:100A800006E0E06840F0010394E80700984710345E
:100A9000AC42F6D3FFF72EFBE4F1000804F20008A5
:100AA00070B58C1810F8015B15F0070301D110F830
:100AB000013B2A1106D110F8012B03E010F8016B5D
:100AC00001F8016B5B1EF9D12B0705D40023521EE0
:100AD0000DD401F8013BFAE710F8013BCB1A921C48
:100AE00003E013F8015B01F8015B521EF9D5A14246
:100AF000D8D3002070BD70B50446002520688068FA
:100B000000F00100F0B12068806820F00100216849
:100B1000886001F02DFA05460EE001F029FA401B2D
:100B2000022809D9A06A40F01000A062E06A40F0F3
:100B30000100E062012070BD2068806800F00100C3
:100B40000028EAD10020F6E770B505466C6AA06A75
:100B500000F05000E0B9A06A40F40070A062206884
:100B6000806800F46020B0F5602F0DD1E06858B9BE
:100B7000A06A20F48070A062A06A00F4805018B9C6
:100B8000A06A40F00100A062204600F037FC03E0BC
:100B9000206A016B2846884770BD70B505466C6AAF
:100BA000A06A40F04000A062E06A40F00400E06209
:100BB000204600F03EFC70BD70B50446656A2846CC
:100BC00000F036FC70BD000038B50446002500205A
:100BD00000902068806800F0010080BB2068806879
:100BE00040F0010021688860164800681649B0FB93
:100BF000F1F0009002E00098401E0090009800285C
:100C0000F9D101F0B5F9054613E001F0B1F9401B47
:100C100002280ED9A06A40F01000A062E06A40F0FD
:100C20000100E06200BF002084F8240000BF012022
:100C300038BD2068806800F001000028E5D0002061
:100C4000F6E70000A803002040420F0000BFFEE7C7
:100C500038B501201423612219460090182005F0B0
:100C60003EFA01202C23612219460090182005F03D
:100C700036FA01202B23172215210090104605F08B
:100C80002EFA01202B23622215210090104605F038
:100C900026FA01202723632219210090104605F02F
:100CA0001EFA01202723642219210090104605F026
:100CB00016FA0120262365221A210090104605F01D
:100CC0000EFA03F053FE0F494868FFF7FDFC044697
:100CD00022460B460CA10E4806F0C4FB06212D202F
:100CE00007F030FC01230B4806C8094807F020FD37
:100CF00007F02EFC01200849087000200749087001
:100D000038BD000004000020252E32665600000089
:100D1000E4040020840000205D0000205E03002029
:100D200005480078012806D104480078012802D13E
:100D30000020024908707047580000205F0300201F
:100D400010B5024800F02EFD10BD0000E0030020A9
:100D500030B590F840500124AC40C56B6C6004681D
:100D600063604468102C04D10468A2600468E160E8
:100D700003E00468A1600468E26030BD704708B514
:100D8000012024234D2219460090042005F0A7F9E4
:100D900001203C234D2219460090042005F09FF9C4
:100DA00001203B23032225210090104605F097F9EE
:100DB00001203B234E2225210090104605F08FF99B
:100DC000012037234F2229210090104605F087F992
:100DD00001203723502229210090104605F07FF989
:100DE0000120362351222A210090104605F077F980
:100DF00008BD08B5012040238022194600905920E3
:100E000005F06DF901200023802219460090592039
:100E100005F065F901204023802200210090104652
:100E200005F05DF901202123802219460090592008
:100E300005F055F90120402358220021009010466A
:100E400005F04DF908BD000000B585B000F0CCFEFE
:100E50000120039001900B4802900020009004A90B
:100E6000684600F007FE48B900F05CFE0498401C9C
:100E700010B1002005B000BD0120FBE700F052FEDC
:100E80000020F7E700F001080246B2F5007F01DB21
:100E900000207047024B53F8220008600120F8E759
:100EA00000F001080246B2F5007F01DB0020704728
:100EB000024B53F8220008600120F8E700F0010817
:100EC00030B503465818B0F5007F01DD002030BD75
:100ED000184606E0054D55F820401460121D441CCC
:100EE000A0B2CC188442F5DC0120F0E700F0010844
:100EF0002DE9F04104460D46B4F5007F02DB0020E9
:100F0000BDE8F081224951F82400401C38B3214A41
:100F100089140020FFF7D4FF18B900F003FE002069
:100F2000EEE71C4840F82450FFF78EFF00F05CFE0F
:100F3000002611E0174850F82670154800EB86018E
:100F40003A460023022000F0F7FD18B100F0EAFD58
:100F50000020D5E7701C86B2B6F5007FEADB00F012
:100F600043FE681C80B10A4800EB84012A46002336
:100F7000022000F0E1FD18B900F0D4FD0120BFE728
:100F800000F0D0FD0020BBE700F0CCFD0120B7E76A
:100F900000F001080809002010B5012000F03EFE15
:100FA00010BD00000021074AD1610749096941F0DD
:100FB0000401054A11611146096941F040011161BE
:100FC0007047000008110020002002400021074A5D
:100FD000D1610749096941F00201054A11611146D1
:100FE0004861096941F04001116170470811002012
:100FF000002002400022054BDA61054A126942F0E6
:101000000102034B1A6101807047000008110020A3
:101010000020024000201E49C96801F0100139B1CA
:101020001C49C96941F002011A4AD16140F010001F
:101030001749C96801F0040139B11649C96941F07D
:101040000101144AD16140F004001149C96901F05D
:10105000010169B10F49C96941F004010D4AD1612B
:1010600000BF0B49C96921F00101094AD16100BFE4
:1010700000BF40F20111884206D10549C96921F03B
:101080000101034AD16101E00149C86000BF704716
:10109000002002400811002070B5044600F068FFEF
:1010A000054609E0601C38B124B100F061FF401B27
:1010B000A04201D9032070BD1248C06800F00100B1
:1010C0000028EFD10F48C06800F0200020B100BF19
:1010D00020200C49C86000BF0A48C06800F010001A
:1010E00048B90848C06900F0010020B90548C06847
:1010F00000F0040018B1FFF78DFF0120DBE70020AE
:10110000D9E70000002002402DE9F0470C4948686B
:10111000FFF7DAFA06460B4A0B4BFFF77CF9044659
:101120000D460A480068FFF7CFFA804622462B4654
:10113000FFF7F6FA02D20020BDE8F0870120FBE7B6
:10114000040000209A9999999999B93F3400002098
:101150002DE9F0470C494868FFF7B6FA06460B4AF6
:101160000B4BFFF758F904460D460A480068FFF795
:10117000ABFA804622462B46FFF7D2FA02D2002075
:10118000BDE8F0870120FBE704000020B81E85EBD6
:1011900051B8AE3F3C000020F8B5044600260020C0
:1011A000009000BF94F82400012801D10220F8BD6E
:1011B000012084F8240000BF2046FFF79CFC06466F
:1011C000002E62D1A06A20F4885040F00200A06294
:1011D000022001F091F930490968B1FBF0F04000BC
:1011E000009002E00098401E009000980028F9D17D
:1011F0002046FFF7E9FC2068806840F0080021687D
:10120000886000F0B5FE054611E000F0B1FE401B1D
:101210000A280CD9A06A20F0020040F01000A06259
:1012200000BF002084F8240000BF0120BFE7206831
:10123000806800F008000028E7D12068806840F04E
:1012400004002168886000F093FE054611E000F07C
:101250008FFE401B0A280CD9A06A20F0020040F043
:101260001000A06200BF002084F8240000BF01200D
:101270009DE72068806800F004000028E7D1A06A9C
:1012800020F0020040F00100A06200BF002084F8BE
:10129000240000BF30468AE7A803002038B5024684
:1012A00000230020009000BF92F82400012801D103
:1012B000022038BD012082F8240000BF48680728BA
:1012C00012D21068406B0C79641E04EB84051F2455
:1012D000AC40A0430D796D1E05EB85050C68AC4054
:1012E00020431468606327E048680D2812D2106814
:1012F000006B0C79E41F04EB84051F24AC40A04371
:101300000D79ED1F05EB85050C68AC402043146892
:10131000206311E01068C06A0C790D3C04EB840571
:101320001F24AC40A0430D790D3D05EB85050C68ED
:10133000AC4020431468E06208680A2812D31068A1
:10134000C0680C780A3C04EB44050724AC40A04379
:101350000D780A3D05EB45058C68AC4020431468C8
:10136000E0600FE0106800690C7804EB4405072486
:10137000AC40A0430D7805EB45058C68AC4020439C
:10138000146820610868102802D00868112827D145
:10139000174C1068A0421ED11068806800F400004D
:1013A000F0B91068806840F400001468A060086814
:1013B000102815D10F4800680F4CB0FBF4F000EB7B
:1013C00080004000009002E00098401E00900098CD
:1013D0000028F9D104E0906A40F0200090620123D7
:1013E00000BF002082F8240000BF184661E700001B
:1013F00000240140A803002040420F0070B50546BC
:101400000849286888420CD1002408E0064951F8B0
:101410002400FFF7F0F8054941F82400641C032C70
:10142000F4DB70BD00240140CC040020D80400206F
:10143000704770472DE9F04104460027002500263B
:10144000A84614B90120BDE8F081A06810B1606918
:1014500000B100BFA06A30B90020E06284F8240027
:10146000204600F089F82046FFF745FB0746A06AB2
:1014700000F01000002873D1002F71D1A06A20F471
:10148000885040F00200A062E16960680843E168AA
:1014900040EA41000643A068B0F5807F02D0A06812
:1014A000012802D14FF4807000E0002005436069FC
:1014B000012811D1E06838B9A069401E4FF40061DD
:1014C00041EA4030054307E0A06A40F02000A062F6
:1014D000E06A40F00100E0622068406820F4694062
:1014E00028432168486020688068214908403043CB
:1014F00021688860A068B0F5807F02D0A0680128CC
:1015000002D14FF4807000E00020B0F5807F03D15D
:10151000208A401E4FEA00582068C06A20F47000FC
:1015200040EA08002168C8622068806811490840C4
:10153000B04208D10020E062A06A20F0020040F032
:101540000100A06211E0A06A20F0020040F010004B
:10155000A062E06A40F00100E062012705E0FFE7D9
:10156000A06A40F01000A062012738466BE7000037
:10157000FDF7E1FFFE0E1FFF10B586B004461D49C2
:101580002068884233D100BF1B48806940F4007056
:10159000194988610846806900F40070019000BF15
:1015A00000BF302002900320039002A9134800F0EE
:1015B00043FB13481349086000204860002111488C
:1015C00081608021C1608900016189004161202121
:1015D00081610902C16100F0B3F918B176210AA056
:1015E00005F03EFF00BF07482062446200BF06B01E
:1015F00010BD00000024014000100240000801401E
:1016000008000240E00300202E2E2F5372632F7338
:10161000746D3332663178785F68616C5F6D7370BA
:101620002E6300002DE9F04104460D4616460027C2
:1016300057492068884203D056492068884205D11E
:101640005348001D006800F4702000E000200028CE
:101650007ED100BF94F82400012802D10220BDE809
:10166000F081012084F8240000BF2046FFF7ACFA87
:101670000746002F6DD1A06A40F60161884340F40F
:101680008070A06243492068884209D14048001D0B
:10169000006800F4702008B9012002E0002000E09A
:1016A000012078B1A06A20F48010A0622068406810
:1016B00000F4806000B3A06A20F4005040F4805031
:1016C000A06219E0A06A40F48010A062304920684E
:1016D000884203D02F492068884205D12C48001D3C
:1016E000006800F4806000E0002028B1A06A20F4C7
:1016F000005040F48050A062A06A00F4805020B1F5
:10170000E06A20F00600E06201E00020E06200BF35
:10171000002084F8240000BF1F48216A88621F4807
:10172000216AC8621E48216A08636FF002002168BE
:1017300008602068806840F48070216888602268B2
:1017400002F14C0133462A46206A00F031F901E0EB
:101750001AE014E02068806800F46020B0F5602F83
:1017600006D12068806840F4A000216888600CE001
:101770002068806840F480102168886005E000BF20
:10178000002084F8240000E00127384667E70000C5
:101790000024014000280140490B0008B90B000853
:1017A0009B0B000870B50446E06B0568206806686E
:1017B00094F84010042088402840002846D006F0C5
:1017C0000400002842D02068006800F0200028B9FA
:1017D0002068006820F004002168086057492068EC
:1017E000884201D1042027E05449143120688842FE
:1017F00001D1402020E0514928312068884201D1A0
:10180000001519E04D493C312068884202D14FF45F
:10181000804011E0494950312068884202D14FF49C
:10182000802009E0454964312068884202D14FF4A4
:10183000800001E04FF08060404908394860E06A6C
:1018400000287AD02046E16A884776E094F8401074
:10185000022088402840A0B306F0020088B3206828
:10186000006800F0200040B92068006820F00A00FD
:1018700021680860012084F82100304920688842EE
:1018800001D1022028E02D4914312068884201D17D
:10189000202021E0294928312068884201D14015C3
:1018A0001AE026493C312068884202D14FF40050AA
:1018B00012E0224950312068884203D14FF40030B1
:1018C0000AE017E01D4964312068884202D14FF4D4
:1018D000001001E04FF0007018490839486000BF5F
:1018E000002084F8200000BFA06A30B32046A16A1F
:1018F000884722E094F84010082088402840E0B152
:1019000006F00800C8B12068006820F00E002168C9
:10191000086094F8401001208840E16B4860012085
:10192000A06384F8210000BF002084F8200000BFDD
:10193000206B10B12046216B884770BD0800024023
:101940000146002209B901207047184B0868C01AE7
:101950001423B0FBF3F08000086414480838C8630F
:10196000022081F821000868026843F6F070824383
:10197000D1E901031843CB6818430B6918434B693D
:1019800018438B691843CB69184302430868026007
:1019900000208862C862086348638863012081F878
:1019A0002100002081F8200000BFCDE708000240A0
:1019B0002DE9F04104460D4616461F464FF000083B
:1019C00000BF94F82000012802D10220BDE8F08178
:1019D000012084F8200000BF94F8210001282CD1B8
:1019E000022084F821000020A0632068006820F015
:1019F0000100216808603B46324629462046FFF731
:101A0000A7F9E06A30B12068006840F00E00216854
:101A100008600BE02068006820F00400216808607E
:101A20002068006840F00A002168086020680068AB
:101A300040F001002168086006E000BF002084F843
:101A4000200000BF4FF002084046BFE770B50446D3
:101A500000F08EFA06462546681C10B1044800784E
:101A6000054400BF00F084FA801BA842FAD370BD81
:101A7000A40300202DE9F04104460E46012700256D
:101A800000BF2648007E012802D10220BDE8F08177
:101A900001202249087600BF2068022813D14CF2A9
:101AA0005030FFF7F9FA90BB0120FFF77BFA4CF2B8
:101AB0005030FFF7F1FA07461948006920F004009A
:101AC0001749086123E04CF25030FFF7E5FAF0B90E
:101AD0004FF0FF303060A56812E02846FFF776FA35
:101AE0004CF25030FFF7D8FA07460D48006920F055
:101AF00002000B4908610FB1356007E005F580650C
:101B0000D4E9021001EB8020A842E6D800BF00BF54
:101B100000200249087600BF3846B7E708110020C8
:101B2000002002400348006940F08000014908613C
:101B300000207047002002402DE9FE4F05468B46ED
:101B400017469846012600240020029000BF244832
:101B5000007E012802D10220BDE8FE8F012020492D
:101B6000087600BF4CF25030FFF796FA064686BB67
:101B7000012D02D10120029006E0022D02D10220A7
:101B8000029001E00420029000241EE02201B946E8
:101B9000C24648465146FEF7C5FA80B2019002207F
:101BA00000FB04B000900199FFF724FA4CF250308A
:101BB000FFF772FA06460B48006920F00100094958
:101BC000086106B104E0601CC4B202988442DDDB07
:101BD00000BF00BF00200249087600BF3046BBE7C7
:101BE000081100200020024000200849096901F086
:101BF000800151B10649054A5160064951601146BC
:101C0000096901F0800101B1012070470020024004
:101C100023016745AB89EFCD7047000010B504463E
:101C200004480068204020B1024804602046FFF7C5
:101C3000F3FF10BD140401402DE9F84703460024CA
:101C4000002000258446002700226EE14FF00108A5
:101C500008FA02F4D1F8008008EA0400A0427DD11D
:101C6000DFF8D0A2D1F80480A8EB0A09D0453AD019
:101C700014DCB8F1030F50D009DCB8F1000F31D0FB
:101C8000B8F1010F1CD0B8F1020F49D120E0B8F132
:101C9000110F18D0B8F1120F42D11EE0B9F5881F0C
:101CA00025D006DCB9F5803F20D0B9F5801F37D1AB
:101CB0001AE0B9F5001F18D0B9F5041F30D117E0AC
:101CC000D1F80CC02DE0D1F80C8008F1040C28E00C
:101CD000D1F80C8008F1080C23E0D1F80C8008F151
:101CE0000C0C1EE000BF00BF00BF00BF00BF00BF64
:101CF000D1F80880B8F1000F02D14FF0040C0BE0CE
:101D0000D1F80880B8F1010F03D14FF0080C1C6125
:101D100002E04FF0080C5C6103E04FF0000C00E0C3
:101D200000BF00BFFF2801D8984601E003F1040876
:101D30004646FF2802D84FEA820803E0A2F10808CD
:101D40004FEA88084746D6F800804FF00F0909FA95
:101D500007F928EA09080CFA07F900E088E048EAE0
:101D60000908C6F80080D1F8048008F08058B8F15E
:101D7000805F7DD100BFDFF8C081D8F8188048F0BF
:101D80000108DFF8B491C9F81880C846D8F818805F
:101D900008F00108CDF8008000BF00BF4FEAB93855
:101DA0004FEA920958F829504FEA82784FEA187999
:101DB0004FF00F0808FA09F825EA0805DFF87C81DA
:101DC000434502D14FF0000816E0DFF87481434527
:101DD00002D14FF001080FE0DFF86881434502D1DE
:101DE0004FF0020808E0DFF86081434502D14FF070
:101DF000030801E04FF004084FEA82794FEA1979AD
:101E000008FA09F848EA0505DFF840814FEA920927
:101E100048F82950D1F8048008F48038B8F5803F9C
:101E20000AD1DFF82C81D8F8008048EA0008DFF8F2
:101E30002091C9F8008009E0DFF81481D8F800800B
:101E400028EA0008DFF80891C9F80080D1F804807A
:101E500008F40038B8F5003F10D1DFF8F48008F13D
:101E60000408D8F8008048EA0008DFF8E49000E0B1
:101E70005AE009F10409C9F800800DE0DFF8D080CC
:101E800008F10408D8F8008028EA0008DFF8C090BC
:101E900009F10409C9F80080D1F8048008F4801819
:101EA000B8F5801F0ED1DFF8A88008F10808D8F82F
:101EB000008048EA0008DFF8989009F10809C9F89D
:101EC00000800DE0DFF8888008F10808D8F800806D
:101ED00028EA0008DFF8789009F10809C9F80080BD
:101EE000D1F8048008F40018B8F5001F0ED1DFF80F
:101EF000608008F10C08D8F8008048EA0008DFF894
:101F0000509009F10C09C9F800800DE0DFF840801D
:101F100008F10C08D8F8008028EA0008DFF83090B3
:101F200009F10C09C9F80080521C102AFFF48EAE8A
:101F3000BDE8F887000011100010024000080140C1
:101F4000000C014000100140001401400800014055
:101F500000040140024693680B400BB1012000E0F1
:101F6000002070470AB1016101E00B040361704772
:101F700001480068704700009C030020054909687B
:101F800001600449091D0968416002490831096876
:101F900081607047E8F7FF1F70B5044600260025F2
:101FA0000CB9012070BD94F83D0028B9002084F8D8
:101FB0003C00204600F072F9242084F83D0020689F
:101FC000006820F001002168086000F097FC0546D9
:101FD0004C496068884206D84B48854201D20120AE
:101FE00007E0002005E04948854201D2012000E0D9
:101FF0000020012800D1D5E74548B5FBF0F6206860
:10200000466040496068884201D8701C07E04FF480
:10201000967070434FF47A71B0FBF1F0401C216868
:10202000086238496068884214D8681E61684900AF
:10203000B0FBF1F0401CC0F30B00042801D20420D7
:102040003DE0681E61684900B0FBF1F0401CC0F340
:102050000B0034E0A06838B9681E616801EB4101EB
:10206000B0FBF1F0401C0AE0681E616801EBC102A0
:1020700002EB0111B0FBF1F0401C40F48040C0F3D2
:102080000B0008B901201AE0A06848B9681E616811
:1020900001EB4101B0FBF1F0401CC0F30B000CE080
:1020A000681E616801EBC10202EB0111B0FBF1F0A7
:1020B000401CC0F30B0040F4804040F40040216815
:1020C000C861D4E90701084321680860D4E9031016
:1020D000084321688860D4E9050108432168C86085
:1020E0002068006840F0010021680860002020643A
:1020F000202084F83D000020206384F83E0000BFCB
:1021000050E70000A086010080841E0000093D0009
:1021100040420F002DE9FC5F04460F469046994669
:10212000DDE90CAB0E9E0025FFF722FF054694F873
:102130003D0020287ED119230122564920460095D2
:1021400001F08FFB10B10220BDE8FC9F00BF94F8A6
:102150003C00012801D10220F6E7012084F83C0070
:1021600000BF2068006800F0010028B920680068FE
:1021700040F00100216808602068006820F40060D9
:1021800021680860212084F83D00402084F83E004A
:1021900000202064C4F824A0A4F82AB03E48E062DD
:1021A000608D20854B46424639462046CDE9006584
:1021B00001F0BCFA80B1206C042806D100BF0020D9
:1021C00084F83C0000BF0120BEE700BF002084F877
:1021D0003C0000BF0320B7E733E02A4631462046E3
:1021E00001F0D3FB60B1206C042807D1206800689F
:1021F00040F40070216808600120A5E70320A3E7F0
:10220000616A481C6062087821680861208D401E60
:102210002085608D401E608520684069C0F3800085
:1022200078B1208D68B1616A481C606208782168C5
:10223000086100E02CE0208D401E2085608D401E4E
:102240006085208D0028C8D12A463146204601F0FD
:10225000DDFA60B1206C042807D12068006840F4E2
:1022600000702168086001206EE703206CE7206899
:10227000006840F4007021680860202084F83D0068
:10228000002084F83E0000BF84F83C0000BF5BE7FC
:10229000022059E7020010000000FFFF10B586B0D1
:1022A00004460F492068884217D1C02002901220AE
:1022B00003900320059002A90A48FFF7BDFC00BF68
:1022C0000948C06940F400100749C8610846C06960
:1022D00000F40010019000BF00BF06B010BD000068
:1022E00000540040000C0140001002400348006808
:1022F0000349097808440149086070479C0300209D
:10230000A403002010B50848006840F010000649FA
:102310000860032000F0C2F8002000F007F800F089
:102320002BF8002010BD00000020024070B50446CC
:102330000E4800784FF47A71B1FBF0F00C4909684F
:10234000B1FBF0F5284600F0A6FF08B1012070BDF2
:10235000102C07D200222146501E00F060F80548DC
:10236000046001E00120F2E70020F0E7A403002070
:10237000A8030020A003002008B500BF1F48806903
:1023800040F001001D4988610846806900F00100A5
:10239000009000BF00BF032000F080F8002211462B
:1023A0006FF00B0000F03BF8002211466FF00A00BE
:1023B00000F035F8002211466FF0090000F02FF808
:1023C00000221146501F00F02AF800221146101F6B
:1023D00000F025F800221146901E00F020F800229F
:1023E0001146501E00F01BF800BF0549486820F058
:1023F000E06040F00070486000BF08BD001002407F
:102400000000014000BF00F01F020121914042097D
:10241000920002F1E022C2F8001100BF70472DE9DE
:10242000F05F80460D461646002701F09FFF0746E5
:1024300039462A46334601F00700C0F1070ABAF1CF
:10244000040F02D94FF0040A01E0C0F1070AD14697
:1024500000F1040ABAF1070F02D24FF0000A01E0BE
:10246000A0F1030AD4464FF0010A0AFA09FAAAF1C8
:10247000010A0AEA020A0AFA0CFA4FF0010B0BFAF7
:102480000CFBABF1010B0BEA030B4AEA0B042146F0
:10249000404601F073FFBDE8F09F000000BF00F070
:1024A0000702064B19684FF6FF031940044B0B4314
:1024B00043EA0221014B196000BF70470CED00E0B8
:1024C0000000FA05012001490862704700000E4231
:1024D0000748006840F002000549086005480068A8
:1024E00040F004000349086000BF00BF30BF7047E0
:1024F0000070004010ED00E02DE9F04385B0064685
:102500003DA30FCB01AC0FC43FA0006800904FF07B
:102510000008002500270024A146012E30D0022EFD
:1025200058D0102E61D139484468006800F080709E
:1025300000B301A8C4F38341475C04F4803070B158
:1025400032484068C0F340401DF8008004F48030F9
:1025500040B12F48B0FBF8F000FB07F502E02D4832
:1025600007FB00F52948406800F48000B0F5800FB3
:1025700001D1A94603E068000321B0FBF1F935E081
:102580002248046A04F44070B0F5807F05D104F05D
:10259000020010B14FF400491BE004F44070B0F5A4
:1025A000007F07D11948406A00F0020010B149F6D7
:1025B00040490EE004F44070B0F5407F07D1134865
:1025C000006800F4003010B1DFF84C9001E04FF0EB
:1025D00000090BE000F0A2F90C494968C1F3813110
:1025E000491C4900B0FBF1F900E000BF00BF4846BC
:1025F00005B0BDE8F08300000203040506070809E2
:102600000A0B0C0D0E0F101001020000001002400A
:102610000024F40000093D0048E80100F8B5044634
:1026200000260025207800F0010000286BD000274C
:102630004348C06900F0805070B900BF4048C0698D
:1026400040F080503E49C8610846C06900F08050A3
:10265000009000BF00BF01273A48006800F4807076
:10266000B0B93848006840F4807036490860FFF718
:102670007FFC064606E0FFF77BFC801B642801D93F
:102680000320F8BD2F48006800F480700028F2D0C5
:102690002B48006A00F440752DB3A08800F4407008
:1026A000A84220D02648006A20F44075012026491F
:1026B0000860002008602248056205F0010090B122
:1026C000FFF756FC064608E0FFF752FC801B41F27C
:1026D0008831884201D90320D3E71948006A00F005
:1026E00002000028F0D01648006A20F440706168AB
:1026F000084313490862012F04D10846C06920F03D
:102700008050C86100BF207800F00200022807D185
:102710000B48406820F44040A168084308494860DD
:10272000207800F01000102807D10548406820F4F8
:102730008000E1680843024948600020A1E70000EA
:1027400000100240007000404004424270B5044650
:102750000D4600266248006800F00700A8420ED22D
:102760005F48006820F0070028435D49086008467C
:10277000006800F00700A84201D0012070BD207859
:1027800000F00200022807D15648406820F0F0000F
:10279000A168084353494860207800F001000028F0
:1027A0005DD06068012806D14E48006800F4003012
:1027B00090B90120E2E76068022806D14948006824
:1027C00000F0007040B90120D8E74648006800F0EA
:1027D000020008B90120D1E74248406820F0030018
:1027E000616808433F494860FFF7C2FB06466068DE
:1027F000012810D108E0FFF7BBFB801B41F28831B4
:10280000884201D90320B9E73648406800F00C003F
:102810000428F0D123E06068022810D108E0FFF717
:10282000A7FB801B41F28831884201D90320A5E72C
:102830002C48406800F00C000828F0D10FE008E0B8
:10284000FFF796FB801B41F28831884201D90320B3
:1028500094E72448406800F00C000028F0D120489C
:10286000006800F00700A8420ED91D48006820F05B
:10287000070028431A4908600846006800F007006E
:10288000A84201D0012079E7207800F00400042854
:1028900007D11448406820F4E060E168084311491A
:1028A0004860207800F00800082808D10D484068EA
:1028B00020F46050216940EAC1000A49486000F0F4
:1028C0003DF808494968C1F30311074A515CC84003
:1028D000064908600020FFF729FD00204EE70000B0
:1028E000002002400010024047F10008A803002029
:1028F0000148006870470000A803002000B5FFF7FA
:10290000F7FF04494968C1F30221034A515CC840FA
:1029100000BD00000010024057F1000800B5FFF7AD
:10292000E7FF04494968C1F3C221034A515CC8402A
:1029300000BD00000010024057F10008F0B585B05E
:102940000FF26C0C9CE8E01001A8A0E8E0101CA5B8
:102950002D68009500210022002300240020194D3D
:10296000696801F00C05F5B1042D02D0082D19D1CC
:1029700001E0154819E001ADC1F38346AC5D01F4F7
:10298000803555B10F4D6D68C5F340451DF80520E4
:102990000D4D6543B5FBF2F302E00C4D04FB05F36E
:1029A000184602E000BF0A4800BF00BF05B0F0BDF6
:1029B00002030405060708090A0B0C0D0E0F101080
:1029C00001020000001002400024F40000093D0054
:1029D00000127A00F8B504460025207800F00100C6
:1029E000002878D0F848406800F00C0004280CD08B
:1029F000F548406800F00C00082811D1F248406802
:102A000000F48030B0F5803F0AD1EF48006800F450
:102A1000003000285FD0606800285CD10120F8BD3C
:102A200000BF6068B0F5803F06D1E748006840F419
:102A30008030E549086028E0606858B9E2480068DD
:102A400020F48030E04908600846006820F48020C7
:102A500008601AE06068B0F5A02F0BD1DA48006872
:102A600040F48020D84908600846006840F480306F
:102A700008600AE0D448006820F48030D249086039
:102A80000846006820F48020086000BF606888B1B4
:102A9000FFF76EFA054606E0FFF76AFA401B642866
:102AA00001D90320BBE7C848006800F400300028C3
:102AB000F2D010E0FFF75CFA054606E0FFF758FA9F
:102AC000401B642801D90320A9E7BF48006800F42F
:102AD00000300028F2D1207800F00200022857D1FF
:102AE000B948406800F00C0050B1B748406800F0A9
:102AF0000C00082818D1B448406800F4803098B918
:102B0000B148006800F0020020B12069012801D01E
:102B1000012084E7AC48006820F0F800616940EAD1
:102B2000C100A949086033E02069E8B10120A74944
:102B30000860FFF71DFA054606E0FFF719FA401B8B
:102B4000022801D903206AE79F48006800F00200CC
:102B50000028F2D09C48006820F0F800616940EA43
:102B6000C1009949086013E0002098490860FFF708
:102B7000FFF9054606E0FFF7FBF9401B022801D9E3
:102B800003204CE79048006800F002000028F2D1D2
:102B9000207800F0080008282DD1A069B8B10120E4
:102BA0008B490860FFF7E4F9054606E0FFF7E0F916
:102BB000401B022801D9032031E78348406A00F016
:102BC00002000028F2D0012002F082FF13E0002072
:102BD0007F490860FFF7CCF9054606E0FFF7C8F922
:102BE000401B022801D9032019E77748406A00F00A
:102BF00002000028F2D1207800F00400042873D1EC
:102C000000267148C06900F0805070B900BF6E485E
:102C1000C06940F080506C49C8610846C06900F046
:102C20008050009000BF00BF01266A48006800F491
:102C30008070B0B96748006840F4807065490860EA
:102C4000FFF796F9054606E0FFF792F9401B642866
:102C500001D90320E3E65F48006800F48070002893
:102C6000F2D000BFE068012806D15748006A40F062
:102C700001005549086227E0E06858B95248006AE7
:102C800020F00100504908620846006A20F0040064
:102C9000086219E0E06805280BD14B48006A40F053
:102CA0000400494908620846006A40F001000862D1
:102CB0000AE04548006A20F00100434908620846DE
:102CC000006A20F00400086200BFE068A0B1FFF7CE
:102CD0004FF9054609E0FFF74BF9401B41F28831F7
:102CE000884202D903209AE622E03748006A00F0C1
:102CF00002000028EFD012E0FFF73AF9054608E09D
:102D0000FFF736F9401B41F28831884201D9032090
:102D100085E62D48006A00F002000028F0D1012E5F
:102D200005D12948C06920F080502749C86100BFFB
:102D3000E069C8B32448406800F00C00082860D05F
:102D4000E069022848D1002020490866FFF710F901
:102D5000054606E0FFF70CF9401B022801D90320C5
:102D60005DE61948006800F000700028F2D1206A82
:102D7000B0F5803F07D11448406820F40030A168C6
:102D8000084311494860D4E9080108430E494968DD
:102D900021F4741108430C49486001200B4908666E
:102DA000FFF7E6F8054607E02DE0FFF7E1F8401BE6
:102DB000022801D9032032E60348006800F00070C1
:102DC0000028F2D01FE00000001002400000424244
:102DD000800442420070004000200C490866FFF762
:102DE000C7F8054606E0FFF7C3F8401B022801D9E3
:102DF000032014E60648006800F000700028F2D1B5
:102E000001E001200BE6002009E60000000042423C
:102E10000010024010B5034600220020024A02EBD7
:102E200081021468A0B210BD006C004010B50346CA
:102E30000020034800EB810094B2046010BD000044
:102E4000006C00402DE9F04780460C469146002575
:102E50000026AA460027B8F1000F00D014B90120BF
:102E6000BDE8F087D8F800004068C0F3800008B1E2
:102E70000120F5E7404602F011FF05464FF461607E
:102E8000B5FBF0F7B5FBF0F100FB11503C21B0FBB6
:102E9000F1F060704FF46160B5FBF0F100FB115090
:102EA0003C21B0FBF1F201FB1200A070182F39D3C6
:102EB0001820B7FBF0FAB7FBF0F100FB117020709F
:102EC000404602F0DFFE0646701C18B1AE4201D942
:102ED000761B01E04FF0FF360AEB4A00C000C0EB62
:102EE0004011C1EB0020A5EB00152946404602F039
:102EF00048FF08B10120B3E7701C38B12E443146B9
:102F0000404602F027FF40B10120A9E73146404684
:102F100002F020FF08B10120A2E75146404602F02E
:102F200003FE00E02770B9F1000F0BD0207802F00B
:102F3000EEFD2070607802F0EAFD6070A07802F08B
:102F4000E6FDA07000208BE770B5044600250CB9A3
:102F5000012070BD607C20B900202074204600F064
:102F60005BF802206074204600F060F918B104207C
:102F700060740120EDE7204602F031FE18B1042014
:102F800060740120E5E72068406820F007002168B0
:102F90004860A06828B11F48006820F001001D4962
:102FA00008601C48001F006820F46070A168084396
:102FB0001849091F08606068401C08B1656809E08D
:102FC0000120FFF799FA05461DB90420607401201D
:102FD000BFE76D1E2068806820F00F0040EA1540B2
:102FE000216888602068C06865F30F002168C860A8
:102FF000204602F011FE18B1042060740120A8E7F9
:103000000021E17301216173A1730120607400202C
:103010009FE70000306C004038B504460B4920683B
:10302000884212D1FFF74EFA00BF0948C06940F04C
:1030300000600749C8610846C06900F00060009060
:1030400000BF00BF01200349086038BD00280040D0
:10305000001002403C0442422DE9F04704460D4670
:10306000904600260027B14604B115B90120BDE8FD
:10307000F08700BF207C012801D10220F7E7012062
:10308000207400BF02206074B8F1000F06D1E97807
:10309000E17369786173A978A1730BE0E87802F0B5
:1030A0002BFDE073687802F027FD6073A87802F0CA
:1030B00023FDA073A27B617BE07B02F009FE2073FD
:1030C000207B2870204602F0E9FD06464FF461603F
:1030D000B6FBF0F9B9F1180F2FD91820B9FBF0F0B1
:1030E00000EB4000C000C0EB4011C1EB0020A6EB9C
:1030F00000163146204602F044FE38B104206074C8
:1031000000BF0020207400BF0120B0E7204602F07D
:10311000B9FD0746781C80B1B7420ED20B48074470
:103120003946204602F016FE38B10420607400BF14
:103130000020207400BF012099E70120607400BFC7
:103140000020207400BF00BF91E700008051010003
:103150002DE9F04704460D4690460026002704B1AD
:1031600015B90120BDE8F08700BF207C012801D1FE
:103170000220F7E70120207400BF02206074B8F13C
:10318000000F0BD128784FF4616148436978C1EB97
:10319000011100EB8100A978461812E0287802F0AE
:1031A000ABFC4FF4616100FB01F9687802F0A4FC0C
:1031B000C0EB001009EB8009A87802F09DFC09EB38
:1031C00000063146204602F0DCFD38B10420607470
:1031D00000BF0020207400BF0120C3E720684068C2
:1031E00020F0050021684860204602F04BFD0746AC
:1031F000781C80B1B7420ED20B48074439462046AE
:1032000002F0A8FD38B10420607400BF00202074D3
:1032100000BF0120A6E70120607400BF00202074D9
:1032200000BF00BF9EE700008051010070B504465A
:1032300000250CB9012070BD2068406820F008000E
:1032400021684860FEF794FE054607E0FEF790FE11
:10325000401BB0F57A7F01D90320ECE72068406875
:1032600000F008000028F1D00020E4E7042808D18D
:103270004FF0E021096941F004014FF0E0221161B3
:1032800007E04FF0E021096921F004014FF0E0224E
:1032900011617047704770B504462546681EB0F14D
:1032A000807F01D301200FE0681E4FF0E0214861CC
:1032B0000F214FF0FF3001F061F800204FF0E021C6
:1032C000886107200861002070BD10B5FFF7E2FF9C
:1032D00010BD10B50346002200BF93F83C00012842
:1032E00001D1022010BD012083F83C0000BF22F074
:1032F000FF00CC6840EA040222F440708C6840EA87
:10330000040222F480604C6840EA040222F4006067
:103310000C6840EA040222F480500C6940EA04027E
:1033200022F400504C6940EA040222F480408C6987
:1033300040EA040222F400408C6940EA0402186862
:10334000426400BF002083F83C0000BF00BFC9E713
:10335000024600BF92F83C00012801D102207047CC
:10336000012082F83C0000BF022082F83D00106876
:10337000406820F0700013685860106840680B685F
:103380001843136858601068806820F08000136844
:103390009860106880684B68184313689860012033
:1033A00082F83D0000BF002082F83C0000BF00BF53
:1033B000D5E710B504460CB9012010BD94F83D00C6
:1033C00028B9002084F83C00204600F00DF80220C7
:1033D00084F83D00211D206803F02CFB012084F8B7
:1033E0003D000020E9E7000008B5094A0168914264
:1033F0000DD100BF0749896941F40061054A916117
:103400001146896901F40061009100BF00BF08BD49
:10341000002C0140001002402DE9F04104460D4609
:10342000002600BF94F83C00012802D10220BDE82C
:10343000F081012084F83C0000BF022084F83D00A8
:103440002068866826F0770626F47F462068866026
:10345000286850283BD00CDC202860D004DC0028F1
:1034600053D0102865D155E030285DD0402860D178
:1034700041E0602835D070280DD0B0F5805F03D0D2
:10348000B0F5005F55D115E02068806820F0070096
:10349000216888604EE0D5E902136A68206803F06D
:1034A00011FB2068866826F0770646F077062068CC
:1034B00086603FE0D5E902136A68206803F002FBEA
:1034C0002068806840F480402168886032E0EA68C3
:1034D0006968206803F0D4FB5021206803F0FEFAED
:1034E00028E0EA686968206803F0DFFB6021206853
:1034F00003F0F4FA1EE0EA686968206803F0C0FB94
:103500004021206803F0EAFA14E00021206803F06B
:10351000E5FA0FE01021206803F0E0FA0AE020212C
:10352000206803F0DBFA05E03021206803F0D6FACA
:1035300000E000BF00BF012084F83D0000BF002074
:1035400084F83C0000BF00BF71E700001FB50446CF
:1035500006492068884208D1801500900220019019
:10356000039069460248FEF767FB1FBD002C01402F
:103570000008014070B504460D46164600BF94F899
:103580003C00012801D1022070BD012084F83C00DC
:1035900000BF022084F83D0036B1042E1BD0082E57
:1035A00031D00C2E5ED145E02946206803F0A0FA08
:1035B0002068806940F0080021688861206880697F
:1035C00020F0040021688861206880692969084327
:1035D0002168886147E02946206803F0BBFA20682B
:1035E000806940F40060216888612068806920F467
:1035F00080602168886120688069296940EA01202B
:10360000216888612FE02946206803F0DBFA2068F2
:10361000C06940F008002168C8612068C06920F0D6
:1036200004002168C8612068C069296908432168CD
:10363000C86118E02946206803F0FAFA2068C069DA
:1036400040F400602168C8612068C06920F480608F
:103650002168C8612068C069296940EA01202168A1
:10366000C86100E000BF00BF012084F83D0000BF3A
:10367000002084F83C0000BF00BF85E710B5044679
:103680000CB9012010BD94F83D0028B9002084F841
:103690003C00204600F00CF8022084F83D00211D7B
:1036A000206803F0C7F9012084F83D000020E9E715
:1036B0007047000030B504460D46012229462068B7
:1036C00003F0F2F90A492068884201D1012000E0A4
:1036D000002028B12068406C40F400402168486414
:1036E0002068006840F0010021680860002030BDBB
:1036F000002C014000BFFEE7014608684069C0F3A6
:10370000802088B16FF480600A68506104200864EA
:1037100000200863202081F83D0000BF002081F8D0
:103720003C0000BF012070470020FCE72DE9F84372
:103730000446884615469946DDE908672068006812
:1037400040F4807021680860334600224FF0011178
:103750002046009700F085F810B10320BDE8F883FB
:1037600008F0FE00216808613B46324626492046A3
:1037700000F0B5F830B1206C042801D10120EDE74C
:103780000320EBE700BF0020009020684069009014
:1037900020688069009000BF00BF3A46314620464D
:1037A00000F0F3F860B1206C042807D120680068AD
:1037B00040F40070216808600120CFE70320CDE7C6
:1037C000B9F1010F03D1E8B22168086119E0C5F32E
:1037D0000720216808613A463146204600F0D5F8B6
:1037E00060B1206C042807D12068006840F40070A4
:1037F000216808600120B1E70320AFE7E8B2216843
:1038000008610020AAE700000200010070B504462C
:103810000D4616461DE02046FFF76EFF08B1012059
:1038200070BD681CA8B125B1FEF7A2FB801BA842A1
:103830000FD9206C40F0200020640020206320205D
:1038400084F83D0000BF002084F83C0000BF032046
:10385000E6E720684069C0F380000028DBD0002044
:10386000DEE72DE9F04104460D4617461E46DDF819
:10387000188017E0701CA8B12EB1FEF779FBA0EB01
:103880000800B0420ED900202063202084F83D00BB
:10389000002084F83E0000BF84F83C0000BF0320F5
:1038A000BDE8F081C5F3074001280AD120684069CE
:1038B000A9B20840A9B2884201D101200BE0002042
:1038C00009E020688069A9B20840A9B2884201D104
:1038D000012000E00020B842CCD00020E0E72DE934
:1038E000F04104460D4616461F4631E02068406907
:1038F000C0F38020C0B12068006840F400702168E7
:1039000008606FF480602168486104202064002012
:103910002063202084F83D0000BF002084F83C0094
:1039200000BF0120BDE8F081701C88B126B1FEF710
:103930001FFBC01BB0420BD900202063202084F85D
:103940003D0000BF002084F83C0000BF0320E9E7F1
:10395000C5F3074001280AD120684069A9B2084090
:10396000A9B2884201D101200BE0002009E02068C3
:103970008069A9B20840A9B2884201D1012000E0C3
:1039800000200028B2D00020CCE770B504460D46D8
:1039900016461DE02046FFF7AFFE08B1012070BDBE
:1039A000681CA8B125B1FEF7E3FA801BA8420FD925
:1039B000206C40F02000206400202063202084F848
:1039C0003D0000BF002084F83C0000BF0320E6E774
:1039D00020684069C0F3C0100028DBD00020DEE77B
:1039E00008B500202D490860402380220146009040
:1039F00002F046FB0121152004F0A4FD01200090F7
:103A000027480EC827A004F0A9FE0D211C2004F0B1
:103A100099FD0120009022480EC826A004F09EFEC9
:103A20001A211C2004F08EFD012000901C480EC8B5
:103A300023A004F093FE27211C2004F083FD012025
:103A4000009017480EC821A004F088FE34211820E9
:103A500004F078FD0120009011480EC81EA004F06B
:103A60007DFE04F075FD4FF400511F48FEF772FA19
:103A700098B91E4909480068FCF790FE0DD2002055
:103A80001B490870084600781A4908700020402336
:103A900080220146009002F0F3FA08BD780300206E
:103AA00090030020C2E5E9EF20ECEEE42056322E30
:103AB000330000004F70656E20536F7572636500B0
:103AC000F0E0E1EEF2E0E5F220EDE00073746D333A
:103AD0003266313033633800437665746165762031
:103AE0003230313800000000000C014000007A4400
:103AF00052000020530000200EB5244824490860DD
:103B00008115234881600121C160002141614FF48A
:103B10006021C16100201E49486003211C480161E9
:103B2000FDF788FC20B140F263211AA003F098FC55
:103B3000052000900120019007200290694614485A
:103B4000FDF7ACFB20B140F26D2112A003F088FC20
:103B5000042000900220019069460D48FDF79EFB6D
:103B600020B140F276210BA003F07AFC10200090E7
:103B70000320019069460648FDF790FB20B140F212
:103B80007F2104A003F06CFC0EBD00000024014066
:103B9000B00300202E2E2F5372632F6D61696E2E9D
:103BA0006300000008B500BF0A48406940F001000A
:103BB000084948610846406900F00100009000BFD4
:103BC00000BF002211460B20FEF729FC0B20FEF758
:103BD00019FC08BD0010024000B585B000BF314897
:103BE000806940F010002F4988610846806900F024
:103BF0001000009000BF00BF00BF0846806940F081
:103C0000200088610846806900F02000009000BF15
:103C100000BF00BF0846806940F004008861084684
:103C2000806900F00400009000BF00BF00BF08469C
:103C3000806940F0080088610846806900F008004B
:103C4000009000BF00BF002249151748FEF78AF90F
:103C500001200190154802900220039001A912480A
:103C6000FDF7EAFF47F218000190002002900120C2
:103C7000039001A90E48FDF7DFFF4FF4007001909B
:103C8000012002900220049001A90748FDF7D4FF0B
:103C9000002211460620FEF7C2FB0620FEF7B2FB0B
:103CA00005B000BD001002400008014000001110E6
:103CB000000C014010B50D480D4908600D484860E2
:103CC00000210B488160C1604FF4804101610021F7
:103CD00041618161C1610162FEF75EF920B140F28C
:103CE000932105A003F0BCFB10BD00000054004070
:103CF00024040020A08601002E2E2F5372632F6D06
:103D000061696E2E630000001CB51C481C490860E8
:103D100001211B48FFF77EF843F2F22188422BD0A5
:103D20004FF0FF30164948604FF4807114488160AD
:103D3000FFF70AF920B140F2A72112A003F090FB8F
:103D4000012201A90E48FFF703FA20B140F2B22187
:103D50000CA003F085FB012269460948FFF77CF9B6
:103D600020B14FF42F7107A003F07AFB43F2F22247
:103D700001210348FFF75AF81CBD0000002800404D
:103D8000780400202E2E2F5372632F6D61696E2EE2
:103D90006300000000B595B0344835490860002044
:103DA00048600021324881603248B0F90010304844
:103DB000C1600021016141618161FFF7FAFA20B120
:103DC00040F2D6212CA003F04BFB4FF48050119011
:103DD00011A92748FFF720FB20B14FF4377126A027
:103DE00003F03EFB2248FFF749FC20B140F2E121FD
:103DF00021A003F035FB00200F9010900FA91C4864
:103E0000FFF7A6FA20B14FF43A711BA003F028FB8C
:103E100060200890002009900A900B900C900D9063
:103E20000E90002208A91248FFF7A4FB20B14FF41E
:103E30003D7111A003F014FB00200190029003904B
:103E4000049005904FF4005006900020079001A9BF
:103E50000748FFF73EFA20B14FF4407106A003F087
:103E6000FFFA0348FFF772FB15B000BD002C0140BC
:103E70008C040020320000202E2E2F5372632F6DF1
:103E800061696E2E6300000000BFFEE708B50020E8
:103E9000804908601B21202004F054FB01207E494A
:103EA00000900978491E7D4A52F821007C490EC9CC
:103EB00004F054FC012026236C2219460090202097
:103EC00002F00DF92721202004F03CFB002073496B
:103ED000714A0090127851F8220071490EC904F01D
:103EE0003DFC3421202004F02DFB01206B4A6A495F
:103EF00000900978491C52F8210069490EC904F064
:103F00002DFC04F025FBFEF733F8664908604FF4FA
:103F100080516548FEF71EF890B964495D48006815
:103F2000FCF73CFC0CD25C480078042803DB04203E
:103F30005949087004E058480078401C56490870F8
:103F40004FF480415848FEF705F890B95749514859
:103F50000068FCF723FC0CD24F480078012803DCF2
:103F600001204D49087004E04B480078401E4A4942
:103F700008704FF400514C48FDF7ECFF00BB464879
:103F8000007801281CD1494942480068FCF706FC2A
:103F900016D2012046490870084600784549087045
:103FA0000020402380220146009002F069F8FCF7CF
:103FB00020FF04F0CDFAFCF7E2FE00203E49088025
:103FC0004FF400513848FDF7C5FF00BB3248007878
:103FD00002281CD135492F480068FCF7DFFB16D2B8
:103FE00002203349087008460078324908700020E2
:103FF000402380220146009002F042F8FCF7F9FECF
:1040000004F0A6FAFCF7BBFE00202B4908804FF411
:1040100000512548FDF79EFFF0B91F48007803289E
:104020001AD122491B480068FCF7B8FB14D20520BE
:104030001F490870084600781E49087001201F4972
:1040400008700020282380221821009002F018F820
:1040500004F07EFA00F036F84FF400511248FDF7F4
:1040600079FF90B90C48007804280ED10F4909480F
:104070000068FCF793FB08D209200D490870084638
:1040800000780C490870FFF7ABFC01210C48FDF7E4
:1040900061FF08BD7803002048030020E0000020F5
:1040A0009003002060000020000C01400000C84286
:1040B00052000020530000205A0000204903002035
:1040C0000008014008B50020964908601B21202007
:1040D00004F038FA0120944900900978491E934A67
:1040E00052F8210092490EC904F038FB0120262322
:1040F0006C2219460090202001F0F1FF272120209A
:1041000004F020FA00208949874A0090127851F87B
:10411000220087490EC904F021FB3421202004F03D
:1041200011FA0120814A804900900978491C52F80F
:1041300021007F490EC904F011FB04F009FA4FF485
:1041400080517C48FDF706FF90B97B4975480068AF
:10415000FCF724FB0CD274480078062803DB062009
:104160007149087004E070480078401C6E4908707E
:104170004FF480416F48FDF7EDFE90B96E496948F4
:104180000068FCF70BFB0CD267480078012803DCC1
:1041900001206549087004E063480078401E6249C8
:1041A00008704FF400516348FDF7D4FEC8B95E486B
:1041B0000078052815D160495A480068FCF7EEFAE6
:1041C0000FD20020282380221821009001F058FFF0
:1041D00004F0BEF90B205949087008460078584988
:1041E00008704FF400515348FDF7B4FEB8B94E487B
:1041F0000078062813D150494A480068FCF7CEFAE7
:104200000DD200204D490870084600784C490870CE
:1042100003204C4908700520FDF718FC08BD4FF439
:1042200000514448FDF796FEC8B93F480078012880
:1042300015D141493B480068FCF7B0FA0FD2002085
:10424000282380221821009001F01AFF04F080F941
:1042500006203A49087008460078394908704FF43A
:1042600000513448FDF776FEC8B92F48007802287F
:1042700015D131492B480068FCF790FA0FD2002085
:10428000282380221821009001F0FAFE04F060F942
:1042900007202A49087008460078294908704FF419
:1042A00000512448FDF756FEC8B91F48007803287E
:1042B00015D121491B480068FCF770FA0FD2002085
:1042C000282380221821009001F0DAFE04F040F942
:1042D00008201A49087008460078194908704FF4F8
:1042E00000511448FDF736FED0B90F480078042875
:1042F00016D1154815490860154816490860002070
:104300001549086015481649086001200B490870D6
:104310000B49087040F6AC501249086000F01EF9D5
:1043200000BF7BE77803002049030020E80100205C
:1043300090030020000C01400000C8425200002001
:104340005300002048030020CDCC0C403400002056
:104350000000A84138000020740000200071020015
:10436000640000207C0000207047000002480068C4
:10437000C0F30220704700000CED00E010B50028EB
:1043800007DA0A07140E054A00F00F031B1FD45466
:1043900003E00A07130E024A135410BD18ED00E0A3
:1043A00000E400E008B503215B2004F0CBF8012015
:1043B000009003480EC803A004F0D0F908BD000027
:1043C000900300202D2E2D2D4000000008B5002068
:1043D0000A4908601E23552201210090084601F079
:1043E0004FFE0921002004F0ADF80123044806C85F
:1043F00004A004F09DF904F0ABF808BD342C014092
:104400008C0000204F75742054696D650000000019
:104410007047000008B51B210C2004F093F83148C8
:10442000007830B9012000902F480EC82FA004F06A
:1044300095F92C480078012805D100902A480EC82B
:104440002AA004F08BF927480078022806D1012021
:10445000009025480EC825A004F080F904F078F8F3
:1044600023480068401C2249086001212148FDF7CB
:1044700071FDB8B120480078A0B901201E4908702C
:1044800018480078401C1749087000201849086037
:104490001A49086013480078022803DD00201149FA
:1044A000087008BD12480068012807D90121114889
:1044B000FDF750FD10B900200F4908700C48006846
:1044C0000F2804D9002007490870094908600C49E1
:1044D0000A480068FCF762F901D200F0ABF801204D
:1044E000DFE70000CE000020900300202000000045
:1044F00078000020000801405800002078030020C8
:1045000000401C4610B51148007828B910480078C2
:10451000401C0F49087008E00E490F480068FCF77E
:104520003DF902D200200A4908700A490A48006889
:10453000FCF734F902D200200549087004480078DD
:10454000022801DD00F00AF810BD0000580000202C
:10455000CE00002000006144780300202DE9F041E6
:1045600001F062FE29480068FCF7AEF8064600221A
:10457000274BFBF756FF0446FCF78DF825490860EA
:1045800025480068FCF7A0F806460022204BFBF700
:1045900048FF0446FCF77FF8204908601D48016881
:1045A0000020FCF7A5FC1D4801680120FCF7A0FCD9
:1045B0001B4801680220FCF79BFC1A480078012880
:1045C00003D018480078022804D116480178032047
:1045D000FCF78EFC144801680420FCF789FC1348A2
:1045E00001680520FCF784FC1148406840F48070A5
:1045F0000F4948600846006840F004000860062043
:104600000860FDF765FFBDE8F08100003400002080
:104610000000594068000020380000206C00002095
:104620006400002052000020740000207C00002064
:104630000070004010B501F0F7FD0848406840F4F4
:104640008070064948600846006840F00400086031
:1046500006200860FDF73CFF10BD00000070004020
:10466000F8B5AA480088B0F57A7F7DDD0020A7491B
:10467000088001240121A648FDF76CFC002874D1B4
:1046800001201423472226210090052001F0F8FC88
:10469000A0494868FCF718F805469F4A9F4BFCF76D
:1046A00027F80AD2012C08D1002014234622262103
:1046B0000090052001F0E4FC002496494868FCF7CE
:1046C00003F805460022964BFCF712F80AD2012C9B
:1046D00008D100201423462226210090062001F054
:1046E000CFFC00248B494868FBF7EEFF05464FF0EE
:1046F00066328C4BFBF7FCFF0AD2012C08D100205C
:104700001423462226210090072001F0B9FC002442
:1047100080494868FBF7D8FF0546834A834BFBF77F
:10472000E7FF0AD2012C08D10020142345222621BC
:104730000090082001F0A4FC002476494868FBF7AB
:10474000C3FF05467A4A7B4BFBF7D2FF0AD2012C06
:1047500008D1002014234322262100900A2001F0D2
:104760008FFC00246B4901E0CEE0CCE04868FBF709
:10477000ABFF0546704A714BFBF7BAFF0AD2012C1A
:1047800008D1002014233F22262100900E2001F0A2
:1047900077FC00245F494868FBF796FF0546684AA6
:1047A000684BFBF7A5FF0AD2012C08D10020142387
:1047B0003A2226210090132001F062FC0024554982
:1047C0004868FBF781FF0546534A5F4BFBF790FFB4
:1047D0000AD2012C08D10020142330222621009077
:1047E0001D2001F04DFC00244A494868FBF76CFF8E
:1047F00005460022554BFBF77BFF0AD2012C08D15E
:1048000000201423262211460090272001F038FCB6
:10481000002440494868FBF757FF05464FF06632D1
:104820004B4BFBF765FF0AD2012C08D10020142363
:104830001C2226210090302001F022FC0024354962
:104840004868FBF741FF05464FF03332414BFBF719
:104850004FFF0AD2012C08D1002014231622262152
:104860000090372001F00CFC00242A494868FBF72F
:104870002BFF0546384A394BFBF73AFF0AD2012C89
:1048800008D1002014230A2226210090422001F0A2
:10489000F7FB00241F494868FBF716FF0546002276
:1048A0002F4BFBF725FF0AD2012C08D1002014233F
:1048B000072226210090452001F0E2FB0024154943
:1048C0004868FBF701FF05464FF03332254BFBF7F5
:1048D0000FFF0AD2012C08D1002014230422262124
:1048E0000090482001F0CCFB00240A494868FBF7FF
:1048F000EBFE05464FF066321B4BFBF7F9FE02D28A
:10490000012C00D1002400BFF8BD0000D60000201B
:1049100000080140040000209A99999999990B4048
:1049200000000C4066660C40A4703D0AD7A30C4002
:10493000B81E85EB51B80C40CDCCCCCCCCCC0C40C7
:104940000AD7A3703D0A0D4099990D4000000E4012
:1049500066660E4033330F40D7A3703D0AD70F4031
:1049600000001040333310406666104000B585B03B
:10497000012004901423472216210090192001F0F1
:104980007FFBFE4840680190FBF79EFEFC4AFD4B12
:10499000CDE90201FBF7ACFE0CD20498012809D145
:1049A000002014234622162100901B2001F068FBF2
:1049B00000200490F14840680190FBF785FEF24A20
:1049C000F24BCDE90201FBF793FE0CD204980128CB
:1049D00009D1002014234522162100901C2001F04B
:1049E0004FFB00200490E54840680190FBF76CFE07
:1049F000E74AE84BCDE90201FBF77AFE0CD20498B6
:104A0000012809D1002014234422162100901D20E2
:104A100001F036FB00200490D84840680190FBF775
:104A200053FEDD4ADD4BCDE90201FBF761FE0CD2FE
:104A30000498012809D10020142343221621009054
:104A40001E2001F01DFB00200490CC48406801901E
:104A5000FBF73AFE0022D24BCDE90201FBF748FEFC
:104A60000CD20498012809D10020142342221621D7
:104A700000901F2001F004FB00200490BF48406814
:104A80000190FBF721FEC44A5242C64BCDE9020118
:104A9000FBF72EFE0CD20498012809D10020142324
:104AA000412216210090202001F0EAFA0020049013
:104AB000B24840680190FBF707FEB54A5242BA4B34
:104AC000CDE90201FBF714FE0CD20498012809D1AC
:104AD00000201423402216210090212001F0D0FA5A
:104AE00000200490A54840680190FBF7EDFDA64A20
:104AF0005242AE4BCDE90201FBF7FAFD0CD204980D
:104B0000012809D1002014233F22162100902220E1
:104B100001F0B6FA00200490984840680190FBF735
:104B2000D3FD974A5242A24BCDE90201FBF7E0FDCB
:104B30000CD20498012809D1002014233E2216210A
:104B40000090232001F09CFA002004908B484068DC
:104B50000190FBF7B9FD4FF06632964BCDE90201AB
:104B6000FBF7C6FD0CD20498012809D100201423BC
:104B70003D2216210090242001F082FA00200490AA
:104B80007E4840680190FBF79FFD8B4A8B4BCDE937
:104B90000201FBF7ADFD0CD20498012809D10020D9
:104BA00014233C2216210090252001F069FA0020F0
:104BB0000490724840680190FBF786FD804A814B63
:104BC000CDE90201FBF794FD0CD20498012809D12C
:104BD000002014233B2216210090262001F050FAD9
:104BE00000200490654840680190FBF76DFD764A0F
:104BF000764BCDE90201FBF77BFD0CD2049801282E
:104C000009D1002014233A2216210090272001F018
:104C100037FA00200490594840680190FBF754FD92
:104C20006B4A6C4BCDE90201FBF762FD0CD2049894
:104C3000012809D1002014233922162100902820B0
:104C400001F01EFA002004904C4840680190FBF7E8
:104C50003BFD614A614BCDE90201FBF749FD0CD2F6
:104C60000498012809D1002014233822162100902D
:104C7000292001F005FA0020049040484068019086
:104C8000FBF722FD564A574BCDE90201FBF730FDF9
:104C90000CD20498012809D10020142337221621B0
:104CA00000902A2001F0ECF900200490334840687D
:104CB0000190FBF709FD4C4A4C4BCDE90201FBF793
:104CC00017FD0CD20498012809D1002014233622A4
:104CD000162100902B2001F0D3F9002004902748E2
:104CE00040680190FBF7F0FC3F4A5242404BCDE94F
:104CF0000201FBF7FDFC0CD20498012809D1002029
:104D000014233522162100902C2001F0B9F900203F
:104D100004901A4840680190FBF7D6FC304A524292
:104D2000344BCDE90201FBF7E3FC0CD204980128D7
:104D300009D1002014233422162100902D2001F0E7
:104D40009FF9002004900D4840680190FBF7BCFCDF
:104D50004FF03332284BCDE90201FBF7C9FC0CD2EE
:104D60000498012809D10020142333221621009031
:104D70002E2001F085F9002004903FE0040000207F
:104D8000AE47E17A14AE0B40C3F5285C8FC20B40EE
:104D9000D7A3703D0AD70B40EC51B81E85EB0B40F2
:104DA00000000C407A140C40F5280C40703D0C407B
:104DB000EB510C4066660C407B14AE47E17A0C4028
:104DC0008FC2F5285C8F0C40A4703D0AD7A30C401D
:104DD000B81E85EB51B80C40CDCCCCCCCCCC0C4023
:104DE000E17A14AE47E10C40F6285C8FC2F50C4026
:104DF0003D0A0D40B81E0D4033330D40FE4840685B
:104E00000190FBF761FCFD4AFD4BCDE90201FBF788
:104E10006FFC0CD20498012809D1002014233222FF
:104E2000162100902F2001F02BF900200490F24869
:104E300040680190FBF748FCF24AF34BCDE90201D0
:104E4000FBF756FC0CD20498012809D1002014234A
:104E5000312216210090302001F012F90020049038
:104E6000E54840680190FBF72FFCE84AE84BCDE9A4
:104E70000201FBF73DFC0CD20498012809D1002067
:104E80001423302216210090312001F0F9F800207F
:104E90000490D94840680190FBF716FCDD4ADE4BD0
:104EA000CDE90201FBF724FC0CD20498012809D1BA
:104EB000002014232F2216210090322001F0E0F868
:104EC00000200490CC4840680190FBF7FDFBD34ADA
:104ED000D34BCDE90201FBF70BFC0CD2049801285F
:104EE00009D1002014232E2216210090332001F036
:104EF000C7F800200490C04840680190FBF7E4FB2D
:104F0000C84AC94BCDE90201FBF7F2FB0CD2049869
:104F1000012809D1002014232D22162100903420CD
:104F200001F0AEF800200490B34840680190FBF710
:104F3000CBFBBE4ABE4BCDE90201FBF7D9FB0CD23D
:104F40000498012809D1002014232C221621009056
:104F5000352001F095F800200490A74840680190A2
:104F6000FBF7B2FBB34AB44BCDE90201FBF7C0FB40
:104F70000CD20498012809D1002014232B221621D9
:104F80000090362001F07CF8002004909A48406898
:104F90000190FBF799FBA94AA94BCDE90201FBF768
:104FA000A7FB0CD20498012809D1002014232A223F
:104FB00016210090372001F063F8002004908E48FD
:104FC00040680190FBF780FB00229E4BCDE9020177
:104FD000FBF78EFB0CD20498012809D10020142382
:104FE000292216210090382001F04AF80020049070
:104FF000814840680190FBF767FB904A5242924B10
:10500000CDE90201FBF774FB0CD20498012809D109
:1050100000201423282216210090392001F030F8B6
:1050200000200490744840680190FBF74DFB814AD2
:105030005242864BCDE90201FBF75AFB0CD2049891
:10504000012809D1002014232722162100903A209C
:1050500001F016F800200490674840680190FBF7C3
:1050600033FB724A52427A4BCDE90201FBF740FB17
:105070000CD20498012809D10020142326221621DD
:1050800000903B2000F0FCFF002004905A4840684C
:105090000190FBF719FB634A52426E4BCDE90201C6
:1050A000FBF726FB0CD20498012809D10020142319
:1050B0002522162100903C2000F0E2FF0020049001
:1050C0004D4840680190FBF7FFFA4FF06632624BA3
:1050D000CDE90201FBF70CFB0CD20498012809D1A1
:1050E000002014232422162100903D2000F0C8FF48
:1050F00000200490404840680190FBF7E5FA454ADB
:105100005242564BCDE90201FBF7F2FA0CD2049859
:10511000012809D1002014232322162100903E20CB
:1051200000F0AEFF00200490334840680190FBF788
:10513000CBFA364A52424A4BCDE90201FBF7D8FA84
:105140000CD20498012809D1002014232222162110
:1051500000903F2000F094FF002004902648406813
:105160000190FBF7B1FA274A52423E4BCDE90201CA
:10517000FBF7BEFA0CD20498012809D100201423B1
:10518000212216210090402000F07AFF0020049098
:10519000194840680190FBF797FA184A5242324B7F
:1051A000CDE90201FBF7A4FA0CD20498012809D139
:1051B00000201423202216210090412000F060FFDF
:1051C000002004900C4840680190FBF77DFA274AC4
:1051D000274BCDE90201FBF78BFA0CD2049801288A
:1051E00009D1002014231F2216210090422000F034
:1051F00047FF002004903DE00400002048E17A14BD
:10520000AE470D405C8FC2F5285C0D40713D0AD75A
:10521000A3700D4085EB51B81E850D409A99999960
:1052200099990D40AE47E17A14AE0D40C3F5285C64
:105230008FC20D40D7A3703D0AD70D40EC51B81E68
:1052400085EB0D4000000E407A140E40F5280E400C
:10525000703D0E40EB510E4066660E40E17A0E4006
:105260005C8F0E40D7A30E4051B80E40CDCCCCCCB5
:10527000CCCC0E40FE4840680190FBF725FAFD4A71
:10528000FD4BCDE90201FBF733FA0CD2049801285B
:1052900009D1002014231E2216210090432000F083
:1052A000EFFE00200490F24840680190FBF70CFAF2
:1052B000F24AF34BCDE90201FBF71AFA0CD204983B
:1052C000012809D1002014231D221621009044201A
:1052D00000F0D6FE00200490E54840680190FBF7FE
:1052E000F3F9E64A5242E74BCDE90201FBF700FA37
:1052F0000CD20498012809D1002014231C22162165
:105300000090452000F0BCFE00200490D848406882
:105310000190FBF7D9F9D74A5242DB4BCDE90201A4
:10532000FBF7E6F90CD20498012809D100201423D8
:105330001B2216210090462000F0A2FE00200490BF
:10534000CB4840680190FBF7BFF94FF03332CF4BA9
:10535000CDE90201FBF7CCF90CD20498012809D160
:10536000002014231A2216210090472000F088FE06
:1053700000200490BE4840680190FBF7A5F9C44A9C
:10538000C44BCDE90201FBF7B3F90CD20498012814
:1053900009D100201423192216210090482000F082
:1053A0006FFE00200490B24840680190FBF78CF932
:1053B000B94ABA4BCDE90201FBF79AF90CD204982D
:1053C000012809D100201423182216210090492019
:1053D00000F056FE00200490A54840680190FBF7BD
:1053E00073F9AF4AAF4BCDE90201FBF781F90CD25B
:1053F0000498012809D100201423172216210090B7
:105400004A2000F03DFE0020049099484068019039
:10541000FBF75AF9A44AA54BCDE90201FBF768F95D
:105420000CD20498012809D1002014231622114619
:1054300000904B2000F024FE002004908C4840682F
:105440000190FBF741F99A4A9A4BCDE90201FBF72B
:105450004FF90CD20498012809D1002014231522F9
:10546000162100904C2000F00BFE00200490804894
:1054700040680190FBF728F98F4A904BCDE9020173
:10548000FBF736F90CD20498012809D10020142327
:105490001A46162100904D2000F0F2FD00200490E5
:1054A000734840680190FBF70FF9854A854BCDE9B9
:1054B0000201FBF71DF90CD20498012809D1002044
:1054C00014231322162100904E2000F0D9FD002055
:1054D0000490674840680190FBF7F6F87A4A7B4BE6
:1054E000CDE90201FBF704F90CD20498012809D197
:1054F000002014231222162100904F2000F0C0FD3E
:10550000002004905A4840680190FBF7DDF8704A8B
:10551000704BCDE90201FBF7EBF80CD2049801289F
:1055200009D100201423112216210090502000F0F0
:10553000A7FD002004904E4840680190FBF7C4F896
:105540000022654BCDE90201FBF7D2F80CD204989A
:10555000012809D100201423102216210090512087
:1055600000F08EFD00200490414840680190FBF758
:10557000ABF8424A5242594BCDE90201FBF7B8F869
:105580000CD20498012809D1002014230F221621DF
:105590000090522000F074FD0020049034484068D0
:1055A0000190FBF791F84A4A52424D4BCDE9020176
:1055B000FBF79EF80CD20498012809D1002014238F
:1055C0000E2216210090532000F05AFD0020049076
:1055D000274840680190FBF777F8264A5242414B32
:1055E000CDE90201FBF784F80CD20498012809D117
:1055F000002014230D2216210090542000F040FDBD
:10560000002004901A4840680190FBF75DF82E4A8C
:105610005242354BCDE90201FBF76AF80CD20498EF
:10562000012809D1002014230C22162100905520B6
:1056300000F026FD002004900D4840680190FBF723
:1056400043F84FF03332294BCDE90201FBF750F814
:105650000CD20498012809D1002014230B22162112
:105660000090562000F00CFD0020049000483FE020
:1056700004000020E17A14AE47E10E40F6285C8F6A
:10568000C2F50E403D0A0F40B81E0F4033330F40A5
:1056900048E17A14AE470F405C8FC2F5285C0F409A
:1056A000713D0AD7A3700F4085EB51B81E850F409E
:1056B0009A99999999990F40AE47E17A14AE0F40A3
:1056C000C3F5285C8FC20F40D7A3703D0AD70F40A7
:1056D000EC51B81E85EB0F40000010403D0A104011
:1056E0007A141040B81E1040F52810403333104093
:1056F00040680190FAF7E8FF7C4A7D4BCDE9020152
:10570000FAF7F6FF0CD20498012809D100201423DF
:105710000A2216210090572000F0B2FC00200490CD
:10572000744840680190FAF7CFFF734A734BCDE994
:105730000201FAF7DDFF0CD20498012809D10020FC
:105740001423092216210090582000F099FC002013
:105750000490684840680190FAF7B6FF684A694BC0
:10576000CDE90201FAF7C4FF0CD20498012809D14F
:1057700000201423082216210090592000F080FCFC
:10578000002004905B4840680190FAF79DFF5E4A54
:105790005E4BCDE90201FAF7ABFF0CD20498012869
:1057A00009D1002014230722162100905A2000F06E
:1057B00067FC002004904F4840680190FAF784FF8E
:1057C0004FF06632524BCDE90201FAF791FF0CD24D
:1057D0000498012809D100201423062216210090E4
:1057E0005B2000F04DFC002004904248406801908E
:1057F000FAF76AFF474A484BCDE90201FAF778FF0A
:105800000CD20498012809D1002014230522162166
:1058100000905C2000F034FC002004903548406883
:105820000190FAF751FF3D4A3D4BCDE90201FAF7ED
:105830005FFF0CD20498012809D100201423042210
:10584000162100905D2000F01BFC002004902948E8
:1058500040680190FAF738FF304A5242314BCDE9A7
:105860000201FAF745FF0CD20498012809D1002063
:1058700014230322162100905E2000F001FC00207A
:1058800004901C4840680190FAF71EFF214A5242DA
:10589000254BCDE90201FAF72BFF0CD20498012821
:1058A00009D1002014230222162100905F2000F06D
:1058B000E7FB002004900F4840680190FAF704FFCE
:1058C0001A4A1B4BCDE90201FAF712FF0CD20498D9
:1058D000012809D100201423012216210090602004
:1058E00000F0CEFB0020049005B000BD3D0AD7A318
:1058F000703D10400400002048E17A14AE4710408B
:1059000052B81E85EB5110405C8FC2F5285C1040E8
:1059100066661040713D0AD7A37010407B14AE47F5
:10592000E17A10401E8510405C8F10409A99999939
:105930009999104008B503215B2002F003FE012075
:10594000009003480EC8034802F008FF08BD00009D
:10595000900300204C0000202DE9F0410D48006824
:10596000FAF7B2FE064600220B4BFAF7CCFD0446CE
:1059700022460B4609A10B4801F074FD07210420C3
:1059800002F0E0FD0123084806C8064802F0D0FEF8
:10599000BDE8F0817803002000408F4025302E3292
:1059A00066730000CF000020A400002008B500208E
:1059B00032490860162380220146009000F060FB07
:1059C0000121052002F0BEFD012000902C480EC8E8
:1059D0002CA002F0C3FE0B21282002F0B3FD012011
:1059E000009027480EC82CA002F0B8FE2C482DA12C
:1059F00002682D4801F036FD2221322002F0A2FD7E
:105A0000012000901E480EC8274802F0A7FE33214F
:105A1000142002F097FD0120009019480EC823A021
:105A200002F09CFE02F094FD01212448FCF792FA5A
:105A300078B1234911480068FAF7B0FE09D2002076
:105A40000A2380222021009000F01AFB0020144934
:105A500008604FF400511B48FCF77CFA60B9184904
:105A600006480068FAF79AFE06D205201649087023
:105A7000084600781549087008BD0000780300202A
:105A800090030020CEE1F9E5E520EAEEEBE8F7E54A
:105A9000F1F2E2EE00000000E7E0F2FFE6E5EA00E6
:105AA00074000020256400006003002046697265D0
:105AB000202D20F1E1F0EEF100000000000801408F
:105AC0000000C842000C014052000020530000209A
:105AD00008B508490968C9084FF47A72B1FBF2F1B8
